{
  "contractName": "PredictorsApp",
  "abi": [
    {
      "inputs": [],
      "stateMutability": "nonpayable",
      "type": "constructor"
    },
    {
      "anonymous": false,
      "inputs": [
        {
          "indexed": false,
          "internalType": "address",
          "name": "walletAddress",
          "type": "address"
        },
        {
          "indexed": false,
          "internalType": "uint256",
          "name": "amount",
          "type": "uint256"
        }
      ],
      "name": "BalanceWithdrawn",
      "type": "event"
    },
    {
      "anonymous": false,
      "inputs": [
        {
          "indexed": false,
          "internalType": "uint256",
          "name": "id",
          "type": "uint256"
        },
        {
          "indexed": false,
          "internalType": "string",
          "name": "postContent",
          "type": "string"
        },
        {
          "indexed": false,
          "internalType": "uint256",
          "name": "postBet",
          "type": "uint256"
        },
        {
          "indexed": false,
          "internalType": "uint256",
          "name": "postEndDate",
          "type": "uint256"
        },
        {
          "indexed": false,
          "internalType": "address",
          "name": "postAuthor",
          "type": "address"
        },
        {
          "indexed": false,
          "internalType": "enum PredictorsApp.SIDE",
          "name": "_side",
          "type": "uint8"
        }
      ],
      "name": "NewPost",
      "type": "event"
    },
    {
      "anonymous": false,
      "inputs": [
        {
          "indexed": false,
          "internalType": "uint256",
          "name": "id",
          "type": "uint256"
        },
        {
          "indexed": false,
          "internalType": "string",
          "name": "fullName",
          "type": "string"
        },
        {
          "indexed": false,
          "internalType": "address",
          "name": "walletAddress",
          "type": "address"
        }
      ],
      "name": "NewUser",
      "type": "event"
    },
    {
      "anonymous": false,
      "inputs": [
        {
          "indexed": false,
          "internalType": "uint256",
          "name": "postId",
          "type": "uint256"
        },
        {
          "indexed": false,
          "internalType": "address",
          "name": "winner",
          "type": "address"
        },
        {
          "indexed": false,
          "internalType": "uint256",
          "name": "totalBet",
          "type": "uint256"
        },
        {
          "indexed": false,
          "internalType": "uint256",
          "name": "authorReward",
          "type": "uint256"
        }
      ],
      "name": "PostFinish",
      "type": "event"
    },
    {
      "anonymous": false,
      "inputs": [
        {
          "indexed": false,
          "internalType": "uint256",
          "name": "postId",
          "type": "uint256"
        },
        {
          "indexed": false,
          "internalType": "address",
          "name": "participant",
          "type": "address"
        },
        {
          "indexed": false,
          "internalType": "uint256",
          "name": "amount",
          "type": "uint256"
        },
        {
          "indexed": false,
          "internalType": "enum PredictorsApp.SIDE",
          "name": "_side",
          "type": "uint8"
        }
      ],
      "name": "PostParticipation",
      "type": "event"
    },
    {
      "inputs": [],
      "name": "admin",
      "outputs": [
        {
          "internalType": "address",
          "name": "",
          "type": "address"
        }
      ],
      "stateMutability": "view",
      "type": "function",
      "constant": true
    },
    {
      "inputs": [
        {
          "internalType": "address",
          "name": "",
          "type": "address"
        },
        {
          "internalType": "enum PredictorsApp.SIDE",
          "name": "",
          "type": "uint8"
        }
      ],
      "name": "betAmountByUser",
      "outputs": [
        {
          "internalType": "uint256",
          "name": "",
          "type": "uint256"
        }
      ],
      "stateMutability": "view",
      "type": "function",
      "constant": true
    },
    {
      "inputs": [
        {
          "internalType": "uint256",
          "name": "",
          "type": "uint256"
        }
      ],
      "name": "postBet",
      "outputs": [
        {
          "internalType": "uint256",
          "name": "",
          "type": "uint256"
        }
      ],
      "stateMutability": "view",
      "type": "function",
      "constant": true
    },
    {
      "inputs": [
        {
          "internalType": "uint256",
          "name": "",
          "type": "uint256"
        }
      ],
      "name": "postBetPool",
      "outputs": [
        {
          "internalType": "uint256",
          "name": "",
          "type": "uint256"
        }
      ],
      "stateMutability": "view",
      "type": "function",
      "constant": true
    },
    {
      "inputs": [],
      "name": "postCount",
      "outputs": [
        {
          "internalType": "uint256",
          "name": "",
          "type": "uint256"
        }
      ],
      "stateMutability": "view",
      "type": "function",
      "constant": true
    },
    {
      "inputs": [
        {
          "internalType": "uint256",
          "name": "",
          "type": "uint256"
        }
      ],
      "name": "posts",
      "outputs": [
        {
          "internalType": "uint256",
          "name": "id",
          "type": "uint256"
        },
        {
          "internalType": "string",
          "name": "postContent",
          "type": "string"
        },
        {
          "internalType": "uint256",
          "name": "postBet",
          "type": "uint256"
        },
        {
          "internalType": "uint256",
          "name": "postDate",
          "type": "uint256"
        },
        {
          "internalType": "uint256",
          "name": "postEndDate",
          "type": "uint256"
        },
        {
          "internalType": "uint256",
          "name": "postBetPool",
          "type": "uint256"
        },
        {
          "internalType": "bool",
          "name": "postFinished",
          "type": "bool"
        }
      ],
      "stateMutability": "view",
      "type": "function",
      "constant": true
    },
    {
      "inputs": [
        {
          "internalType": "address",
          "name": "",
          "type": "address"
        },
        {
          "internalType": "uint256",
          "name": "",
          "type": "uint256"
        }
      ],
      "name": "sideByUser",
      "outputs": [
        {
          "internalType": "enum PredictorsApp.SIDE",
          "name": "",
          "type": "uint8"
        }
      ],
      "stateMutability": "view",
      "type": "function",
      "constant": true
    },
    {
      "inputs": [],
      "name": "state",
      "outputs": [
        {
          "internalType": "enum PredictorsApp.SIDE",
          "name": "winner",
          "type": "uint8"
        },
        {
          "internalType": "enum PredictorsApp.SIDE",
          "name": "loser",
          "type": "uint8"
        }
      ],
      "stateMutability": "view",
      "type": "function",
      "constant": true
    },
    {
      "inputs": [
        {
          "internalType": "enum PredictorsApp.SIDE",
          "name": "",
          "type": "uint8"
        }
      ],
      "name": "topBetsForSide",
      "outputs": [
        {
          "internalType": "uint256",
          "name": "",
          "type": "uint256"
        }
      ],
      "stateMutability": "view",
      "type": "function",
      "constant": true
    },
    {
      "inputs": [],
      "name": "userCount",
      "outputs": [
        {
          "internalType": "uint256",
          "name": "",
          "type": "uint256"
        }
      ],
      "stateMutability": "view",
      "type": "function",
      "constant": true
    },
    {
      "inputs": [
        {
          "internalType": "address",
          "name": "",
          "type": "address"
        }
      ],
      "name": "users",
      "outputs": [
        {
          "internalType": "uint256",
          "name": "id",
          "type": "uint256"
        },
        {
          "internalType": "string",
          "name": "fullName",
          "type": "string"
        },
        {
          "internalType": "uint256",
          "name": "balance",
          "type": "uint256"
        },
        {
          "internalType": "address",
          "name": "walletAddress",
          "type": "address"
        },
        {
          "internalType": "uint256",
          "name": "registerDate",
          "type": "uint256"
        },
        {
          "internalType": "bool",
          "name": "isVerified",
          "type": "bool"
        },
        {
          "internalType": "uint256",
          "name": "predictionSuccesful",
          "type": "uint256"
        }
      ],
      "stateMutability": "view",
      "type": "function",
      "constant": true
    },
    {
      "inputs": [
        {
          "internalType": "address",
          "name": "_newOwner",
          "type": "address"
        }
      ],
      "name": "setOwner",
      "outputs": [],
      "stateMutability": "nonpayable",
      "type": "function"
    },
    {
      "inputs": [
        {
          "internalType": "string",
          "name": "_fullName",
          "type": "string"
        }
      ],
      "name": "registerUser",
      "outputs": [],
      "stateMutability": "nonpayable",
      "type": "function"
    },
    {
      "inputs": [
        {
          "internalType": "string",
          "name": "_postContent",
          "type": "string"
        },
        {
          "internalType": "uint256",
          "name": "_postBet",
          "type": "uint256"
        },
        {
          "internalType": "uint256",
          "name": "_postEndDate",
          "type": "uint256"
        },
        {
          "internalType": "enum PredictorsApp.SIDE",
          "name": "_side",
          "type": "uint8"
        }
      ],
      "name": "createPost",
      "outputs": [],
      "stateMutability": "nonpayable",
      "type": "function"
    },
    {
      "inputs": [
        {
          "internalType": "uint256",
          "name": "_postId",
          "type": "uint256"
        },
        {
          "internalType": "enum PredictorsApp.SIDE",
          "name": "_side",
          "type": "uint8"
        },
        {
          "internalType": "uint256",
          "name": "_amount",
          "type": "uint256"
        }
      ],
      "name": "participateInPost",
      "outputs": [],
      "stateMutability": "nonpayable",
      "type": "function"
    },
    {
      "inputs": [
        {
          "internalType": "uint256",
          "name": "_postId",
          "type": "uint256"
        },
        {
          "internalType": "enum PredictorsApp.SIDE",
          "name": "_winner",
          "type": "uint8"
        },
        {
          "internalType": "enum PredictorsApp.SIDE",
          "name": "_loser",
          "type": "uint8"
        }
      ],
      "name": "postResults",
      "outputs": [],
      "stateMutability": "payable",
      "type": "function",
      "payable": true
    },
    {
      "inputs": [
        {
          "internalType": "address",
          "name": "_walletAddress",
          "type": "address"
        }
      ],
      "name": "isUser",
      "outputs": [
        {
          "internalType": "bool",
          "name": "",
          "type": "bool"
        }
      ],
      "stateMutability": "view",
      "type": "function",
      "constant": true
    },
    {
      "inputs": [
        {
          "internalType": "address",
          "name": "_userAddress",
          "type": "address"
        }
      ],
      "name": "getUserFullName",
      "outputs": [
        {
          "internalType": "string",
          "name": "",
          "type": "string"
        }
      ],
      "stateMutability": "view",
      "type": "function",
      "constant": true
    },
    {
      "inputs": [
        {
          "internalType": "address",
          "name": "_walletAddress",
          "type": "address"
        }
      ],
      "name": "getUserDetails",
      "outputs": [
        {
          "internalType": "uint256",
          "name": "",
          "type": "uint256"
        },
        {
          "internalType": "string",
          "name": "",
          "type": "string"
        },
        {
          "internalType": "uint256",
          "name": "",
          "type": "uint256"
        },
        {
          "internalType": "address",
          "name": "",
          "type": "address"
        },
        {
          "internalType": "uint256",
          "name": "",
          "type": "uint256"
        },
        {
          "internalType": "bool",
          "name": "",
          "type": "bool"
        },
        {
          "internalType": "uint256[]",
          "name": "",
          "type": "uint256[]"
        },
        {
          "internalType": "uint256[]",
          "name": "",
          "type": "uint256[]"
        },
        {
          "internalType": "uint256",
          "name": "",
          "type": "uint256"
        }
      ],
      "stateMutability": "view",
      "type": "function",
      "constant": true
    },
    {
      "inputs": [
        {
          "internalType": "uint256",
          "name": "_id",
          "type": "uint256"
        }
      ],
      "name": "getPostDetails",
      "outputs": [
        {
          "internalType": "uint256",
          "name": "",
          "type": "uint256"
        },
        {
          "internalType": "string",
          "name": "",
          "type": "string"
        },
        {
          "internalType": "uint256",
          "name": "",
          "type": "uint256"
        },
        {
          "internalType": "uint256",
          "name": "",
          "type": "uint256"
        },
        {
          "internalType": "uint256",
          "name": "",
          "type": "uint256"
        },
        {
          "internalType": "address[]",
          "name": "",
          "type": "address[]"
        },
        {
          "internalType": "uint256",
          "name": "",
          "type": "uint256"
        },
        {
          "internalType": "bool",
          "name": "",
          "type": "bool"
        }
      ],
      "stateMutability": "view",
      "type": "function",
      "constant": true
    },
    {
      "inputs": [
        {
          "internalType": "bool",
          "name": "_status",
          "type": "bool"
        }
      ],
      "name": "getPostByStatus",
      "outputs": [
        {
          "components": [
            {
              "internalType": "uint256",
              "name": "id",
              "type": "uint256"
            },
            {
              "internalType": "string",
              "name": "postContent",
              "type": "string"
            },
            {
              "internalType": "uint256",
              "name": "postBet",
              "type": "uint256"
            },
            {
              "internalType": "uint256",
              "name": "postDate",
              "type": "uint256"
            },
            {
              "internalType": "uint256",
              "name": "postEndDate",
              "type": "uint256"
            },
            {
              "internalType": "address[]",
              "name": "postParticipants",
              "type": "address[]"
            },
            {
              "internalType": "uint256",
              "name": "postBetPool",
              "type": "uint256"
            },
            {
              "internalType": "bool",
              "name": "postFinished",
              "type": "bool"
            }
          ],
          "internalType": "struct PredictorsApp.Post[]",
          "name": "",
          "type": "tuple[]"
        }
      ],
      "stateMutability": "view",
      "type": "function",
      "constant": true
    },
    {
      "inputs": [],
      "name": "getOwner",
      "outputs": [
        {
          "internalType": "address",
          "name": "",
          "type": "address"
        }
      ],
      "stateMutability": "view",
      "type": "function",
      "constant": true
    },
    {
      "inputs": [
        {
          "internalType": "address",
          "name": "_walletAddress",
          "type": "address"
        }
      ],
      "name": "getUser",
      "outputs": [
        {
          "components": [
            {
              "internalType": "uint256",
              "name": "id",
              "type": "uint256"
            },
            {
              "internalType": "string",
              "name": "fullName",
              "type": "string"
            },
            {
              "internalType": "uint256",
              "name": "balance",
              "type": "uint256"
            },
            {
              "internalType": "address",
              "name": "walletAddress",
              "type": "address"
            },
            {
              "internalType": "uint256",
              "name": "registerDate",
              "type": "uint256"
            },
            {
              "internalType": "bool",
              "name": "isVerified",
              "type": "bool"
            },
            {
              "internalType": "uint256[]",
              "name": "partipicatedPost",
              "type": "uint256[]"
            },
            {
              "internalType": "uint256[]",
              "name": "allPredictions",
              "type": "uint256[]"
            },
            {
              "internalType": "uint256",
              "name": "predictionSuccesful",
              "type": "uint256"
            }
          ],
          "internalType": "struct PredictorsApp.User",
          "name": "",
          "type": "tuple"
        }
      ],
      "stateMutability": "view",
      "type": "function",
      "constant": true
    },
    {
      "inputs": [
        {
          "internalType": "uint256",
          "name": "_id",
          "type": "uint256"
        }
      ],
      "name": "getPost",
      "outputs": [
        {
          "components": [
            {
              "internalType": "uint256",
              "name": "id",
              "type": "uint256"
            },
            {
              "internalType": "string",
              "name": "postContent",
              "type": "string"
            },
            {
              "internalType": "uint256",
              "name": "postBet",
              "type": "uint256"
            },
            {
              "internalType": "uint256",
              "name": "postDate",
              "type": "uint256"
            },
            {
              "internalType": "uint256",
              "name": "postEndDate",
              "type": "uint256"
            },
            {
              "internalType": "address[]",
              "name": "postParticipants",
              "type": "address[]"
            },
            {
              "internalType": "uint256",
              "name": "postBetPool",
              "type": "uint256"
            },
            {
              "internalType": "bool",
              "name": "postFinished",
              "type": "bool"
            }
          ],
          "internalType": "struct PredictorsApp.Post",
          "name": "",
          "type": "tuple"
        }
      ],
      "stateMutability": "view",
      "type": "function",
      "constant": true
    },
    {
      "inputs": [],
      "name": "getUserCount",
      "outputs": [
        {
          "internalType": "uint256",
          "name": "",
          "type": "uint256"
        }
      ],
      "stateMutability": "view",
      "type": "function",
      "constant": true
    },
    {
      "inputs": [],
      "name": "getPostCount",
      "outputs": [
        {
          "internalType": "uint256",
          "name": "",
          "type": "uint256"
        }
      ],
      "stateMutability": "view",
      "type": "function",
      "constant": true
    },
    {
      "inputs": [
        {
          "internalType": "uint256",
          "name": "_postId",
          "type": "uint256"
        }
      ],
      "name": "getPostBet",
      "outputs": [
        {
          "internalType": "uint256",
          "name": "",
          "type": "uint256"
        }
      ],
      "stateMutability": "view",
      "type": "function",
      "constant": true
    },
    {
      "inputs": [
        {
          "internalType": "uint256",
          "name": "_postId",
          "type": "uint256"
        }
      ],
      "name": "getPostBetPool",
      "outputs": [
        {
          "internalType": "uint256",
          "name": "",
          "type": "uint256"
        }
      ],
      "stateMutability": "view",
      "type": "function",
      "constant": true
    }
  ],
  "bytecode": "0x608060405234801561001057600080fd5b50336000806101000a81548173ffffffffffffffffffffffffffffffffffffffff021916908373ffffffffffffffffffffffffffffffffffffffff1602179055506144be806100606000396000f3fe6080604052600436106101b75760003560e01c8063873ee900116100ec578063bcc954071161008a578063cde2e45011610064578063cde2e450146106c7578063d7441ee914610704578063dd1d8a4314610741578063f851a4401461076a576101b7565b8063bcc954071461062b578063c19d93fb14610656578063cc3d967b14610682576101b7565b8063a87430ba116100c6578063a87430ba14610543578063adb2e2d214610586578063b5cb15f7146105c3578063bc36aac8146105ee576101b7565b8063873ee90014610497578063893d20e8146104d45780639fc226f4146104ff576101b7565b80633135899a11610159578063583013281161013357806358301328146103b75780636f77926b146103f4578063704f1b941461043157806380897d3b1461045a576101b7565b80633135899a1461030057806340731c241461033d5780634209fff11461037a576101b7565b806313af40351161019557806313af40351461025357806317906c2e1461027c5780631b9cde57146102a7578063302513d0146102c3576101b7565b806303f505c3146101bc57806307973ccf146101e55780630b1e7f8314610210575b600080fd5b3480156101c857600080fd5b506101e360048036038101906101de9190612d68565b610795565b005b3480156101f157600080fd5b506101fa610c06565b6040516102079190612dfa565b60405180910390f35b34801561021c57600080fd5b5061023760048036038101906102329190612e15565b610c0c565b60405161024a9796959493929190612ee5565b60405180910390f35b34801561025f57600080fd5b5061027a60048036038101906102759190612fb9565b610ce3565b005b34801561028857600080fd5b50610291610db4565b60405161029e9190612dfa565b60405180910390f35b6102c160048036038101906102bc9190612fe6565b610dba565b005b3480156102cf57600080fd5b506102ea60048036038101906102e59190613039565b6112bc565b6040516102f79190612dfa565b60405180910390f35b34801561030c57600080fd5b5061032760048036038101906103229190613066565b6112d4565b6040516103349190612dfa565b60405180910390f35b34801561034957600080fd5b50610364600480360381019061035f9190612e15565b6112f9565b6040516103719190613283565b60405180910390f35b34801561038657600080fd5b506103a1600480360381019061039c9190612fb9565b6114ed565b6040516103ae91906132a5565b60405180910390f35b3480156103c357600080fd5b506103de60048036038101906103d99190612e15565b611588565b6040516103eb9190612dfa565b60405180910390f35b34801561040057600080fd5b5061041b60048036038101906104169190612fb9565b6115a0565b6040516104289190613442565b60405180910390f35b34801561043d57600080fd5b5061045860048036038101906104539190613464565b61181d565b005b34801561046657600080fd5b50610481600480360381019061047c9190612e15565b611b1b565b60405161048e9190612dfa565b60405180910390f35b3480156104a357600080fd5b506104be60048036038101906104b991906134ad565b611b33565b6040516104cb9190613564565b60405180910390f35b3480156104e057600080fd5b506104e9611b62565b6040516104f6919061358e565b60405180910390f35b34801561050b57600080fd5b5061052660048036038101906105219190612e15565b611b8b565b60405161053a989796959493929190613618565b60405180910390f35b34801561054f57600080fd5b5061056a60048036038101906105659190612fb9565b611dc6565b60405161057d97969594939291906136a4565b60405180910390f35b34801561059257600080fd5b506105ad60048036038101906105a89190613746565b611ebd565b6040516105ba91906138ec565b60405180910390f35b3480156105cf57600080fd5b506105d8612190565b6040516105e59190612dfa565b60405180910390f35b3480156105fa57600080fd5b5061061560048036038101906106109190612e15565b61219a565b6040516106229190612dfa565b60405180910390f35b34801561063757600080fd5b506106406121cf565b60405161064d9190612dfa565b60405180910390f35b34801561066257600080fd5b5061066b6121d9565b60405161067992919061390e565b60405180910390f35b34801561068e57600080fd5b506106a960048036038101906106a49190612fb9565b612205565b6040516106be999897969594939291906139a6565b60405180910390f35b3480156106d357600080fd5b506106ee60048036038101906106e99190612e15565b6124d4565b6040516106fb9190612dfa565b60405180910390f35b34801561071057600080fd5b5061072b60048036038101906107269190612fb9565b612509565b6040516107389190613a48565b60405180910390f35b34801561074d57600080fd5b5061076860048036038101906107639190613a6a565b612573565b005b34801561077657600080fd5b5061077f612968565b60405161078c919061358e565b60405180910390f35b61079e336114ed565b6107dd576040517f08c379a00000000000000000000000000000000000000000000000000000000081526004016107d490613b2f565b60405180910390fd5b6000845111610821576040517f08c379a000000000000000000000000000000000000000000000000000000000815260040161081890613b9b565b60405180910390fd5b60008311610864576040517f08c379a000000000000000000000000000000000000000000000000000000000815260040161085b90613c2d565b60405180910390fd5b6001600260008282546108779190613c7c565b925050819055506000600167ffffffffffffffff81111561089b5761089a612be2565b5b6040519080825280602002602001820160405280156108c95781602001602082028036833780820191505090505b50905033816000815181106108e1576108e0613cd2565b5b602002602001019073ffffffffffffffffffffffffffffffffffffffff16908173ffffffffffffffffffffffffffffffffffffffff168152505081600860003373ffffffffffffffffffffffffffffffffffffffff1673ffffffffffffffffffffffffffffffffffffffff1681526020019081526020016000206000600254815260200190815260200160002060006101000a81548160ff021916908360018111156109905761098f6134ed565b5b0217905550604051806101000160405280600254815260200186815260200185815260200142815260200184815260200182815260200185815260200160001515815250600660006002548152602001908152602001600020600082015181600001556020820151816001019080519060200190610a0f92919061298e565b5060408201518160020155606082015181600301556080820151816004015560a0820151816005019080519060200190610a4a929190612a14565b5060c0820151816006015560e08201518160070160006101000a81548160ff02191690831515021790555090505083600960003373ffffffffffffffffffffffffffffffffffffffff1673ffffffffffffffffffffffffffffffffffffffff1681526020019081526020016000206000846001811115610acd57610acc6134ed565b5b6001811115610adf57610ade6134ed565b5b81526020019081526020016000206000828254610afc9190613c7c565b925050819055508360076000846001811115610b1b57610b1a6134ed565b5b6001811115610b2d57610b2c6134ed565b5b81526020019081526020016000206000828254610b4a9190613c7c565b92505081905550600560003373ffffffffffffffffffffffffffffffffffffffff1673ffffffffffffffffffffffffffffffffffffffff16815260200190815260200160002060070160025490806001815401808255809150506001900390600052602060002001600090919091909150557f7899c2ae62d80d88c47b7e17dbdb5dec5b80aab5ed5bd8700581a6819e48dba26002548686863387604051610bf796959493929190613d01565b60405180910390a15050505050565b60015481565b6006602052806000526040600020600091509050806000015490806001018054610c3590613d98565b80601f0160208091040260200160405190810160405280929190818152602001828054610c6190613d98565b8015610cae5780601f10610c8357610100808354040283529160200191610cae565b820191906000526020600020905b815481529060010190602001808311610c9157829003601f168201915b5050505050908060020154908060030154908060040154908060060154908060070160009054906101000a900460ff16905087565b60008054906101000a900473ffffffffffffffffffffffffffffffffffffffff1673ffffffffffffffffffffffffffffffffffffffff163373ffffffffffffffffffffffffffffffffffffffff1614610d71576040517f08c379a0000000000000000000000000000000000000000000000000000000008152600401610d6890613e3b565b60405180910390fd5b806000806101000a81548173ffffffffffffffffffffffffffffffffffffffff021916908373ffffffffffffffffffffffffffffffffffffffff16021790555050565b60025481565b600015156006600085815260200190815260200160002060070160009054906101000a900460ff16151514610e24576040517f08c379a0000000000000000000000000000000000000000000000000000000008152600401610e1b90613ea7565b60405180910390fd5b81600460000160006101000a81548160ff02191690836001811115610e4c57610e4b6134ed565b5b021790555080600460000160016101000a81548160ff02191690836001811115610e7957610e786134ed565b5b021790555060016006600085815260200190815260200160002060070160006101000a81548160ff0219169083151502179055506000600660008581526020019081526020016000206005018054905067ffffffffffffffff811115610ee257610ee1612be2565b5b604051908082528060200260200182016040528015610f105781602001602082028036833780820191505090505b509050600060066000868152602001908152602001600020600501805480602002602001604051908101604052809291908181526020018280548015610fab57602002820191906000526020600020905b8160009054906101000a900473ffffffffffffffffffffffffffffffffffffffff1673ffffffffffffffffffffffffffffffffffffffff1681526020019060010190808311610f61575b5050505050905060006006600087815260200190815260200160002060060154905060005b82518110156112b3576000838281518110610fee57610fed613cd2565b5b60200260200101519050600860008273ffffffffffffffffffffffffffffffffffffffff1673ffffffffffffffffffffffffffffffffffffffff168152602001908152602001600020600089815260200190815260200160002060009054906101000a900460ff1685838151811061106957611068613cd2565b5b60200260200101906001811115611083576110826134ed565b5b90816001811115611097576110966134ed565b5b81525050600460000160009054906101000a900460ff1660018111156110c0576110bf6134ed565b5b8583815181106110d3576110d2613cd2565b5b602002602001015160018111156110ed576110ec6134ed565b5b0361129f576001600560008373ffffffffffffffffffffffffffffffffffffffff1673ffffffffffffffffffffffffffffffffffffffff16815260200190815260200160002060080160008282546111459190613c7c565b925050819055506000600960008373ffffffffffffffffffffffffffffffffffffffff1673ffffffffffffffffffffffffffffffffffffffff16815260200190815260200160002060008785815181106111a2576111a1613cd2565b5b602002602001015160018111156111bc576111bb6134ed565b5b60018111156111ce576111cd6134ed565b5b8152602001908152602001600020549050600060076000600460000160009054906101000a900460ff16600181111561120a576112096134ed565b5b600181111561121c5761121b6134ed565b5b81526020019081526020016000205485836112379190613ec7565b6112419190613f50565b905080600560008573ffffffffffffffffffffffffffffffffffffffff1673ffffffffffffffffffffffffffffffffffffffff16815260200190815260200160002060020160008282546112959190613c7c565b9250508190555050505b5080806112ab90613f81565b915050610fd0565b50505050505050565b60076020528060005260406000206000915090505481565b6009602052816000526040600020602052806000526040600020600091509150505481565b611301612a9e565b600060066000848152602001908152602001600020600001540361135a576040517f08c379a000000000000000000000000000000000000000000000000000000000815260040161135190614015565b60405180910390fd5b60066000838152602001908152602001600020604051806101000160405290816000820154815260200160018201805461139390613d98565b80601f01602080910402602001604051908101604052809291908181526020018280546113bf90613d98565b801561140c5780601f106113e15761010080835404028352916020019161140c565b820191906000526020600020905b8154815290600101906020018083116113ef57829003601f168201915b50505050508152602001600282015481526020016003820154815260200160048201548152602001600582018054806020026020016040519081016040528092919081815260200182805480156114b857602002820191906000526020600020905b8160009054906101000a900473ffffffffffffffffffffffffffffffffffffffff1673ffffffffffffffffffffffffffffffffffffffff168152602001906001019080831161146e575b50505050508152602001600682015481526020016007820160009054906101000a900460ff1615151515815250509050919050565b60008073ffffffffffffffffffffffffffffffffffffffff16600560008473ffffffffffffffffffffffffffffffffffffffff1673ffffffffffffffffffffffffffffffffffffffff16815260200190815260200160002060030160009054906101000a900473ffffffffffffffffffffffffffffffffffffffff1673ffffffffffffffffffffffffffffffffffffffff1614159050919050565b600b6020528060005260406000206000915090505481565b6115a8612ae5565b6115b1826114ed565b6115f0576040517f08c379a00000000000000000000000000000000000000000000000000000000081526004016115e790614081565b60405180910390fd5b600560008373ffffffffffffffffffffffffffffffffffffffff1673ffffffffffffffffffffffffffffffffffffffff168152602001908152602001600020604051806101200160405290816000820154815260200160018201805461165590613d98565b80601f016020809104026020016040519081016040528092919081815260200182805461168190613d98565b80156116ce5780601f106116a3576101008083540402835291602001916116ce565b820191906000526020600020905b8154815290600101906020018083116116b157829003601f168201915b50505050508152602001600282015481526020016003820160009054906101000a900473ffffffffffffffffffffffffffffffffffffffff1673ffffffffffffffffffffffffffffffffffffffff1673ffffffffffffffffffffffffffffffffffffffff168152602001600482015481526020016005820160009054906101000a900460ff16151515158152602001600682018054806020026020016040519081016040528092919081815260200182805480156117ab57602002820191906000526020600020905b815481526020019060010190808311611797575b505050505081526020016007820180548060200260200160405190810160405280929190818152602001828054801561180357602002820191906000526020600020905b8154815260200190600101908083116117ef575b505050505081526020016008820154815250509050919050565b6000815111611861576040517f08c379a0000000000000000000000000000000000000000000000000000000008152600401611858906140ed565b60405180910390fd5b61186a336114ed565b156118aa576040517f08c379a00000000000000000000000000000000000000000000000000000000081526004016118a190614159565b60405180910390fd5b60018060008282546118bc9190613c7c565b925050819055506040518061012001604052806001548152602001828152602001600081526020013373ffffffffffffffffffffffffffffffffffffffff168152602001428152602001600015158152602001600067ffffffffffffffff81111561192a57611929612be2565b5b6040519080825280602002602001820160405280156119585781602001602082028036833780820191505090505b508152602001600067ffffffffffffffff81111561197957611978612be2565b5b6040519080825280602002602001820160405280156119a75781602001602082028036833780820191505090505b5081526020016000815250600560003373ffffffffffffffffffffffffffffffffffffffff1673ffffffffffffffffffffffffffffffffffffffff168152602001908152602001600020600082015181600001556020820151816001019080519060200190611a1792919061298e565b506040820151816002015560608201518160030160006101000a81548173ffffffffffffffffffffffffffffffffffffffff021916908373ffffffffffffffffffffffffffffffffffffffff1602179055506080820151816004015560a08201518160050160006101000a81548160ff02191690831515021790555060c0820151816006019080519060200190611aaf929190612b49565b5060e0820151816007019080519060200190611acc929190612b49565b5061010082015181600801559050507f252de601d0068c75b821d503ebaaf561c5b04c99d1cf5ebe04bf9c4348285b2f6001548233604051611b1093929190614179565b60405180910390a150565b600a6020528060005260406000206000915090505481565b60086020528160005260406000206020528060005260406000206000915091509054906101000a900460ff1681565b60008060009054906101000a900473ffffffffffffffffffffffffffffffffffffffff16905090565b60006060600080600060606000806000600660008b81526020019081526020016000206000015403611bf2576040517f08c379a0000000000000000000000000000000000000000000000000000000008152600401611be990614203565b60405180910390fd5b6000600660008b81526020019081526020016000206040518061010001604052908160008201548152602001600182018054611c2d90613d98565b80601f0160208091040260200160405190810160405280929190818152602001828054611c5990613d98565b8015611ca65780601f10611c7b57610100808354040283529160200191611ca6565b820191906000526020600020905b815481529060010190602001808311611c8957829003601f168201915b5050505050815260200160028201548152602001600382015481526020016004820154815260200160058201805480602002602001604051908101604052809291908181526020018280548015611d5257602002820191906000526020600020905b8160009054906101000a900473ffffffffffffffffffffffffffffffffffffffff1673ffffffffffffffffffffffffffffffffffffffff1681526020019060010190808311611d08575b50505050508152602001600682015481526020016007820160009054906101000a900460ff1615151515815250509050806000015181602001518260400151836060015184608001518560a001518660c001518760e001519850985098509850985098509850985050919395975091939597565b6005602052806000526040600020600091509050806000015490806001018054611def90613d98565b80601f0160208091040260200160405190810160405280929190818152602001828054611e1b90613d98565b8015611e685780601f10611e3d57610100808354040283529160200191611e68565b820191906000526020600020905b815481529060010190602001808311611e4b57829003601f168201915b5050505050908060020154908060030160009054906101000a900473ffffffffffffffffffffffffffffffffffffffff16908060040154908060050160009054906101000a900460ff16908060080154905087565b6060600080600190505b6002548111611f20578315156006600083815260200190815260200160002060070160009054906101000a900460ff16151503611f0d578180611f0990613f81565b9250505b8080611f1890613f81565b915050611ec7565b5060008167ffffffffffffffff811115611f3d57611f3c612be2565b5b604051908082528060200260200182016040528015611f7657816020015b611f63612a9e565b815260200190600190039081611f5b5790505b509050600080600190505b6002548111612184578515156006600083815260200190815260200160002060070160009054906101000a900460ff1615150361217157600660008281526020019081526020016000206040518061010001604052908160008201548152602001600182018054611ff190613d98565b80601f016020809104026020016040519081016040528092919081815260200182805461201d90613d98565b801561206a5780601f1061203f5761010080835404028352916020019161206a565b820191906000526020600020905b81548152906001019060200180831161204d57829003601f168201915b505050505081526020016002820154815260200160038201548152602001600482015481526020016005820180548060200260200160405190810160405280929190818152602001828054801561211657602002820191906000526020600020905b8160009054906101000a900473ffffffffffffffffffffffffffffffffffffffff1673ffffffffffffffffffffffffffffffffffffffff16815260200190600101908083116120cc575b50505050508152602001600682015481526020016007820160009054906101000a900460ff16151515158152505083838151811061215757612156613cd2565b5b6020026020010181905250818061216d90613f81565b9250505b808061217c90613f81565b915050611f81565b50819350505050919050565b6000600154905090565b600080670de0b6b3a7640000905080600b6000858152602001908152602001600020546121c79190613f50565b915050919050565b6000600254905090565b60048060000160009054906101000a900460ff16908060000160019054906101000a900460ff16905082565b60006060600080600080606080600061221d8a6114ed565b61225c576040517f08c379a000000000000000000000000000000000000000000000000000000000815260040161225390614081565b60405180910390fd5b6000600560008c73ffffffffffffffffffffffffffffffffffffffff1673ffffffffffffffffffffffffffffffffffffffff16815260200190815260200160002060405180610120016040529081600082015481526020016001820180546122c390613d98565b80601f01602080910402602001604051908101604052809291908181526020018280546122ef90613d98565b801561233c5780601f106123115761010080835404028352916020019161233c565b820191906000526020600020905b81548152906001019060200180831161231f57829003601f168201915b50505050508152602001600282015481526020016003820160009054906101000a900473ffffffffffffffffffffffffffffffffffffffff1673ffffffffffffffffffffffffffffffffffffffff1673ffffffffffffffffffffffffffffffffffffffff168152602001600482015481526020016005820160009054906101000a900460ff161515151581526020016006820180548060200260200160405190810160405280929190818152602001828054801561241957602002820191906000526020600020905b815481526020019060010190808311612405575b505050505081526020016007820180548060200260200160405190810160405280929190818152602001828054801561247157602002820191906000526020600020905b81548152602001906001019080831161245d575b505050505081526020016008820154815250509050806000015181602001518260400151836060015184608001518560a001518660c001518760e00151886101000151995099509950995099509950995099509950509193959799909294969850565b600080670de0b6b3a7640000905080600a6000858152602001908152602001600020546125019190613f50565b915050919050565b6060600560008373ffffffffffffffffffffffffffffffffffffffff1673ffffffffffffffffffffffffffffffffffffffff16815260200190815260200160002060010160405160200161255d91906142c2565b6040516020818303038152906040529050919050565b60025483111580156125855750600083115b6125c4576040517f08c379a00000000000000000000000000000000000000000000000000000000081526004016125bb90614325565b60405180910390fd5b60008111612607576040517f08c379a00000000000000000000000000000000000000000000000000000000081526004016125fe90614391565b60405180910390fd5b3373ffffffffffffffffffffffffffffffffffffffff166006600085815260200190815260200160002060050160008154811061264757612646613cd2565b5b9060005260206000200160009054906101000a900473ffffffffffffffffffffffffffffffffffffffff1673ffffffffffffffffffffffffffffffffffffffff16036126c8576040517f08c379a00000000000000000000000000000000000000000000000000000000081526004016126bf90614423565b60405180910390fd5b80600760008460018111156126e0576126df6134ed565b5b60018111156126f2576126f16134ed565b5b8152602001908152602001600020600082825461270f9190613c7c565b925050819055508060066000858152602001908152602001600020600601600082825461273c9190613c7c565b9250508190555080600960003373ffffffffffffffffffffffffffffffffffffffff1673ffffffffffffffffffffffffffffffffffffffff1681526020019081526020016000206000846001811115612798576127976134ed565b5b60018111156127aa576127a96134ed565b5b815260200190815260200160002060008282546127c79190613c7c565b9250508190555081600860003373ffffffffffffffffffffffffffffffffffffffff1673ffffffffffffffffffffffffffffffffffffffff168152602001908152602001600020600085815260200190815260200160002060006101000a81548160ff02191690836001811115612841576128406134ed565b5b021790555060066000848152602001908152602001600020600501339080600181540180825580915050600190039060005260206000200160009091909190916101000a81548173ffffffffffffffffffffffffffffffffffffffff021916908373ffffffffffffffffffffffffffffffffffffffff160217905550600560003373ffffffffffffffffffffffffffffffffffffffff1673ffffffffffffffffffffffffffffffffffffffff1681526020019081526020016000206006018390806001815401808255809150506001900390600052602060002001600090919091909150557f65f3464dba2df0038cd6b6f3946cbff99b635032abc752ae6eb1d22a144d51438333838560405161295b9493929190614443565b60405180910390a1505050565b600360009054906101000a900473ffffffffffffffffffffffffffffffffffffffff1681565b82805461299a90613d98565b90600052602060002090601f0160209004810192826129bc5760008555612a03565b82601f106129d557805160ff1916838001178555612a03565b82800160010185558215612a03579182015b82811115612a025782518255916020019190600101906129e7565b5b509050612a109190612b96565b5090565b828054828255906000526020600020908101928215612a8d579160200282015b82811115612a8c5782518260006101000a81548173ffffffffffffffffffffffffffffffffffffffff021916908373ffffffffffffffffffffffffffffffffffffffff16021790555091602001919060010190612a34565b5b509050612a9a9190612b96565b5090565b604051806101000160405280600081526020016060815260200160008152602001600081526020016000815260200160608152602001600081526020016000151581525090565b604051806101200160405280600081526020016060815260200160008152602001600073ffffffffffffffffffffffffffffffffffffffff168152602001600081526020016000151581526020016060815260200160608152602001600081525090565b828054828255906000526020600020908101928215612b85579160200282015b82811115612b84578251825591602001919060010190612b69565b5b509050612b929190612b96565b5090565b5b80821115612baf576000816000905550600101612b97565b5090565b6000604051905090565b600080fd5b600080fd5b600080fd5b600080fd5b6000601f19601f8301169050919050565b7f4e487b7100000000000000000000000000000000000000000000000000000000600052604160045260246000fd5b612c1a82612bd1565b810181811067ffffffffffffffff82111715612c3957612c38612be2565b5b80604052505050565b6000612c4c612bb3565b9050612c588282612c11565b919050565b600067ffffffffffffffff821115612c7857612c77612be2565b5b612c8182612bd1565b9050602081019050919050565b82818337600083830152505050565b6000612cb0612cab84612c5d565b612c42565b905082815260208101848484011115612ccc57612ccb612bcc565b5b612cd7848285612c8e565b509392505050565b600082601f830112612cf457612cf3612bc7565b5b8135612d04848260208601612c9d565b91505092915050565b6000819050919050565b612d2081612d0d565b8114612d2b57600080fd5b50565b600081359050612d3d81612d17565b92915050565b60028110612d5057600080fd5b50565b600081359050612d6281612d43565b92915050565b60008060008060808587031215612d8257612d81612bbd565b5b600085013567ffffffffffffffff811115612da057612d9f612bc2565b5b612dac87828801612cdf565b9450506020612dbd87828801612d2e565b9350506040612dce87828801612d2e565b9250506060612ddf87828801612d53565b91505092959194509250565b612df481612d0d565b82525050565b6000602082019050612e0f6000830184612deb565b92915050565b600060208284031215612e2b57612e2a612bbd565b5b6000612e3984828501612d2e565b91505092915050565b600081519050919050565b600082825260208201905092915050565b60005b83811015612e7c578082015181840152602081019050612e61565b83811115612e8b576000848401525b50505050565b6000612e9c82612e42565b612ea68185612e4d565b9350612eb6818560208601612e5e565b612ebf81612bd1565b840191505092915050565b60008115159050919050565b612edf81612eca565b82525050565b600060e082019050612efa600083018a612deb565b8181036020830152612f0c8189612e91565b9050612f1b6040830188612deb565b612f286060830187612deb565b612f356080830186612deb565b612f4260a0830185612deb565b612f4f60c0830184612ed6565b98975050505050505050565b600073ffffffffffffffffffffffffffffffffffffffff82169050919050565b6000612f8682612f5b565b9050919050565b612f9681612f7b565b8114612fa157600080fd5b50565b600081359050612fb381612f8d565b92915050565b600060208284031215612fcf57612fce612bbd565b5b6000612fdd84828501612fa4565b91505092915050565b600080600060608486031215612fff57612ffe612bbd565b5b600061300d86828701612d2e565b935050602061301e86828701612d53565b925050604061302f86828701612d53565b9150509250925092565b60006020828403121561304f5761304e612bbd565b5b600061305d84828501612d53565b91505092915050565b6000806040838503121561307d5761307c612bbd565b5b600061308b85828601612fa4565b925050602061309c85828601612d53565b9150509250929050565b6130af81612d0d565b82525050565b600082825260208201905092915050565b60006130d182612e42565b6130db81856130b5565b93506130eb818560208601612e5e565b6130f481612bd1565b840191505092915050565b600081519050919050565b600082825260208201905092915050565b6000819050602082019050919050565b61313481612f7b565b82525050565b6000613146838361312b565b60208301905092915050565b6000602082019050919050565b600061316a826130ff565b613174818561310a565b935061317f8361311b565b8060005b838110156131b0578151613197888261313a565b97506131a283613152565b925050600181019050613183565b5085935050505092915050565b6131c681612eca565b82525050565b6000610100830160008301516131e560008601826130a6565b50602083015184820360208601526131fd82826130c6565b915050604083015161321260408601826130a6565b50606083015161322560608601826130a6565b50608083015161323860808601826130a6565b5060a083015184820360a0860152613250828261315f565b91505060c083015161326560c08601826130a6565b5060e083015161327860e08601826131bd565b508091505092915050565b6000602082019050818103600083015261329d81846131cc565b905092915050565b60006020820190506132ba6000830184612ed6565b92915050565b600081519050919050565b600082825260208201905092915050565b6000819050602082019050919050565b60006132f883836130a6565b60208301905092915050565b6000602082019050919050565b600061331c826132c0565b61332681856132cb565b9350613331836132dc565b8060005b8381101561336257815161334988826132ec565b975061335483613304565b925050600181019050613335565b5085935050505092915050565b60006101208301600083015161338860008601826130a6565b50602083015184820360208601526133a082826130c6565b91505060408301516133b560408601826130a6565b5060608301516133c8606086018261312b565b5060808301516133db60808601826130a6565b5060a08301516133ee60a08601826131bd565b5060c083015184820360c08601526134068282613311565b91505060e083015184820360e08601526134208282613311565b9150506101008301516134376101008601826130a6565b508091505092915050565b6000602082019050818103600083015261345c818461336f565b905092915050565b60006020828403121561347a57613479612bbd565b5b600082013567ffffffffffffffff81111561349857613497612bc2565b5b6134a484828501612cdf565b91505092915050565b600080604083850312156134c4576134c3612bbd565b5b60006134d285828601612fa4565b92505060206134e385828601612d2e565b9150509250929050565b7f4e487b7100000000000000000000000000000000000000000000000000000000600052602160045260246000fd5b6002811061352d5761352c6134ed565b5b50565b600081905061353e8261351c565b919050565b600061354e82613530565b9050919050565b61355e81613543565b82525050565b60006020820190506135796000830184613555565b92915050565b61358881612f7b565b82525050565b60006020820190506135a3600083018461357f565b92915050565b600082825260208201905092915050565b60006135c5826130ff565b6135cf81856135a9565b93506135da8361311b565b8060005b8381101561360b5781516135f2888261313a565b97506135fd83613152565b9250506001810190506135de565b5085935050505092915050565b60006101008201905061362e600083018b612deb565b8181036020830152613640818a612e91565b905061364f6040830189612deb565b61365c6060830188612deb565b6136696080830187612deb565b81810360a083015261367b81866135ba565b905061368a60c0830185612deb565b61369760e0830184612ed6565b9998505050505050505050565b600060e0820190506136b9600083018a612deb565b81810360208301526136cb8189612e91565b90506136da6040830188612deb565b6136e7606083018761357f565b6136f46080830186612deb565b61370160a0830185612ed6565b61370e60c0830184612deb565b98975050505050505050565b61372381612eca565b811461372e57600080fd5b50565b6000813590506137408161371a565b92915050565b60006020828403121561375c5761375b612bbd565b5b600061376a84828501613731565b91505092915050565b600081519050919050565b600082825260208201905092915050565b6000819050602082019050919050565b6000610100830160008301516137b860008601826130a6565b50602083015184820360208601526137d082826130c6565b91505060408301516137e560408601826130a6565b5060608301516137f860608601826130a6565b50608083015161380b60808601826130a6565b5060a083015184820360a0860152613823828261315f565b91505060c083015161383860c08601826130a6565b5060e083015161384b60e08601826131bd565b508091505092915050565b6000613862838361379f565b905092915050565b6000602082019050919050565b600061388282613773565b61388c818561377e565b93508360208202850161389e8561378f565b8060005b858110156138da57848403895281516138bb8582613856565b94506138c68361386a565b925060208a019950506001810190506138a2565b50829750879550505050505092915050565b600060208201905081810360008301526139068184613877565b905092915050565b60006040820190506139236000830185613555565b6139306020830184613555565b9392505050565b600082825260208201905092915050565b6000613953826132c0565b61395d8185613937565b9350613968836132dc565b8060005b8381101561399957815161398088826132ec565b975061398b83613304565b92505060018101905061396c565b5085935050505092915050565b6000610120820190506139bc600083018c612deb565b81810360208301526139ce818b612e91565b90506139dd604083018a612deb565b6139ea606083018961357f565b6139f76080830188612deb565b613a0460a0830187612ed6565b81810360c0830152613a168186613948565b905081810360e0830152613a2a8185613948565b9050613a3a610100830184612deb565b9a9950505050505050505050565b60006020820190508181036000830152613a628184612e91565b905092915050565b600080600060608486031215613a8357613a82612bbd565b5b6000613a9186828701612d2e565b9350506020613aa286828701612d53565b9250506040613ab386828701612d2e565b9150509250925092565b7f506f7374206f6c75737475726d616b206963696e206b756c6c616e696369206f60008201527f6c6d616c6973696e697a21000000000000000000000000000000000000000000602082015250565b6000613b19602b83612e4d565b9150613b2482613abd565b604082019050919050565b60006020820190508181036000830152613b4881613b0c565b9050919050565b7f506f737420636f6e74656e742069732072657175697265640000000000000000600082015250565b6000613b85601883612e4d565b9150613b9082613b4f565b602082019050919050565b60006020820190508181036000830152613bb481613b78565b9050919050565b7f42657420616d6f756e74206d7573742062652067726561746572207468616e2060008201527f3000000000000000000000000000000000000000000000000000000000000000602082015250565b6000613c17602183612e4d565b9150613c2282613bbb565b604082019050919050565b60006020820190508181036000830152613c4681613c0a565b9050919050565b7f4e487b7100000000000000000000000000000000000000000000000000000000600052601160045260246000fd5b6000613c8782612d0d565b9150613c9283612d0d565b9250827fffffffffffffffffffffffffffffffffffffffffffffffffffffffffffffffff03821115613cc757613cc6613c4d565b5b828201905092915050565b7f4e487b7100000000000000000000000000000000000000000000000000000000600052603260045260246000fd5b600060c082019050613d166000830189612deb565b8181036020830152613d288188612e91565b9050613d376040830187612deb565b613d446060830186612deb565b613d51608083018561357f565b613d5e60a0830184613555565b979650505050505050565b7f4e487b7100000000000000000000000000000000000000000000000000000000600052602260045260246000fd5b60006002820490506001821680613db057607f821691505b602082108103613dc357613dc2613d69565b5b50919050565b7f536164656365206865736170207361686962692064656769737469726562696c60008201527f6972210000000000000000000000000000000000000000000000000000000000602082015250565b6000613e25602383612e4d565b9150613e3082613dc9565b604082019050919050565b60006020820190508181036000830152613e5481613e18565b9050919050565b7f4b6568616e6574206269746d6564692100000000000000000000000000000000600082015250565b6000613e91601083612e4d565b9150613e9c82613e5b565b602082019050919050565b60006020820190508181036000830152613ec081613e84565b9050919050565b6000613ed282612d0d565b9150613edd83612d0d565b9250817fffffffffffffffffffffffffffffffffffffffffffffffffffffffffffffffff0483118215151615613f1657613f15613c4d565b5b828202905092915050565b7f4e487b7100000000000000000000000000000000000000000000000000000000600052601260045260246000fd5b6000613f5b82612d0d565b9150613f6683612d0d565b925082613f7657613f75613f21565b5b828204905092915050565b6000613f8c82612d0d565b91507fffffffffffffffffffffffffffffffffffffffffffffffffffffffffffffffff8203613fbe57613fbd613c4d565b5b600182019050919050565b7f506f737420646f6573206e6f7420657869737421000000000000000000000000600082015250565b6000613fff601483612e4d565b915061400a82613fc9565b602082019050919050565b6000602082019050818103600083015261402e81613ff2565b9050919050565b7f4b756c6c616e6963692062756c756e616d616469210000000000000000000000600082015250565b600061406b601583612e4d565b915061407682614035565b602082019050919050565b6000602082019050818103600083015261409a8161405e565b9050919050565b7f46756c6c206e616d652069732072657175697265640000000000000000000000600082015250565b60006140d7601583612e4d565b91506140e2826140a1565b602082019050919050565b60006020820190508181036000830152614106816140ca565b9050919050565b7f4275206b756c6c616e696369207a6174656e2076617221000000000000000000600082015250565b6000614143601783612e4d565b915061414e8261410d565b602082019050919050565b6000602082019050818103600083015261417281614136565b9050919050565b600060608201905061418e6000830186612deb565b81810360208301526141a08185612e91565b90506141af604083018461357f565b949350505050565b7f506f73742062756c756e616d6164692100000000000000000000000000000000600082015250565b60006141ed601083612e4d565b91506141f8826141b7565b602082019050919050565b6000602082019050818103600083015261421c816141e0565b9050919050565b600081905092915050565b60008190508160005260206000209050919050565b6000815461425081613d98565b61425a8186614223565b945060018216600081146142755760018114614286576142b9565b60ff198316865281860193506142b9565b61428f8561422e565b60005b838110156142b157815481890152600182019150602081019050614292565b838801955050505b50505092915050565b60006142ce8284614243565b915081905092915050565b7f496e76616c696420706f73742049440000000000000000000000000000000000600082015250565b600061430f600f83612e4d565b915061431a826142d9565b602082019050919050565b6000602082019050818103600083015261433e81614302565b9050919050565b7f416d6f756e74206d7573742062652067726561746572207468616e2030000000600082015250565b600061437b601d83612e4d565b915061438682614345565b602082019050919050565b600060208201905081810360008301526143aa8161436e565b9050919050565b7f4b656e6469206b6568616e6574696e65206b6174696c696d20796170616d617a60008201527f73696e2100000000000000000000000000000000000000000000000000000000602082015250565b600061440d602483612e4d565b9150614418826143b1565b604082019050919050565b6000602082019050818103600083015261443c81614400565b9050919050565b60006080820190506144586000830187612deb565b614465602083018661357f565b6144726040830185612deb565b61447f6060830184613555565b9594505050505056fea2646970667358221220c303dce6601d917324a989de2e89d58d13dabde042e02bdbfe179e3247de24de64736f6c634300080d0033",
  "immutableReferences": {},
  "source": "// SPDX-License-Identifier: MIT\n\npragma solidity ^0.8.13;\n\n//import \"@openzeppelin/contracts/security/ReentrancyGuard.sol\";\n\ncontract PredictorsApp {\n    \n    /* ////////////////////////////////// */\n    /* ////////// DEKENLER /////////// */\n    /* ////////////////////////////////// */\n    address private owner; // Contract sahibinin adresini tutmak iin bir deiken oluturuyoruz.\n    uint256 public userCount; // Kullanc saysn tutmak iin bir deiken oluturuyoruz. Backend'e saklayacaz\n    uint256 public postCount; // Post saysn tutmak iin bir deiken oluturuyoruz. Backend'e saklayacaz\n    address public admin; // Admin adresini tutmak iin bir deiken oluturuyoruz.\n    WinnerLoserState public state; // WinnerLoserState struct'n manipule etmek iin bu deikeni kullanacaz.\n\n    /* ////////////////////////////////// */\n    /* //////////// ENUMLAR ///////////// */\n    /* ////////////////////////////////// */\n\n    enum SIDE {LEFT,RIGHT} // LEFT/RIGHT enum tipini oluturuyoruz.\n\n    /* ////////////////////////////////// */\n    /* ///////// STRUCT YAPILARI //////// */\n    /* ////////////////////////////////// */\n\n    //Kullanc bilgilerini tutmak iin User struct' oluturuyoruz.\n    struct User {\n        uint256 id; // Kullancnn ID'sini tutuyoruz.\n        string fullName; // Kullancnn adn ve soyadn tutuyoruz.\n        uint balance; //Kullancnn bakiyesi\n        address walletAddress; //Kullancnn czdan adresini tutuyoruz.\n        uint256 registerDate; //Kullancnn kayt olduu tarihi tutuyoruz.\n        bool isVerified; //Kullancnn dorulanp dorulanmadn tutuyoruz.\n        uint256[] partipicatedPost; //Kullanicinin Katildigi (DER) Postlar - Int Array (Kendi postuna katlamaz)\n        uint256[] allPredictions; //Kullanicinin Tum Postlarinn ID'leri - Int Array\n        uint256 predictionSuccesful; //Kullanici Basarili Sonuclanan Post Sayisi\n    }\n\n    //Post bilgilerini tutmak iin Post struct' oluturuyoruz.\n    struct Post {\n        uint256 id; // Postun ID'sini tutuyoruz.\n        string postContent; // Postun ieriini tutuyoruz.\n        uint256 postBet; // Kahinin postu olutururken yatrd bet miktarn tutuyoruz.\n        uint256 postDate; // Postun oluturulma tarihini tutuyoruz.\n        uint256 postEndDate; // Postun biti tarihini tutuyoruz.\n        address[] postParticipants; //Post katilimcileri - Address Array\n        uint256 postBetPool; //Posta katlmclarn yatrd toplam bet miktarn tutuyoruz.\n        bool postFinished; // Postun bitip bitmediini tutuyoruz.\n    }\n\n    // Kehanetin sonucunu yani hangi tarafn kazandn burada tutacaz\n    struct WinnerLoserState {\n        SIDE winner; // SIDE tipinde kazananlar tutuyoruz. (Left'in ve Right'n kazananlar)\n        SIDE loser; // SIDE tipinde kaybedenleri tutuyoruz. (Left'in ve Right'n kaybedenleri)\n    }\n\n    /* ////////////////////////////////// */\n    /* //////// MAPPING YAPILARI //////// */\n    /* ////////////////////////////////// */\n\n    mapping(address => User) public users; // Kullanclar tutmak/dndrmek iin bir mapping oluturuyoruz.\n    mapping(uint256 => Post) public posts; // Postlar tutmak/dndrmek iin bir mapping oluturuyoruz.\n    mapping(SIDE => uint256) public topBetsForSide; //Taraflar iin toplam yatrlan bahisler. dl datmnda kullanlacak\n    mapping(address => mapping(uint256 => SIDE)) public sideByUser; // Kullancnn setii taraf tutuyoruz.\n    mapping(address => mapping(SIDE => uint256)) public betAmountByUser; //Kullancnn tarafa yatrd bahis\n\n    // Post bet miktarn wei cinsinden tutuyoruz\n    mapping(uint256 => uint256) public postBet;\n    mapping(uint256 => uint256) public postBetPool;\n\n\n    /* ////////////////////////////////// */\n    /* ///////// EVENT YAPILARI ///////// */\n    /* ////////////////////////////////// */\n\n    // Fonksiyonlarn durum bilgileri event ile bakalarna yayn yapyoruz\n    event NewUser(uint256 id, string fullName, address walletAddress);\n    event NewPost(uint256 id,string postContent,uint256 postBet,uint256 postEndDate,address postAuthor,SIDE _side);\n    event PostParticipation(uint256 postId,address participant,uint256 amount,SIDE _side);\n    event PostFinish(uint256 postId,address winner,uint256 totalBet,uint256 authorReward);\n    event BalanceWithdrawn(address walletAddress,uint256 amount);\n    \n    /* ////////////////////////////////// */\n    /* /////////// CONSTRUCTOR ////////// */\n    /* ////////////////////////////////// */\n\n    // Balangta ilklenmesi iin constructor fonksiyonu oluturuyoruz, kullanc ve post saylarn sfra ayarlyoruz.\n    constructor() {\n        owner = msg.sender;\n       \n       /*  userCount = userCount;\n        postCount = postCount; */\n    }\n\n    /* ////////////////////////////////// */\n    /* /////////// MODIFIERLAR ////////// */\n    /* ////////////////////////////////// */\n\n    // Sadece adminin kullanabilecei fonksiyonlar belirlemek iin bir modifier oluturuyoruz.\n    modifier onlyOwner() {\n        require(msg.sender == owner, \"Sadece hesap sahibi degistirebilir!\");\n        _;\n    }\n    \n    /* ////////////////////////////////// */\n    /* /////// EXECUTE FONKSIYONLAR ///// */\n    /* ////////////////////////////////// */\n    // UI'da kullanc deiirse yeni sahiplii setOwner ile vereceiz\n    function setOwner(address _newOwner) external onlyOwner {  \n        owner = _newOwner;\n    }\n\n    // Kullanc oluturma fonksiyonu\n    function registerUser(string memory _fullName) public {\n        require(bytes(_fullName).length > 0, \"Full name is required\");\n        \n        require(!isUser(msg.sender) , \"Bu kullanici zaten var!\"); //Kullanc yoksa devam et\n        userCount+=1;\n\n        users[msg.sender] = User({\n            id: userCount,\n            fullName: _fullName,\n            balance: 0,\n            walletAddress: msg.sender,\n            registerDate: block.timestamp,\n            isVerified: false, //dogrulanmis mi\n            partipicatedPost: new uint256[](0), //diger katildigi tahminlerin/postlarn indexi\n            allPredictions: new uint256[](0), //oluturduu postlarn/tahminlerin indexi\n            predictionSuccesful: 0 //Kullancnn basarili tahmin saysn tutuyoruz\n        });\n        \n        emit NewUser(userCount, _fullName, msg.sender);\n    }\n    // Post oluturma fonksiyonu\n    function createPost(string memory _postContent,uint256 _postBet,uint256 _postEndDate, SIDE _side) public {\n        require(isUser(msg.sender) , \"Post olusturmak icin kullanici olmalisiniz!\"); //Kullanc yoksa devam et\n        require(bytes(_postContent).length > 0, \"Post content is required\");\n        require(_postBet > 0, \"Bet amount must be greater than 0\");\n        //require(_postEndDate > block.timestamp, \"End date must be in the future\");\n        postCount+=1;\n\n        //Post yaratldnda ilk katlmc olarak post sahibini ekliyoruz.\n        address[] memory initialParticipants = new address[](1);\n        initialParticipants[0] = msg.sender;\n\n        //Seilen taraf post ID sine gre kullancnn setii tarafa mapliyoruz.\n        sideByUser[msg.sender][postCount] = _side;\n        \n        posts[postCount] = Post({\n            id: postCount, //Postun ID si\n            postContent: _postContent, //Post icerigi\n            postBet: _postBet, //Postun degeri\n            postDate: block.timestamp,\n            postEndDate: _postEndDate,\n            postParticipants: initialParticipants, // lk katlmc olarak sadece gndereni ekle\n            postBetPool: _postBet, //Postun toplam havuzu. Ilk yaratildiginda kahin betini post havuzuna ekledik\n            postFinished: false // Post bitti mi\n            //taraf: sideByUser[msg.sender][postCount] //Kahinin post'ta seecei taraf structa atadk\n        });\n\n        //Kahinin evet veya hayr seeneine dedii miktar ve hangi tarafn setiini tutan mappingi gncelleiyoruz.\n        betAmountByUser[msg.sender][_side] += _postBet; //Kahin'in odedigi miktari guncelledik\n        topBetsForSide[_side] += _postBet;\n        \n        //Kullanicinin toplam tahmin sayisini guncelliyoruz\n        users[msg.sender].allPredictions.push(postCount);\n\n        emit NewPost(postCount, _postContent, _postBet, _postEndDate, msg.sender, _side);\n    }\n\n    // Dier kullanclarn bir posta katlm fonksiyonu\n    function participateInPost( uint256 _postId, SIDE _side, uint256 _amount ) public {\n        require(_postId <= postCount && _postId > 0, \"Invalid post ID\");\n        //require(posts[_postId].postEndDate > block.timestamp, \"Post has ended.\");\n        require(_amount > 0, \"Amount must be greater than 0\");\n        //Post sahibi kendi postuna bahis yapamaz\n        require(posts[_postId].postParticipants[0] != msg.sender,\n            \"Kendi kehanetine katilim yapamazsin!\");\n\n        //Evet veya Hayr seeneinin toplam toplam havuzuna amount u ekliyoruz.\n        topBetsForSide[_side] += _amount;\n        posts[_postId].postBetPool += _amount; //Postun havuzunu gncelliyoruz.\n\n        //Kahin'in evet veya hayr seeneine dedii miktar gncelleiyoruz.\n        //rn: Kahin(msg.sender) \"Evet/Hayr\" seeneine _amount miktar deme ekledi.\n        betAmountByUser[msg.sender][_side] += _amount; //Kahin'in odedigi miktari guncelledik\n\n\n        sideByUser[msg.sender][_postId] = _side; //Kullancnn postID'ye gre tarafn gncelledik\n        //posts[_postId].taraf = _side;//Post'un taraf havuzunu arttrdk\n\n        posts[_postId].postParticipants.push(msg.sender); // Katlan kullancnn czdan adresini katilimcilar dizisine ekledik\n\n        //Kullancnn dier katld postlar gncelliyoruz.\n        users[msg.sender].partipicatedPost.push(_postId);\n\n        emit PostParticipation(_postId, msg.sender, _amount, _side);\n    }\n\n    // Etkinligin kazanani belirleyen fonksiyon.\n    // winner ile 0(LEFT) veya 1(RIGHT) alacaz. loser ile 0(LEFT) veya 1(RIGHT) alacaz\n    function postResults( uint256 _postId, SIDE _winner, SIDE _loser) external payable {\n        //require(predictor == msg.sender, \"Kahin degilsiniz!\"); //Kahin olup olmadn kontrol ediyoruz.\n        require(posts[_postId].postFinished == false, \"Kehanet bitmedi!\"); //Kehanetin bitmediyse devam et, bittiyse rapor oluturma.\n        \n        //Hangi tarafn kazandn struct'a bildiriyoruz\n        state.winner = _winner; //Param ile gelen winner'i struct'taki winner'a atiyoruz.\n        state.loser = _loser; //Param ile gelen loser'i struct'taki loser'a atiyoruz.\n        posts[_postId].postFinished = true; //Kehanetin bittigini belirtiyoruz.\n\n    \n        //Kazananlar listelemek iin for kullanacaz. \n        //Her dngde kullancnn state(winner) durumunu kontrol edeceiz.\n        // Side durumunu ve katlmclar almak iin geici diziler oluturuyoruz\n        SIDE[] memory participantsSides = new SIDE[](posts[_postId].postParticipants.length); \n        address[] memory participantsAddresses = posts[_postId].postParticipants; \n        \n        uint totalBetPool = posts[_postId].postBetPool;\n        \n\n        for (uint256 i = 0; i < participantsAddresses.length; i++) {\n            address participant = participantsAddresses[i];\n            participantsSides[i] = sideByUser[participant][_postId];\n\n            if(participantsSides[i] == state.winner){  // Katlmcnn adresi  = winner ise\n                \n                users[participant].predictionSuccesful +=1; //Kazananlarin basarili tahmin degerini guncelledik\n\n                // Odul miktarini hesapla (kazananlarin toplam bahis havuzunun yuzdesi)\n                uint participantBet = betAmountByUser[participant][participantsSides[i]]; //Yatrd sermaye\n                \n                //(Yatrd bahis * Havuzdaki top miktar) /toplam kazanan says\n                uint rewardAmount = (participantBet * totalBetPool) / topBetsForSide[state.winner];\n                users[participant].balance += rewardAmount;\n                //payable(users[participant]).transfer(users[participant].balance);\n                \n                //uint256 sermaye = betAmountByUser[msg.sender][state.winner];\n                \n                // KAZANC + (no diyenlerin sayisi * sermaye) / KAZANAN KISI SAYISI\n                // uint256 kazanc = sermaye + (topBetsForSide[state.loser] * sermaye) / topBetsForSide[state.winner];\n   \n            }   \n        }\n    }\n\n    /* //withdrawBalance\n    function withdrawBalance(uint amount) external nonReentrant {\n        require(isUser(msg.sender), \"Kullanici bulunamadi!\");\n        \n        uint balance = users[msg.sender].balance;\n        require(balance >= amount, \"Yetersiz bakiye!\");\n\n        users[msg.sender].balance -= amount;\n\n        (bool success, ) = msg.sender.call{value: amount}(\"\");\n        require(success, \"Transfer failed.\");\n\n        emit BalanceWithdrawn(msg.sender, amount);\n    } */\n\n    /* //////////////////////////////////// */\n    /* //////// QUERY FONKSIYONLAR //////// */\n    /* //////////////////////////////////// */\n\n    //Kullanc var olup olmadn kontrol ediyoruz. True yada False dnmesini bekliyoruz.\n    function isUser(address _walletAddress) public view returns (bool) {\n        return users[_walletAddress].walletAddress != address(0); // Adress verdiimiz kullancnn adresi 0'a eit deilse true dndryoruz.\n    }\n   \n    // Kullancnn ad ve soyadn eken fonksiyon\n    function getUserFullName(address _userAddress) public view returns (string memory) {\n        return string(abi.encodePacked(users[_userAddress].fullName)); \n    }\n\n    //Kullanc bilgilerini ekme fonksiyonu\n    function getUserDetails(address _walletAddress) external view returns ( \n        uint256, \n        string memory, \n        uint, \n        address, \n        uint256, \n        bool,\n        uint256[] memory, \n        uint256[] memory, \n        uint256 \n        )\n        {\n        require(isUser(_walletAddress), \"Kullanici bulunamadi!\"); //Kullanc yoksa devam et\n\n        User memory user = users[_walletAddress]; \n\n        return (\n            user.id,\n            user.fullName,\n            user.balance,\n            user.walletAddress,\n            user.registerDate,\n            user.isVerified,\n            user.partipicatedPost,\n            user.allPredictions,\n            user.predictionSuccesful\n        );\n    }\n\n    //Post bilgilerini ekme fonksiyonu\n    function getPostDetails(uint256 _id) external view returns ( \n        uint256, \n        string memory, \n        uint256, \n        uint256, \n        uint256, \n        address[] memory, \n        uint256, \n        bool \n        ) {\n        require(posts[_id].id != 0, \"Post bulunamadi!\"); // Post varsa devam et\n\n        Post memory post = posts[_id];\n\n        return (\n            post.id,\n            post.postContent,\n            post.postBet,\n            post.postDate,\n            post.postEndDate,\n            post.postParticipants,\n            post.postBetPool,\n            post.postFinished\n        );\n\n       \n    }\n\n    // Postlar aktif/pasif durumuna gre listeleme fonksiyonu (Parametre 0/1 alr)\n    function getPostByStatus(bool _status) external view returns (Post[] memory) {\n    uint256 count = 0;\n\n    // Tm postlar dngye aln ve belirtilen durumu salayanlar sayn\n    for (uint256 i = 1; i <= postCount; i++) {\n        if (posts[i].postFinished == _status) {\n            count++;\n        }\n    }\n\n    // Belirtilen durumu salayan postlar saklamak iin dinamik bir dizi oluturun\n    Post[] memory postsWithStatus = new Post[](count);\n    \n    // Tm postlar tekrar dngye aln ve belirtilen durumu salayanlar diziyi ekleyin\n    uint256 index = 0;\n    for (uint256 i = 1; i <= postCount; i++) {\n        if (posts[i].postFinished == _status) {\n            postsWithStatus[index] = posts[i];\n            index++;\n        }\n    }\n\n    return postsWithStatus;\n}\n\n\n    function getOwner() external view returns(address) {\n         return owner;\n    }\n\n    function getUser(address _walletAddress) external view returns (User memory) {\n        require(isUser(_walletAddress), \"Kullanici bulunamadi!\");\n        return users[_walletAddress];\n    }\n\n    function getPost(uint _id) external view returns(Post memory) {\n        require(posts[_id].id != 0, \"Post does not exist!\");\n        return posts[_id];\n    }\n\n    function getUserCount() external view returns (uint) {\n        return userCount;\n    }\n\n    function getPostCount() external view returns (uint) {\n        return postCount;\n    }\n\n    // Post bet miktarn ondalkl sayya dntrerek grntlemek iin bir fonksiyon\n    function getPostBet(uint256 _postId) external view returns (uint256) {\n        // Bet miktarn ondalkl sayya dntrmek iin bir arpan kullanabilirsiniz.\n        // Bu rnekte 1 ETH'in 10^18 wei olduunu varsayalm.\n        uint256 betMultiplier = 10**18;\n        return postBet[_postId] / betMultiplier;\n    }\n\n    // Post bet pool miktarn ondalkl sayya dntrerek grntlemek iin bir fonksiyon\n    function getPostBetPool(uint256 _postId) external view returns (uint256) {\n        // Bet miktarn ondalkl sayya dntrmek iin bir arpan kullanabilirsiniz.\n        // Bu rnekte 1 ETH'in 10^18 wei olduunu varsayalm.\n        uint256 betMultiplier = 10**18;\n        return postBetPool[_postId] / betMultiplier;\n    }\n    \n\n}\n",
  "sourcePath": "/Users/dmrdvn/Projects/PredictorsDAPP/contracts/PredictorsApp.sol",
  "compiler": {
    "name": "solc",
    "version": "0.8.13+commit.abaa5c0e.Emscripten.clang"
  },
  "schemaVersion": "3.4.16",
  "updatedAt": "2023-12-09T21:31:51.235Z",
  "networkType": "ethereum",
  "devdoc": {
    "kind": "dev",
    "methods": {},
    "version": 1
  },
  "userdoc": {
    "kind": "user",
    "methods": {},
    "version": 1
  }
}