{
  "contractName": "PredictorsApp",
  "abi": [
    {
      "inputs": [],
      "stateMutability": "nonpayable",
      "type": "constructor"
    },
    {
      "anonymous": false,
      "inputs": [
        {
          "indexed": false,
          "internalType": "address",
          "name": "walletAddress",
          "type": "address"
        },
        {
          "indexed": false,
          "internalType": "uint256",
          "name": "amount",
          "type": "uint256"
        }
      ],
      "name": "BalanceWithdrawn",
      "type": "event"
    },
    {
      "anonymous": false,
      "inputs": [
        {
          "indexed": false,
          "internalType": "uint256",
          "name": "id",
          "type": "uint256"
        },
        {
          "indexed": false,
          "internalType": "string",
          "name": "postContent",
          "type": "string"
        },
        {
          "indexed": false,
          "internalType": "uint256",
          "name": "postBet",
          "type": "uint256"
        },
        {
          "indexed": false,
          "internalType": "uint256",
          "name": "postEndDate",
          "type": "uint256"
        },
        {
          "indexed": false,
          "internalType": "address",
          "name": "postAuthor",
          "type": "address"
        },
        {
          "indexed": false,
          "internalType": "enum PredictorsApp.SIDE",
          "name": "_side",
          "type": "uint8"
        }
      ],
      "name": "NewPost",
      "type": "event"
    },
    {
      "anonymous": false,
      "inputs": [
        {
          "indexed": false,
          "internalType": "uint256",
          "name": "id",
          "type": "uint256"
        },
        {
          "indexed": false,
          "internalType": "string",
          "name": "fullName",
          "type": "string"
        },
        {
          "indexed": false,
          "internalType": "address",
          "name": "walletAddress",
          "type": "address"
        }
      ],
      "name": "NewUser",
      "type": "event"
    },
    {
      "anonymous": false,
      "inputs": [
        {
          "indexed": false,
          "internalType": "uint256",
          "name": "postId",
          "type": "uint256"
        },
        {
          "indexed": false,
          "internalType": "enum PredictorsApp.SIDE",
          "name": "winner",
          "type": "uint8"
        },
        {
          "indexed": false,
          "internalType": "uint256",
          "name": "reward",
          "type": "uint256"
        },
        {
          "indexed": false,
          "internalType": "address",
          "name": "participant",
          "type": "address"
        }
      ],
      "name": "PostFinish",
      "type": "event"
    },
    {
      "anonymous": false,
      "inputs": [
        {
          "indexed": false,
          "internalType": "uint256",
          "name": "postId",
          "type": "uint256"
        },
        {
          "indexed": false,
          "internalType": "address",
          "name": "participant",
          "type": "address"
        },
        {
          "indexed": false,
          "internalType": "uint256",
          "name": "amount",
          "type": "uint256"
        },
        {
          "indexed": false,
          "internalType": "enum PredictorsApp.SIDE",
          "name": "_side",
          "type": "uint8"
        }
      ],
      "name": "PostParticipation",
      "type": "event"
    },
    {
      "anonymous": false,
      "inputs": [
        {
          "indexed": true,
          "internalType": "address",
          "name": "userAddress",
          "type": "address"
        },
        {
          "indexed": false,
          "internalType": "string",
          "name": "newFullName",
          "type": "string"
        },
        {
          "indexed": false,
          "internalType": "bool",
          "name": "isVerified",
          "type": "bool"
        }
      ],
      "name": "UserDetailsUpdated",
      "type": "event"
    },
    {
      "inputs": [
        {
          "internalType": "uint256",
          "name": "",
          "type": "uint256"
        }
      ],
      "name": "postBet",
      "outputs": [
        {
          "internalType": "uint256",
          "name": "",
          "type": "uint256"
        }
      ],
      "stateMutability": "view",
      "type": "function",
      "constant": true
    },
    {
      "inputs": [
        {
          "internalType": "uint256",
          "name": "",
          "type": "uint256"
        }
      ],
      "name": "postBetPool",
      "outputs": [
        {
          "internalType": "uint256",
          "name": "",
          "type": "uint256"
        }
      ],
      "stateMutability": "view",
      "type": "function",
      "constant": true
    },
    {
      "inputs": [],
      "name": "postCount",
      "outputs": [
        {
          "internalType": "uint256",
          "name": "",
          "type": "uint256"
        }
      ],
      "stateMutability": "view",
      "type": "function",
      "constant": true
    },
    {
      "inputs": [
        {
          "internalType": "uint256",
          "name": "",
          "type": "uint256"
        }
      ],
      "name": "posts",
      "outputs": [
        {
          "internalType": "uint256",
          "name": "id",
          "type": "uint256"
        },
        {
          "internalType": "string",
          "name": "postContent",
          "type": "string"
        },
        {
          "internalType": "uint256",
          "name": "postBet",
          "type": "uint256"
        },
        {
          "internalType": "uint256",
          "name": "postDate",
          "type": "uint256"
        },
        {
          "internalType": "uint256",
          "name": "postEndDate",
          "type": "uint256"
        },
        {
          "internalType": "uint256",
          "name": "postBetPool",
          "type": "uint256"
        },
        {
          "internalType": "bool",
          "name": "postFinished",
          "type": "bool"
        }
      ],
      "stateMutability": "view",
      "type": "function",
      "constant": true
    },
    {
      "inputs": [
        {
          "internalType": "address",
          "name": "",
          "type": "address"
        },
        {
          "internalType": "uint256",
          "name": "",
          "type": "uint256"
        }
      ],
      "name": "sideByUser",
      "outputs": [
        {
          "internalType": "enum PredictorsApp.SIDE",
          "name": "side",
          "type": "uint8"
        },
        {
          "internalType": "uint256",
          "name": "betAmount",
          "type": "uint256"
        }
      ],
      "stateMutability": "view",
      "type": "function",
      "constant": true
    },
    {
      "inputs": [],
      "name": "state",
      "outputs": [
        {
          "internalType": "enum PredictorsApp.SIDE",
          "name": "winner",
          "type": "uint8"
        },
        {
          "internalType": "enum PredictorsApp.SIDE",
          "name": "loser",
          "type": "uint8"
        }
      ],
      "stateMutability": "view",
      "type": "function",
      "constant": true
    },
    {
      "inputs": [
        {
          "internalType": "uint256",
          "name": "",
          "type": "uint256"
        },
        {
          "internalType": "enum PredictorsApp.SIDE",
          "name": "",
          "type": "uint8"
        }
      ],
      "name": "topBetsForSide",
      "outputs": [
        {
          "internalType": "uint256",
          "name": "",
          "type": "uint256"
        }
      ],
      "stateMutability": "view",
      "type": "function",
      "constant": true
    },
    {
      "inputs": [],
      "name": "userCount",
      "outputs": [
        {
          "internalType": "uint256",
          "name": "",
          "type": "uint256"
        }
      ],
      "stateMutability": "view",
      "type": "function",
      "constant": true
    },
    {
      "inputs": [
        {
          "internalType": "address",
          "name": "",
          "type": "address"
        }
      ],
      "name": "users",
      "outputs": [
        {
          "internalType": "uint256",
          "name": "id",
          "type": "uint256"
        },
        {
          "internalType": "string",
          "name": "fullName",
          "type": "string"
        },
        {
          "internalType": "uint256",
          "name": "balance",
          "type": "uint256"
        },
        {
          "internalType": "address",
          "name": "walletAddress",
          "type": "address"
        },
        {
          "internalType": "uint256",
          "name": "registerDate",
          "type": "uint256"
        },
        {
          "internalType": "bool",
          "name": "isVerified",
          "type": "bool"
        },
        {
          "internalType": "uint256",
          "name": "predictionSuccesful",
          "type": "uint256"
        }
      ],
      "stateMutability": "view",
      "type": "function",
      "constant": true
    },
    {
      "inputs": [
        {
          "internalType": "address",
          "name": "_newOwner",
          "type": "address"
        }
      ],
      "name": "setOwner",
      "outputs": [],
      "stateMutability": "nonpayable",
      "type": "function"
    },
    {
      "inputs": [
        {
          "internalType": "string",
          "name": "_fullName",
          "type": "string"
        }
      ],
      "name": "registerUser",
      "outputs": [],
      "stateMutability": "nonpayable",
      "type": "function"
    },
    {
      "inputs": [
        {
          "internalType": "string",
          "name": "_postContent",
          "type": "string"
        },
        {
          "internalType": "uint256",
          "name": "_postBet",
          "type": "uint256"
        },
        {
          "internalType": "uint256",
          "name": "_postEndDate",
          "type": "uint256"
        },
        {
          "internalType": "enum PredictorsApp.SIDE",
          "name": "_side",
          "type": "uint8"
        }
      ],
      "name": "createPost",
      "outputs": [],
      "stateMutability": "nonpayable",
      "type": "function"
    },
    {
      "inputs": [
        {
          "internalType": "uint256",
          "name": "_postId",
          "type": "uint256"
        },
        {
          "internalType": "enum PredictorsApp.SIDE",
          "name": "_side",
          "type": "uint8"
        },
        {
          "internalType": "uint256",
          "name": "_amount",
          "type": "uint256"
        }
      ],
      "name": "participateInPost",
      "outputs": [],
      "stateMutability": "nonpayable",
      "type": "function"
    },
    {
      "inputs": [
        {
          "internalType": "uint256",
          "name": "_postId",
          "type": "uint256"
        },
        {
          "internalType": "enum PredictorsApp.SIDE",
          "name": "_winner",
          "type": "uint8"
        },
        {
          "internalType": "enum PredictorsApp.SIDE",
          "name": "_loser",
          "type": "uint8"
        }
      ],
      "name": "postResults",
      "outputs": [],
      "stateMutability": "payable",
      "type": "function",
      "payable": true
    },
    {
      "inputs": [
        {
          "internalType": "address",
          "name": "_userAddress",
          "type": "address"
        },
        {
          "internalType": "string",
          "name": "_newFullName",
          "type": "string"
        },
        {
          "internalType": "bool",
          "name": "_isVerified",
          "type": "bool"
        }
      ],
      "name": "updateUserDetails",
      "outputs": [],
      "stateMutability": "nonpayable",
      "type": "function"
    },
    {
      "inputs": [
        {
          "internalType": "address",
          "name": "_walletAddress",
          "type": "address"
        }
      ],
      "name": "isUser",
      "outputs": [
        {
          "internalType": "bool",
          "name": "",
          "type": "bool"
        }
      ],
      "stateMutability": "view",
      "type": "function",
      "constant": true
    },
    {
      "inputs": [
        {
          "internalType": "address",
          "name": "_userAddress",
          "type": "address"
        }
      ],
      "name": "getUserFullName",
      "outputs": [
        {
          "internalType": "string",
          "name": "",
          "type": "string"
        }
      ],
      "stateMutability": "view",
      "type": "function",
      "constant": true
    },
    {
      "inputs": [
        {
          "internalType": "address",
          "name": "_walletAddress",
          "type": "address"
        }
      ],
      "name": "getUserDetails",
      "outputs": [
        {
          "internalType": "uint256",
          "name": "",
          "type": "uint256"
        },
        {
          "internalType": "string",
          "name": "",
          "type": "string"
        },
        {
          "internalType": "uint256",
          "name": "",
          "type": "uint256"
        },
        {
          "internalType": "address",
          "name": "",
          "type": "address"
        },
        {
          "internalType": "uint256",
          "name": "",
          "type": "uint256"
        },
        {
          "internalType": "bool",
          "name": "",
          "type": "bool"
        },
        {
          "internalType": "uint256[]",
          "name": "",
          "type": "uint256[]"
        },
        {
          "internalType": "uint256[]",
          "name": "",
          "type": "uint256[]"
        },
        {
          "internalType": "uint256",
          "name": "",
          "type": "uint256"
        }
      ],
      "stateMutability": "view",
      "type": "function",
      "constant": true
    },
    {
      "inputs": [
        {
          "internalType": "uint256",
          "name": "_id",
          "type": "uint256"
        }
      ],
      "name": "getPostDetails",
      "outputs": [
        {
          "internalType": "uint256",
          "name": "",
          "type": "uint256"
        },
        {
          "internalType": "string",
          "name": "",
          "type": "string"
        },
        {
          "internalType": "uint256",
          "name": "",
          "type": "uint256"
        },
        {
          "internalType": "uint256",
          "name": "",
          "type": "uint256"
        },
        {
          "internalType": "uint256",
          "name": "",
          "type": "uint256"
        },
        {
          "internalType": "address[]",
          "name": "",
          "type": "address[]"
        },
        {
          "internalType": "uint256",
          "name": "",
          "type": "uint256"
        },
        {
          "internalType": "bool",
          "name": "",
          "type": "bool"
        }
      ],
      "stateMutability": "view",
      "type": "function",
      "constant": true
    },
    {
      "inputs": [],
      "name": "getAllPosts",
      "outputs": [
        {
          "components": [
            {
              "internalType": "uint256",
              "name": "id",
              "type": "uint256"
            },
            {
              "internalType": "string",
              "name": "postContent",
              "type": "string"
            },
            {
              "internalType": "uint256",
              "name": "postBet",
              "type": "uint256"
            },
            {
              "internalType": "uint256",
              "name": "postDate",
              "type": "uint256"
            },
            {
              "internalType": "uint256",
              "name": "postEndDate",
              "type": "uint256"
            },
            {
              "internalType": "address[]",
              "name": "postParticipants",
              "type": "address[]"
            },
            {
              "internalType": "uint256",
              "name": "postBetPool",
              "type": "uint256"
            },
            {
              "internalType": "bool",
              "name": "postFinished",
              "type": "bool"
            }
          ],
          "internalType": "struct PredictorsApp.Post[]",
          "name": "",
          "type": "tuple[]"
        }
      ],
      "stateMutability": "view",
      "type": "function",
      "constant": true
    },
    {
      "inputs": [
        {
          "internalType": "bool",
          "name": "_status",
          "type": "bool"
        }
      ],
      "name": "getPostByStatus",
      "outputs": [
        {
          "components": [
            {
              "internalType": "uint256",
              "name": "id",
              "type": "uint256"
            },
            {
              "internalType": "string",
              "name": "postContent",
              "type": "string"
            },
            {
              "internalType": "uint256",
              "name": "postBet",
              "type": "uint256"
            },
            {
              "internalType": "uint256",
              "name": "postDate",
              "type": "uint256"
            },
            {
              "internalType": "uint256",
              "name": "postEndDate",
              "type": "uint256"
            },
            {
              "internalType": "address[]",
              "name": "postParticipants",
              "type": "address[]"
            },
            {
              "internalType": "uint256",
              "name": "postBetPool",
              "type": "uint256"
            },
            {
              "internalType": "bool",
              "name": "postFinished",
              "type": "bool"
            }
          ],
          "internalType": "struct PredictorsApp.Post[]",
          "name": "",
          "type": "tuple[]"
        }
      ],
      "stateMutability": "view",
      "type": "function",
      "constant": true
    },
    {
      "inputs": [],
      "name": "getOwner",
      "outputs": [
        {
          "internalType": "address",
          "name": "",
          "type": "address"
        }
      ],
      "stateMutability": "view",
      "type": "function",
      "constant": true
    },
    {
      "inputs": [
        {
          "internalType": "address",
          "name": "_walletAddress",
          "type": "address"
        }
      ],
      "name": "getUser",
      "outputs": [
        {
          "components": [
            {
              "internalType": "uint256",
              "name": "id",
              "type": "uint256"
            },
            {
              "internalType": "string",
              "name": "fullName",
              "type": "string"
            },
            {
              "internalType": "uint256",
              "name": "balance",
              "type": "uint256"
            },
            {
              "internalType": "address",
              "name": "walletAddress",
              "type": "address"
            },
            {
              "internalType": "uint256",
              "name": "registerDate",
              "type": "uint256"
            },
            {
              "internalType": "bool",
              "name": "isVerified",
              "type": "bool"
            },
            {
              "internalType": "uint256[]",
              "name": "partipicatedPost",
              "type": "uint256[]"
            },
            {
              "internalType": "uint256[]",
              "name": "allPredictions",
              "type": "uint256[]"
            },
            {
              "internalType": "uint256",
              "name": "predictionSuccesful",
              "type": "uint256"
            }
          ],
          "internalType": "struct PredictorsApp.User",
          "name": "",
          "type": "tuple"
        }
      ],
      "stateMutability": "view",
      "type": "function",
      "constant": true
    },
    {
      "inputs": [
        {
          "internalType": "uint256",
          "name": "_id",
          "type": "uint256"
        }
      ],
      "name": "getPost",
      "outputs": [
        {
          "components": [
            {
              "internalType": "uint256",
              "name": "id",
              "type": "uint256"
            },
            {
              "internalType": "string",
              "name": "postContent",
              "type": "string"
            },
            {
              "internalType": "uint256",
              "name": "postBet",
              "type": "uint256"
            },
            {
              "internalType": "uint256",
              "name": "postDate",
              "type": "uint256"
            },
            {
              "internalType": "uint256",
              "name": "postEndDate",
              "type": "uint256"
            },
            {
              "internalType": "address[]",
              "name": "postParticipants",
              "type": "address[]"
            },
            {
              "internalType": "uint256",
              "name": "postBetPool",
              "type": "uint256"
            },
            {
              "internalType": "bool",
              "name": "postFinished",
              "type": "bool"
            }
          ],
          "internalType": "struct PredictorsApp.Post",
          "name": "",
          "type": "tuple"
        }
      ],
      "stateMutability": "view",
      "type": "function",
      "constant": true
    },
    {
      "inputs": [],
      "name": "getUserCount",
      "outputs": [
        {
          "internalType": "uint256",
          "name": "",
          "type": "uint256"
        }
      ],
      "stateMutability": "view",
      "type": "function",
      "constant": true
    },
    {
      "inputs": [],
      "name": "getPostCount",
      "outputs": [
        {
          "internalType": "uint256",
          "name": "",
          "type": "uint256"
        }
      ],
      "stateMutability": "view",
      "type": "function",
      "constant": true
    },
    {
      "inputs": [
        {
          "internalType": "address",
          "name": "_userAddress",
          "type": "address"
        },
        {
          "internalType": "uint256",
          "name": "_postId",
          "type": "uint256"
        }
      ],
      "name": "getSideByUser",
      "outputs": [
        {
          "components": [
            {
              "internalType": "enum PredictorsApp.SIDE",
              "name": "side",
              "type": "uint8"
            },
            {
              "internalType": "uint256",
              "name": "betAmount",
              "type": "uint256"
            }
          ],
          "internalType": "struct PredictorsApp.SideBetInfo",
          "name": "",
          "type": "tuple"
        }
      ],
      "stateMutability": "view",
      "type": "function",
      "constant": true
    },
    {
      "inputs": [
        {
          "internalType": "uint256",
          "name": "_postId",
          "type": "uint256"
        },
        {
          "internalType": "enum PredictorsApp.SIDE",
          "name": "_side",
          "type": "uint8"
        }
      ],
      "name": "getTopBetsForSide",
      "outputs": [
        {
          "internalType": "uint256",
          "name": "",
          "type": "uint256"
        }
      ],
      "stateMutability": "view",
      "type": "function",
      "constant": true
    },
    {
      "inputs": [
        {
          "internalType": "uint256",
          "name": "_postId",
          "type": "uint256"
        }
      ],
      "name": "getPostBet",
      "outputs": [
        {
          "internalType": "uint256",
          "name": "",
          "type": "uint256"
        }
      ],
      "stateMutability": "view",
      "type": "function",
      "constant": true
    },
    {
      "inputs": [
        {
          "internalType": "uint256",
          "name": "_postId",
          "type": "uint256"
        }
      ],
      "name": "getPostBetPool",
      "outputs": [
        {
          "internalType": "uint256",
          "name": "",
          "type": "uint256"
        }
      ],
      "stateMutability": "view",
      "type": "function",
      "constant": true
    },
    {
      "inputs": [
        {
          "internalType": "uint256",
          "name": "_postId",
          "type": "uint256"
        }
      ],
      "name": "getPostParticipants",
      "outputs": [
        {
          "internalType": "address[]",
          "name": "",
          "type": "address[]"
        }
      ],
      "stateMutability": "view",
      "type": "function",
      "constant": true
    },
    {
      "inputs": [
        {
          "internalType": "uint256",
          "name": "_postId",
          "type": "uint256"
        }
      ],
      "name": "getPostParticipantsCount",
      "outputs": [
        {
          "internalType": "uint256",
          "name": "",
          "type": "uint256"
        }
      ],
      "stateMutability": "view",
      "type": "function",
      "constant": true
    }
  ],
  "bytecode": "0x60806040523480156200001157600080fd5b50336000806101000a81548173ffffffffffffffffffffffffffffffffffffffff021916908373ffffffffffffffffffffffffffffffffffffffff1602179055506001808190555060405180610120016040528060015481526020016040518060400160405280600581526020017f41646d696e00000000000000000000000000000000000000000000000000000081525081526020016000815260200160008054906101000a900473ffffffffffffffffffffffffffffffffffffffff1673ffffffffffffffffffffffffffffffffffffffff168152602001428152602001600115158152602001600067ffffffffffffffff811115620001185762000117620003fd565b5b604051908082528060200260200182016040528015620001475781602001602082028036833780820191505090505b508152602001600067ffffffffffffffff8111156200016b576200016a620003fd565b5b6040519080825280602002602001820160405280156200019a5781602001602082028036833780820191505090505b5081526020016000815250600460008060009054906101000a900473ffffffffffffffffffffffffffffffffffffffff1673ffffffffffffffffffffffffffffffffffffffff1673ffffffffffffffffffffffffffffffffffffffff1681526020019081526020016000206000820151816000015560208201518160010190805190602001906200022d929190620002fb565b506040820151816002015560608201518160030160006101000a81548173ffffffffffffffffffffffffffffffffffffffff021916908373ffffffffffffffffffffffffffffffffffffffff1602179055506080820151816004015560a08201518160050160006101000a81548160ff02191690831515021790555060c0820151816006019080519060200190620002c79291906200038c565b5060e0820151816007019080519060200190620002e69291906200038c565b50610100820151816008015590505062000490565b82805462000309906200045b565b90600052602060002090601f0160209004810192826200032d576000855562000379565b82601f106200034857805160ff191683800117855562000379565b8280016001018555821562000379579182015b82811115620003785782518255916020019190600101906200035b565b5b509050620003889190620003de565b5090565b828054828255906000526020600020908101928215620003cb579160200282015b82811115620003ca578251825591602001919060010190620003ad565b5b509050620003da9190620003de565b5090565b5b80821115620003f9576000816000905550600101620003df565b5090565b7f4e487b7100000000000000000000000000000000000000000000000000000000600052604160045260246000fd5b7f4e487b7100000000000000000000000000000000000000000000000000000000600052602260045260246000fd5b600060028204905060018216806200047457607f821691505b6020821081036200048a57620004896200042c565b5b50919050565b614bc080620004a06000396000f3fe6080604052600436106101e35760003560e01c8063873ee90011610102578063bc36aac811610095578063cde2e45011610064578063cde2e450146107c2578063d7441ee9146107ff578063dd1d8a431461083c578063e9beeb0a14610865576101e3565b8063bc36aac8146106e9578063bcc9540714610726578063c19d93fb14610751578063cc3d967b1461077d576101e3565b80639fc226f4116100d15780639fc226f4146105fa578063a87430ba1461063e578063adb2e2d214610681578063b5cb15f7146106be576101e3565b8063873ee9001461052b578063893d20e814610569578063926516c01461059457806398c29019146105bd576101e3565b806340731c241161017a5780635830132811610149578063583013281461044b5780636f77926b14610488578063704f1b94146104c557806380897d3b146104ee576101e3565b806340731c24146103575780634209fff114610394578063541d7e60146103d15780635776d6a21461040e576101e3565b806313af4035116101b657806313af4035146102bc57806317906c2e146102e55780631b9cde5714610310578063305611001461032c576101e3565b806303f505c3146101e8578063078edef91461021157806307973ccf1461024e5780630b1e7f8314610279575b600080fd5b3480156101f457600080fd5b5061020f600480360381019061020a919061331c565b6108a2565b005b34801561021d57600080fd5b506102386004803603810190610233919061339f565b610cd7565b60405161024591906133ee565b60405180910390f35b34801561025a57600080fd5b50610263610cfc565b60405161027091906133ee565b60405180910390f35b34801561028557600080fd5b506102a0600480360381019061029b9190613409565b610d02565b6040516102b397969594939291906134d9565b60405180910390f35b3480156102c857600080fd5b506102e360048036038101906102de91906135ad565b610dd9565b005b3480156102f157600080fd5b506102fa610eaa565b60405161030791906133ee565b60405180910390f35b61032a600480360381019061032591906135da565b610eb0565b005b34801561033857600080fd5b5061034161131b565b60405161034e91906138cc565b60405180910390f35b34801561036357600080fd5b5061037e60048036038101906103799190613409565b611558565b60405161038b91906139a5565b60405180910390f35b3480156103a057600080fd5b506103bb60048036038101906103b691906135ad565b61174c565b6040516103c891906139c7565b60405180910390f35b3480156103dd57600080fd5b506103f860048036038101906103f39190613409565b6117e7565b60405161040591906133ee565b60405180910390f35b34801561041a57600080fd5b506104356004803603810190610430919061339f565b61180a565b60405161044291906133ee565b60405180910390f35b34801561045757600080fd5b50610472600480360381019061046d9190613409565b61185d565b60405161047f91906133ee565b60405180910390f35b34801561049457600080fd5b506104af60048036038101906104aa91906135ad565b611875565b6040516104bc9190613b64565b60405180910390f35b3480156104d157600080fd5b506104ec60048036038101906104e79190613b86565b611af2565b005b3480156104fa57600080fd5b5061051560048036038101906105109190613409565b611df0565b60405161052291906133ee565b60405180910390f35b34801561053757600080fd5b50610552600480360381019061054d9190613bcf565b611e08565b604051610560929190613c86565b60405180910390f35b34801561057557600080fd5b5061057e611e46565b60405161058b9190613cbe565b60405180910390f35b3480156105a057600080fd5b506105bb60048036038101906105b69190613d05565b611e6f565b005b3480156105c957600080fd5b506105e460048036038101906105df9190613bcf565b61204b565b6040516105f19190613db2565b60405180910390f35b34801561060657600080fd5b50610621600480360381019061061c9190613409565b6120fb565b604051610635989796959493929190613e3c565b60405180910390f35b34801561064a57600080fd5b50610665600480360381019061066091906135ad565b612336565b6040516106789796959493929190613ec8565b60405180910390f35b34801561068d57600080fd5b506106a860048036038101906106a39190613f3e565b61242d565b6040516106b591906138cc565b60405180910390f35b3480156106ca57600080fd5b506106d3612700565b6040516106e091906133ee565b60405180910390f35b3480156106f557600080fd5b50610710600480360381019061070b9190613409565b61270a565b60405161071d91906133ee565b60405180910390f35b34801561073257600080fd5b5061073b61272a565b60405161074891906133ee565b60405180910390f35b34801561075d57600080fd5b50610766612734565b604051610774929190613f6b565b60405180910390f35b34801561078957600080fd5b506107a4600480360381019061079f91906135ad565b612760565b6040516107b999989796959493929190614003565b60405180910390f35b3480156107ce57600080fd5b506107e960048036038101906107e49190613409565b612a2f565b6040516107f691906133ee565b60405180910390f35b34801561080b57600080fd5b50610826600480360381019061082191906135ad565b612a4f565b60405161083391906140a5565b60405180910390f35b34801561084857600080fd5b50610863600480360381019061085e91906140c7565b612ab9565b005b34801561087157600080fd5b5061088c60048036038101906108879190613409565b612e72565b604051610899919061411a565b60405180910390f35b6108ab3361174c565b6108ea576040517f08c379a00000000000000000000000000000000000000000000000000000000081526004016108e1906141ae565b60405180910390fd5b600084511161092e576040517f08c379a00000000000000000000000000000000000000000000000000000000081526004016109259061421a565b60405180910390fd5b60008311610971576040517f08c379a0000000000000000000000000000000000000000000000000000000008152600401610968906142ac565b60405180910390fd5b60016002600082825461098491906142fb565b925050819055506000600167ffffffffffffffff8111156109a8576109a7613196565b5b6040519080825280602002602001820160405280156109d65781602001602082028036833780820191505090505b50905033816000815181106109ee576109ed614351565b5b602002602001019073ffffffffffffffffffffffffffffffffffffffff16908173ffffffffffffffffffffffffffffffffffffffff16815250506040518060400160405280836001811115610a4657610a45613c0f565b5b815260200185815250600660003373ffffffffffffffffffffffffffffffffffffffff1673ffffffffffffffffffffffffffffffffffffffff1681526020019081526020016000206000600254815260200190815260200160002060008201518160000160006101000a81548160ff02191690836001811115610acc57610acb613c0f565b5b021790555060208201518160010155905050604051806101000160405280600254815260200186815260200185815260200142815260200184815260200182815260200185815260200160001515815250600560006002548152602001908152602001600020600082015181600001556020820151816001019080519060200190610b58929190612f16565b5060408201518160020155606082015181600301556080820151816004015560a0820151816005019080519060200190610b93929190612f9c565b5060c0820151816006015560e08201518160070160006101000a81548160ff021916908315150217905550905050836007600060025481526020019081526020016000206000846001811115610bec57610beb613c0f565b5b6001811115610bfe57610bfd613c0f565b5b81526020019081526020016000206000828254610c1b91906142fb565b92505081905550600460003373ffffffffffffffffffffffffffffffffffffffff1673ffffffffffffffffffffffffffffffffffffffff16815260200190815260200160002060070160025490806001815401808255809150506001900390600052602060002001600090919091909150557f7899c2ae62d80d88c47b7e17dbdb5dec5b80aab5ed5bd8700581a6819e48dba26002548686863387604051610cc896959493929190614380565b60405180910390a15050505050565b6007602052816000526040600020602052806000526040600020600091509150505481565b60015481565b6005602052806000526040600020600091509050806000015490806001018054610d2b90614417565b80601f0160208091040260200160405190810160405280929190818152602001828054610d5790614417565b8015610da45780601f10610d7957610100808354040283529160200191610da4565b820191906000526020600020905b815481529060010190602001808311610d8757829003601f168201915b5050505050908060020154908060030154908060040154908060060154908060070160009054906101000a900460ff16905087565b60008054906101000a900473ffffffffffffffffffffffffffffffffffffffff1673ffffffffffffffffffffffffffffffffffffffff163373ffffffffffffffffffffffffffffffffffffffff1614610e67576040517f08c379a0000000000000000000000000000000000000000000000000000000008152600401610e5e90614494565b60405180910390fd5b806000806101000a81548173ffffffffffffffffffffffffffffffffffffffff021916908373ffffffffffffffffffffffffffffffffffffffff16021790555050565b60025481565b60008054906101000a900473ffffffffffffffffffffffffffffffffffffffff1673ffffffffffffffffffffffffffffffffffffffff163373ffffffffffffffffffffffffffffffffffffffff1614610f3e576040517f08c379a0000000000000000000000000000000000000000000000000000000008152600401610f3590614494565b60405180910390fd5b600015156005600085815260200190815260200160002060070160009054906101000a900460ff16151514610fa8576040517f08c379a0000000000000000000000000000000000000000000000000000000008152600401610f9f90614500565b60405180910390fd5b81600360000160006101000a81548160ff02191690836001811115610fd057610fcf613c0f565b5b021790555080600360000160016101000a81548160ff02191690836001811115610ffd57610ffc613c0f565b5b021790555060016005600085815260200190815260200160002060070160006101000a81548160ff021916908315150217905550600060076000858152602001908152602001600020600084600181111561105b5761105a613c0f565b5b600181111561106d5761106c613c0f565b5b815260200190815260200160002054905060005b60056000868152602001908152602001600020600501805490508110156113145760006005600087815260200190815260200160002060050182815481106110cc576110cb614351565b5b9060005260206000200160009054906101000a900473ffffffffffffffffffffffffffffffffffffffff1690506000600660008373ffffffffffffffffffffffffffffffffffffffff1673ffffffffffffffffffffffffffffffffffffffff168152602001908152602001600020600088815260200190815260200160002060010154905085600181111561116457611163613c0f565b5b600660008473ffffffffffffffffffffffffffffffffffffffff1673ffffffffffffffffffffffffffffffffffffffff168152602001908152602001600020600089815260200190815260200160002060000160009054906101000a900460ff1660018111156111d7576111d6613c0f565b5b036112ff57600084600560008a815260200190815260200160002060060154836112019190614520565b61120b91906145a9565b905080600460008573ffffffffffffffffffffffffffffffffffffffff1673ffffffffffffffffffffffffffffffffffffffff168152602001908152602001600020600201600082825461125f91906142fb565b925050819055506001600460008573ffffffffffffffffffffffffffffffffffffffff1673ffffffffffffffffffffffffffffffffffffffff16815260200190815260200160002060080160008282546112b991906142fb565b925050819055507f85a842329bd33eb5f0774fe7383b8e934b535c5e2030cad9457b74b0ab367976888883866040516112f594939291906145da565b60405180910390a1505b5050808061130c9061461f565b915050611081565b5050505050565b6060600060025467ffffffffffffffff81111561133b5761133a613196565b5b60405190808252806020026020018201604052801561137457816020015b611361613026565b8152602001906001900390816113595790505b5090506000600190505b6002548111611550576005600082815260200190815260200160002060405180610100016040529081600082015481526020016001820180546113c090614417565b80601f01602080910402602001604051908101604052809291908181526020018280546113ec90614417565b80156114395780601f1061140e57610100808354040283529160200191611439565b820191906000526020600020905b81548152906001019060200180831161141c57829003601f168201915b50505050508152602001600282015481526020016003820154815260200160048201548152602001600582018054806020026020016040519081016040528092919081815260200182805480156114e557602002820191906000526020600020905b8160009054906101000a900473ffffffffffffffffffffffffffffffffffffffff1673ffffffffffffffffffffffffffffffffffffffff168152602001906001019080831161149b575b50505050508152602001600682015481526020016007820160009054906101000a900460ff161515151581525050826001836115219190614667565b8151811061153257611531614351565b5b602002602001018190525080806115489061461f565b91505061137e565b508091505090565b611560613026565b60006005600084815260200190815260200160002060000154036115b9576040517f08c379a00000000000000000000000000000000000000000000000000000000081526004016115b0906146e7565b60405180910390fd5b6005600083815260200190815260200160002060405180610100016040529081600082015481526020016001820180546115f290614417565b80601f016020809104026020016040519081016040528092919081815260200182805461161e90614417565b801561166b5780601f106116405761010080835404028352916020019161166b565b820191906000526020600020905b81548152906001019060200180831161164e57829003601f168201915b505050505081526020016002820154815260200160038201548152602001600482015481526020016005820180548060200260200160405190810160405280929190818152602001828054801561171757602002820191906000526020600020905b8160009054906101000a900473ffffffffffffffffffffffffffffffffffffffff1673ffffffffffffffffffffffffffffffffffffffff16815260200190600101908083116116cd575b50505050508152602001600682015481526020016007820160009054906101000a900460ff1615151515815250509050919050565b60008073ffffffffffffffffffffffffffffffffffffffff16600460008473ffffffffffffffffffffffffffffffffffffffff1673ffffffffffffffffffffffffffffffffffffffff16815260200190815260200160002060030160009054906101000a900473ffffffffffffffffffffffffffffffffffffffff1673ffffffffffffffffffffffffffffffffffffffff1614159050919050565b600060056000838152602001908152602001600020600501805490509050919050565b600060076000848152602001908152602001600020600083600181111561183457611833613c0f565b5b600181111561184657611845613c0f565b5b815260200190815260200160002054905092915050565b60096020528060005260406000206000915090505481565b61187d61306d565b6118868261174c565b6118c5576040517f08c379a00000000000000000000000000000000000000000000000000000000081526004016118bc90614753565b60405180910390fd5b600460008373ffffffffffffffffffffffffffffffffffffffff1673ffffffffffffffffffffffffffffffffffffffff168152602001908152602001600020604051806101200160405290816000820154815260200160018201805461192a90614417565b80601f016020809104026020016040519081016040528092919081815260200182805461195690614417565b80156119a35780601f10611978576101008083540402835291602001916119a3565b820191906000526020600020905b81548152906001019060200180831161198657829003601f168201915b50505050508152602001600282015481526020016003820160009054906101000a900473ffffffffffffffffffffffffffffffffffffffff1673ffffffffffffffffffffffffffffffffffffffff1673ffffffffffffffffffffffffffffffffffffffff168152602001600482015481526020016005820160009054906101000a900460ff1615151515815260200160068201805480602002602001604051908101604052809291908181526020018280548015611a8057602002820191906000526020600020905b815481526020019060010190808311611a6c575b5050505050815260200160078201805480602002602001604051908101604052809291908181526020018280548015611ad857602002820191906000526020600020905b815481526020019060010190808311611ac4575b505050505081526020016008820154815250509050919050565b6000815111611b36576040517f08c379a0000000000000000000000000000000000000000000000000000000008152600401611b2d906147bf565b60405180910390fd5b611b3f3361174c565b15611b7f576040517f08c379a0000000000000000000000000000000000000000000000000000000008152600401611b769061482b565b60405180910390fd5b6001806000828254611b9191906142fb565b925050819055506040518061012001604052806001548152602001828152602001600081526020013373ffffffffffffffffffffffffffffffffffffffff168152602001428152602001600015158152602001600067ffffffffffffffff811115611bff57611bfe613196565b5b604051908082528060200260200182016040528015611c2d5781602001602082028036833780820191505090505b508152602001600067ffffffffffffffff811115611c4e57611c4d613196565b5b604051908082528060200260200182016040528015611c7c5781602001602082028036833780820191505090505b5081526020016000815250600460003373ffffffffffffffffffffffffffffffffffffffff1673ffffffffffffffffffffffffffffffffffffffff168152602001908152602001600020600082015181600001556020820151816001019080519060200190611cec929190612f16565b506040820151816002015560608201518160030160006101000a81548173ffffffffffffffffffffffffffffffffffffffff021916908373ffffffffffffffffffffffffffffffffffffffff1602179055506080820151816004015560a08201518160050160006101000a81548160ff02191690831515021790555060c0820151816006019080519060200190611d849291906130d1565b5060e0820151816007019080519060200190611da19291906130d1565b5061010082015181600801559050507f252de601d0068c75b821d503ebaaf561c5b04c99d1cf5ebe04bf9c4348285b2f6001548233604051611de59392919061484b565b60405180910390a150565b60086020528060005260406000206000915090505481565b6006602052816000526040600020602052806000526040600020600091509150508060000160009054906101000a900460ff16908060010154905082565b60008060009054906101000a900473ffffffffffffffffffffffffffffffffffffffff16905090565b60008054906101000a900473ffffffffffffffffffffffffffffffffffffffff1673ffffffffffffffffffffffffffffffffffffffff163373ffffffffffffffffffffffffffffffffffffffff1614611efd576040517f08c379a0000000000000000000000000000000000000000000000000000000008152600401611ef490614494565b60405180910390fd5b611f068361174c565b611f45576040517f08c379a0000000000000000000000000000000000000000000000000000000008152600401611f3c90614753565b60405180910390fd5b81600460008573ffffffffffffffffffffffffffffffffffffffff1673ffffffffffffffffffffffffffffffffffffffff1681526020019081526020016000206001019080519060200190611f9b929190612f16565b5080600460008573ffffffffffffffffffffffffffffffffffffffff1673ffffffffffffffffffffffffffffffffffffffff16815260200190815260200160002060050160006101000a81548160ff0219169083151502179055508273ffffffffffffffffffffffffffffffffffffffff167f807e11288e7720dba0c29f0bfff526ac77cc2b46e396b5b78aea532af04e6abe838360405161203e929190614889565b60405180910390a2505050565b61205361311e565b600660008473ffffffffffffffffffffffffffffffffffffffff1673ffffffffffffffffffffffffffffffffffffffff16815260200190815260200160002060008381526020019081526020016000206040518060400160405290816000820160009054906101000a900460ff1660018111156120d3576120d2613c0f565b5b60018111156120e5576120e4613c0f565b5b8152602001600182015481525050905092915050565b60006060600080600060606000806000600560008b81526020019081526020016000206000015403612162576040517f08c379a000000000000000000000000000000000000000000000000000000000815260040161215990614905565b60405180910390fd5b6000600560008b8152602001908152602001600020604051806101000160405290816000820154815260200160018201805461219d90614417565b80601f01602080910402602001604051908101604052809291908181526020018280546121c990614417565b80156122165780601f106121eb57610100808354040283529160200191612216565b820191906000526020600020905b8154815290600101906020018083116121f957829003601f168201915b50505050508152602001600282015481526020016003820154815260200160048201548152602001600582018054806020026020016040519081016040528092919081815260200182805480156122c257602002820191906000526020600020905b8160009054906101000a900473ffffffffffffffffffffffffffffffffffffffff1673ffffffffffffffffffffffffffffffffffffffff1681526020019060010190808311612278575b50505050508152602001600682015481526020016007820160009054906101000a900460ff1615151515815250509050806000015181602001518260400151836060015184608001518560a001518660c001518760e001519850985098509850985098509850985050919395975091939597565b600460205280600052604060002060009150905080600001549080600101805461235f90614417565b80601f016020809104026020016040519081016040528092919081815260200182805461238b90614417565b80156123d85780601f106123ad576101008083540402835291602001916123d8565b820191906000526020600020905b8154815290600101906020018083116123bb57829003601f168201915b5050505050908060020154908060030160009054906101000a900473ffffffffffffffffffffffffffffffffffffffff16908060040154908060050160009054906101000a900460ff16908060080154905087565b6060600080600190505b6002548111612490578315156005600083815260200190815260200160002060070160009054906101000a900460ff1615150361247d5781806124799061461f565b9250505b80806124889061461f565b915050612437565b5060008167ffffffffffffffff8111156124ad576124ac613196565b5b6040519080825280602002602001820160405280156124e657816020015b6124d3613026565b8152602001906001900390816124cb5790505b509050600080600190505b60025481116126f4578515156005600083815260200190815260200160002060070160009054906101000a900460ff161515036126e15760056000828152602001908152602001600020604051806101000160405290816000820154815260200160018201805461256190614417565b80601f016020809104026020016040519081016040528092919081815260200182805461258d90614417565b80156125da5780601f106125af576101008083540402835291602001916125da565b820191906000526020600020905b8154815290600101906020018083116125bd57829003601f168201915b505050505081526020016002820154815260200160038201548152602001600482015481526020016005820180548060200260200160405190810160405280929190818152602001828054801561268657602002820191906000526020600020905b8160009054906101000a900473ffffffffffffffffffffffffffffffffffffffff1673ffffffffffffffffffffffffffffffffffffffff168152602001906001019080831161263c575b50505050508152602001600682015481526020016007820160009054906101000a900460ff1615151515815250508383815181106126c7576126c6614351565b5b602002602001018190525081806126dd9061461f565b9250505b80806126ec9061461f565b9150506124f1565b50819350505050919050565b6000600154905090565b600060056000838152602001908152602001600020600601549050919050565b6000600254905090565b60038060000160009054906101000a900460ff16908060000160019054906101000a900460ff16905082565b6000606060008060008060608060006127788a61174c565b6127b7576040517f08c379a00000000000000000000000000000000000000000000000000000000081526004016127ae90614753565b60405180910390fd5b6000600460008c73ffffffffffffffffffffffffffffffffffffffff1673ffffffffffffffffffffffffffffffffffffffff168152602001908152602001600020604051806101200160405290816000820154815260200160018201805461281e90614417565b80601f016020809104026020016040519081016040528092919081815260200182805461284a90614417565b80156128975780601f1061286c57610100808354040283529160200191612897565b820191906000526020600020905b81548152906001019060200180831161287a57829003601f168201915b50505050508152602001600282015481526020016003820160009054906101000a900473ffffffffffffffffffffffffffffffffffffffff1673ffffffffffffffffffffffffffffffffffffffff1673ffffffffffffffffffffffffffffffffffffffff168152602001600482015481526020016005820160009054906101000a900460ff161515151581526020016006820180548060200260200160405190810160405280929190818152602001828054801561297457602002820191906000526020600020905b815481526020019060010190808311612960575b50505050508152602001600782018054806020026020016040519081016040528092919081815260200182805480156129cc57602002820191906000526020600020905b8154815260200190600101908083116129b8575b505050505081526020016008820154815250509050806000015181602001518260400151836060015184608001518560a001518660c001518760e00151886101000151995099509950995099509950995099509950509193959799909294969850565b600060056000838152602001908152602001600020600201549050919050565b6060600460008373ffffffffffffffffffffffffffffffffffffffff1673ffffffffffffffffffffffffffffffffffffffff168152602001908152602001600020600101604051602001612aa391906149c4565b6040516020818303038152906040529050919050565b6002548311158015612acb5750600083115b612b0a576040517f08c379a0000000000000000000000000000000000000000000000000000000008152600401612b0190614a27565b60405180910390fd5b60008111612b4d576040517f08c379a0000000000000000000000000000000000000000000000000000000008152600401612b4490614a93565b60405180910390fd5b3373ffffffffffffffffffffffffffffffffffffffff1660056000858152602001908152602001600020600501600081548110612b8d57612b8c614351565b5b9060005260206000200160009054906101000a900473ffffffffffffffffffffffffffffffffffffffff1673ffffffffffffffffffffffffffffffffffffffff1603612c0e576040517f08c379a0000000000000000000000000000000000000000000000000000000008152600401612c0590614b25565b60405180910390fd5b80600560008581526020019081526020016000206006016000828254612c3491906142fb565b92505081905550806007600060025481526020019081526020016000206000846001811115612c6657612c65613c0f565b5b6001811115612c7857612c77613c0f565b5b81526020019081526020016000206000828254612c9591906142fb565b925050819055506040518060400160405280836001811115612cba57612cb9613c0f565b5b815260200182815250600660003373ffffffffffffffffffffffffffffffffffffffff1673ffffffffffffffffffffffffffffffffffffffff168152602001908152602001600020600085815260200190815260200160002060008201518160000160006101000a81548160ff02191690836001811115612d3e57612d3d613c0f565b5b02179055506020820151816001015590505060056000848152602001908152602001600020600501339080600181540180825580915050600190039060005260206000200160009091909190916101000a81548173ffffffffffffffffffffffffffffffffffffffff021916908373ffffffffffffffffffffffffffffffffffffffff160217905550600460003373ffffffffffffffffffffffffffffffffffffffff1673ffffffffffffffffffffffffffffffffffffffff1681526020019081526020016000206006018390806001815401808255809150506001900390600052602060002001600090919091909150557f65f3464dba2df0038cd6b6f3946cbff99b635032abc752ae6eb1d22a144d514383338385604051612e659493929190614b45565b60405180910390a1505050565b606060056000838152602001908152602001600020600501805480602002602001604051908101604052809291908181526020018280548015612f0a57602002820191906000526020600020905b8160009054906101000a900473ffffffffffffffffffffffffffffffffffffffff1673ffffffffffffffffffffffffffffffffffffffff1681526020019060010190808311612ec0575b50505050509050919050565b828054612f2290614417565b90600052602060002090601f016020900481019282612f445760008555612f8b565b82601f10612f5d57805160ff1916838001178555612f8b565b82800160010185558215612f8b579182015b82811115612f8a578251825591602001919060010190612f6f565b5b509050612f98919061314a565b5090565b828054828255906000526020600020908101928215613015579160200282015b828111156130145782518260006101000a81548173ffffffffffffffffffffffffffffffffffffffff021916908373ffffffffffffffffffffffffffffffffffffffff16021790555091602001919060010190612fbc565b5b509050613022919061314a565b5090565b604051806101000160405280600081526020016060815260200160008152602001600081526020016000815260200160608152602001600081526020016000151581525090565b604051806101200160405280600081526020016060815260200160008152602001600073ffffffffffffffffffffffffffffffffffffffff168152602001600081526020016000151581526020016060815260200160608152602001600081525090565b82805482825590600052602060002090810192821561310d579160200282015b8281111561310c5782518255916020019190600101906130f1565b5b50905061311a919061314a565b5090565b60405180604001604052806000600181111561313d5761313c613c0f565b5b8152602001600081525090565b5b8082111561316357600081600090555060010161314b565b5090565b6000604051905090565b600080fd5b600080fd5b600080fd5b600080fd5b6000601f19601f8301169050919050565b7f4e487b7100000000000000000000000000000000000000000000000000000000600052604160045260246000fd5b6131ce82613185565b810181811067ffffffffffffffff821117156131ed576131ec613196565b5b80604052505050565b6000613200613167565b905061320c82826131c5565b919050565b600067ffffffffffffffff82111561322c5761322b613196565b5b61323582613185565b9050602081019050919050565b82818337600083830152505050565b600061326461325f84613211565b6131f6565b9050828152602081018484840111156132805761327f613180565b5b61328b848285613242565b509392505050565b600082601f8301126132a8576132a761317b565b5b81356132b8848260208601613251565b91505092915050565b6000819050919050565b6132d4816132c1565b81146132df57600080fd5b50565b6000813590506132f1816132cb565b92915050565b6002811061330457600080fd5b50565b600081359050613316816132f7565b92915050565b6000806000806080858703121561333657613335613171565b5b600085013567ffffffffffffffff81111561335457613353613176565b5b61336087828801613293565b9450506020613371878288016132e2565b9350506040613382878288016132e2565b925050606061339387828801613307565b91505092959194509250565b600080604083850312156133b6576133b5613171565b5b60006133c4858286016132e2565b92505060206133d585828601613307565b9150509250929050565b6133e8816132c1565b82525050565b600060208201905061340360008301846133df565b92915050565b60006020828403121561341f5761341e613171565b5b600061342d848285016132e2565b91505092915050565b600081519050919050565b600082825260208201905092915050565b60005b83811015613470578082015181840152602081019050613455565b8381111561347f576000848401525b50505050565b600061349082613436565b61349a8185613441565b93506134aa818560208601613452565b6134b381613185565b840191505092915050565b60008115159050919050565b6134d3816134be565b82525050565b600060e0820190506134ee600083018a6133df565b81810360208301526135008189613485565b905061350f60408301886133df565b61351c60608301876133df565b61352960808301866133df565b61353660a08301856133df565b61354360c08301846134ca565b98975050505050505050565b600073ffffffffffffffffffffffffffffffffffffffff82169050919050565b600061357a8261354f565b9050919050565b61358a8161356f565b811461359557600080fd5b50565b6000813590506135a781613581565b92915050565b6000602082840312156135c3576135c2613171565b5b60006135d184828501613598565b91505092915050565b6000806000606084860312156135f3576135f2613171565b5b6000613601868287016132e2565b935050602061361286828701613307565b925050604061362386828701613307565b9150509250925092565b600081519050919050565b600082825260208201905092915050565b6000819050602082019050919050565b613662816132c1565b82525050565b600082825260208201905092915050565b600061368482613436565b61368e8185613668565b935061369e818560208601613452565b6136a781613185565b840191505092915050565b600081519050919050565b600082825260208201905092915050565b6000819050602082019050919050565b6136e78161356f565b82525050565b60006136f983836136de565b60208301905092915050565b6000602082019050919050565b600061371d826136b2565b61372781856136bd565b9350613732836136ce565b8060005b8381101561376357815161374a88826136ed565b975061375583613705565b925050600181019050613736565b5085935050505092915050565b613779816134be565b82525050565b6000610100830160008301516137986000860182613659565b50602083015184820360208601526137b08282613679565b91505060408301516137c56040860182613659565b5060608301516137d86060860182613659565b5060808301516137eb6080860182613659565b5060a083015184820360a08601526138038282613712565b91505060c083015161381860c0860182613659565b5060e083015161382b60e0860182613770565b508091505092915050565b6000613842838361377f565b905092915050565b6000602082019050919050565b60006138628261362d565b61386c8185613638565b93508360208202850161387e85613649565b8060005b858110156138ba578484038952815161389b8582613836565b94506138a68361384a565b925060208a01995050600181019050613882565b50829750879550505050505092915050565b600060208201905081810360008301526138e68184613857565b905092915050565b6000610100830160008301516139076000860182613659565b506020830151848203602086015261391f8282613679565b91505060408301516139346040860182613659565b5060608301516139476060860182613659565b50608083015161395a6080860182613659565b5060a083015184820360a08601526139728282613712565b91505060c083015161398760c0860182613659565b5060e083015161399a60e0860182613770565b508091505092915050565b600060208201905081810360008301526139bf81846138ee565b905092915050565b60006020820190506139dc60008301846134ca565b92915050565b600081519050919050565b600082825260208201905092915050565b6000819050602082019050919050565b6000613a1a8383613659565b60208301905092915050565b6000602082019050919050565b6000613a3e826139e2565b613a4881856139ed565b9350613a53836139fe565b8060005b83811015613a84578151613a6b8882613a0e565b9750613a7683613a26565b925050600181019050613a57565b5085935050505092915050565b600061012083016000830151613aaa6000860182613659565b5060208301518482036020860152613ac28282613679565b9150506040830151613ad76040860182613659565b506060830151613aea60608601826136de565b506080830151613afd6080860182613659565b5060a0830151613b1060a0860182613770565b5060c083015184820360c0860152613b288282613a33565b91505060e083015184820360e0860152613b428282613a33565b915050610100830151613b59610100860182613659565b508091505092915050565b60006020820190508181036000830152613b7e8184613a91565b905092915050565b600060208284031215613b9c57613b9b613171565b5b600082013567ffffffffffffffff811115613bba57613bb9613176565b5b613bc684828501613293565b91505092915050565b60008060408385031215613be657613be5613171565b5b6000613bf485828601613598565b9250506020613c05858286016132e2565b9150509250929050565b7f4e487b7100000000000000000000000000000000000000000000000000000000600052602160045260246000fd5b60028110613c4f57613c4e613c0f565b5b50565b6000819050613c6082613c3e565b919050565b6000613c7082613c52565b9050919050565b613c8081613c65565b82525050565b6000604082019050613c9b6000830185613c77565b613ca860208301846133df565b9392505050565b613cb88161356f565b82525050565b6000602082019050613cd36000830184613caf565b92915050565b613ce2816134be565b8114613ced57600080fd5b50565b600081359050613cff81613cd9565b92915050565b600080600060608486031215613d1e57613d1d613171565b5b6000613d2c86828701613598565b935050602084013567ffffffffffffffff811115613d4d57613d4c613176565b5b613d5986828701613293565b9250506040613d6a86828701613cf0565b9150509250925092565b613d7d81613c65565b82525050565b604082016000820151613d996000850182613d74565b506020820151613dac6020850182613659565b50505050565b6000604082019050613dc76000830184613d83565b92915050565b600082825260208201905092915050565b6000613de9826136b2565b613df38185613dcd565b9350613dfe836136ce565b8060005b83811015613e2f578151613e1688826136ed565b9750613e2183613705565b925050600181019050613e02565b5085935050505092915050565b600061010082019050613e52600083018b6133df565b8181036020830152613e64818a613485565b9050613e7360408301896133df565b613e8060608301886133df565b613e8d60808301876133df565b81810360a0830152613e9f8186613dde565b9050613eae60c08301856133df565b613ebb60e08301846134ca565b9998505050505050505050565b600060e082019050613edd600083018a6133df565b8181036020830152613eef8189613485565b9050613efe60408301886133df565b613f0b6060830187613caf565b613f1860808301866133df565b613f2560a08301856134ca565b613f3260c08301846133df565b98975050505050505050565b600060208284031215613f5457613f53613171565b5b6000613f6284828501613cf0565b91505092915050565b6000604082019050613f806000830185613c77565b613f8d6020830184613c77565b9392505050565b600082825260208201905092915050565b6000613fb0826139e2565b613fba8185613f94565b9350613fc5836139fe565b8060005b83811015613ff6578151613fdd8882613a0e565b9750613fe883613a26565b925050600181019050613fc9565b5085935050505092915050565b600061012082019050614019600083018c6133df565b818103602083015261402b818b613485565b905061403a604083018a6133df565b6140476060830189613caf565b61405460808301886133df565b61406160a08301876134ca565b81810360c08301526140738186613fa5565b905081810360e08301526140878185613fa5565b90506140976101008301846133df565b9a9950505050505050505050565b600060208201905081810360008301526140bf8184613485565b905092915050565b6000806000606084860312156140e0576140df613171565b5b60006140ee868287016132e2565b93505060206140ff86828701613307565b9250506040614110868287016132e2565b9150509250925092565b600060208201905081810360008301526141348184613dde565b905092915050565b7f506f7374206f6c75737475726d616b206963696e206b756c6c616e696369206f60008201527f6c6d616c6973696e697a21000000000000000000000000000000000000000000602082015250565b6000614198602b83613441565b91506141a38261413c565b604082019050919050565b600060208201905081810360008301526141c78161418b565b9050919050565b7f506f737420636f6e74656e742069732072657175697265640000000000000000600082015250565b6000614204601883613441565b915061420f826141ce565b602082019050919050565b60006020820190508181036000830152614233816141f7565b9050919050565b7f42657420616d6f756e74206d7573742062652067726561746572207468616e2060008201527f3000000000000000000000000000000000000000000000000000000000000000602082015250565b6000614296602183613441565b91506142a18261423a565b604082019050919050565b600060208201905081810360008301526142c581614289565b9050919050565b7f4e487b7100000000000000000000000000000000000000000000000000000000600052601160045260246000fd5b6000614306826132c1565b9150614311836132c1565b9250827fffffffffffffffffffffffffffffffffffffffffffffffffffffffffffffffff03821115614346576143456142cc565b5b828201905092915050565b7f4e487b7100000000000000000000000000000000000000000000000000000000600052603260045260246000fd5b600060c08201905061439560008301896133df565b81810360208301526143a78188613485565b90506143b660408301876133df565b6143c360608301866133df565b6143d06080830185613caf565b6143dd60a0830184613c77565b979650505050505050565b7f4e487b7100000000000000000000000000000000000000000000000000000000600052602260045260246000fd5b6000600282049050600182168061442f57607f821691505b602082108103614442576144416143e8565b5b50919050565b7f4f6e6c792061646d696e2063616e206368616e67652100000000000000000000600082015250565b600061447e601683613441565b915061448982614448565b602082019050919050565b600060208201905081810360008301526144ad81614471565b9050919050565b7f4b6568616e6574206269746d6564692100000000000000000000000000000000600082015250565b60006144ea601083613441565b91506144f5826144b4565b602082019050919050565b60006020820190508181036000830152614519816144dd565b9050919050565b600061452b826132c1565b9150614536836132c1565b9250817fffffffffffffffffffffffffffffffffffffffffffffffffffffffffffffffff048311821515161561456f5761456e6142cc565b5b828202905092915050565b7f4e487b7100000000000000000000000000000000000000000000000000000000600052601260045260246000fd5b60006145b4826132c1565b91506145bf836132c1565b9250826145cf576145ce61457a565b5b828204905092915050565b60006080820190506145ef60008301876133df565b6145fc6020830186613c77565b61460960408301856133df565b6146166060830184613caf565b95945050505050565b600061462a826132c1565b91507fffffffffffffffffffffffffffffffffffffffffffffffffffffffffffffffff820361465c5761465b6142cc565b5b600182019050919050565b6000614672826132c1565b915061467d836132c1565b9250828210156146905761468f6142cc565b5b828203905092915050565b7f506f737420646f6573206e6f7420657869737421000000000000000000000000600082015250565b60006146d1601483613441565b91506146dc8261469b565b602082019050919050565b60006020820190508181036000830152614700816146c4565b9050919050565b7f4b756c6c616e6963692062756c756e616d616469210000000000000000000000600082015250565b600061473d601583613441565b915061474882614707565b602082019050919050565b6000602082019050818103600083015261476c81614730565b9050919050565b7f46756c6c206e616d652069732072657175697265640000000000000000000000600082015250565b60006147a9601583613441565b91506147b482614773565b602082019050919050565b600060208201905081810360008301526147d88161479c565b9050919050565b7f4275206b756c6c616e696369207a6174656e2076617221000000000000000000600082015250565b6000614815601783613441565b9150614820826147df565b602082019050919050565b6000602082019050818103600083015261484481614808565b9050919050565b600060608201905061486060008301866133df565b81810360208301526148728185613485565b90506148816040830184613caf565b949350505050565b600060408201905081810360008301526148a38185613485565b90506148b260208301846134ca565b9392505050565b7f506f73742062756c756e616d6164692100000000000000000000000000000000600082015250565b60006148ef601083613441565b91506148fa826148b9565b602082019050919050565b6000602082019050818103600083015261491e816148e2565b9050919050565b600081905092915050565b60008190508160005260206000209050919050565b6000815461495281614417565b61495c8186614925565b945060018216600081146149775760018114614988576149bb565b60ff198316865281860193506149bb565b61499185614930565b60005b838110156149b357815481890152600182019150602081019050614994565b838801955050505b50505092915050565b60006149d08284614945565b915081905092915050565b7f496e76616c696420706f73742049440000000000000000000000000000000000600082015250565b6000614a11600f83613441565b9150614a1c826149db565b602082019050919050565b60006020820190508181036000830152614a4081614a04565b9050919050565b7f416d6f756e74206d7573742062652067726561746572207468616e2030000000600082015250565b6000614a7d601d83613441565b9150614a8882614a47565b602082019050919050565b60006020820190508181036000830152614aac81614a70565b9050919050565b7f4b656e6469206b6568616e6574696e65206b6174696c696d20796170616d617a60008201527f73696e2100000000000000000000000000000000000000000000000000000000602082015250565b6000614b0f602483613441565b9150614b1a82614ab3565b604082019050919050565b60006020820190508181036000830152614b3e81614b02565b9050919050565b6000608082019050614b5a60008301876133df565b614b676020830186613caf565b614b7460408301856133df565b614b816060830184613c77565b9594505050505056fea264697066735822122086616a3c10a574f6d2c25bfc10b343c966b461c0fd74767a32790312632fd48964736f6c634300080d0033",
  "immutableReferences": {},
  "source": "// SPDX-License-Identifier: MIT\n\npragma solidity ^0.8.13;\n\n\n\ncontract PredictorsApp {\n    \n    /* ////////////////////////////////// */\n    /* ////////// DEKENLER /////////// */\n    /* ////////////////////////////////// */\n    address private owner; // Contract sahibinin adresini tutmak iin bir deiken oluturuyoruz.\n    uint256 public userCount; // Kullanc saysn tutmak iin bir deiken oluturuyoruz. Backend'e saklayacaz\n    uint256 public postCount; // Post saysn tutmak iin bir deiken oluturuyoruz. Backend'e saklayacaz\n    WinnerLoserState public state; // WinnerLoserState struct'n manipule etmek iin bu deikeni kullanacaz.\n\n    /* ////////////////////////////////// */\n    /* //////////// ENUMLAR ///////////// */\n    /* ////////////////////////////////// */\n\n    enum SIDE {LEFT,RIGHT} // LEFT/RIGHT enum tipini oluturuyoruz.\n    \n\n    /* ////////////////////////////////// */\n    /* ///////// STRUCT YAPILARI //////// */\n    /* ////////////////////////////////// */\n\n    //Kullanc bilgilerini tutmak iin User struct' oluturuyoruz.\n    struct User {\n        uint256 id; // Kullancnn ID'sini tutuyoruz.\n        string fullName; // Kullancnn adn ve soyadn tutuyoruz.\n        uint balance; //Kullancnn bakiyesi\n        address walletAddress; //Kullancnn czdan adresini tutuyoruz.\n        uint256 registerDate; //Kullancnn kayt olduu tarihi tutuyoruz.\n        bool isVerified; //Kullancnn dorulanp dorulanmadn tutuyoruz.\n        uint256[] partipicatedPost; //Kullanicinin Katildigi (DER) Postlar - Int Array (Kendi postuna katlamaz)\n        uint256[] allPredictions; //Kullanicinin Tum Postlarinn ID'leri - Int Array\n        uint256 predictionSuccesful; //Kullanici Basarili Sonuclanan Post Sayisi\n    }\n\n    //Post bilgilerini tutmak iin Post struct' oluturuyoruz.\n    struct Post {\n        uint256 id; // Postun ID'sini tutuyoruz.\n        string postContent; // Postun ieriini tutuyoruz.\n        uint256 postBet; // Kahinin postu olutururken yatrd bet miktarn tutuyoruz.\n        uint256 postDate; // Postun oluturulma tarihini tutuyoruz.\n        uint256 postEndDate; // Postun biti tarihini tutuyoruz.\n        address[] postParticipants; //Post katilimcileri - Address Array\n        uint256 postBetPool; //Posta katlmclarn yatrd toplam bet miktarn tutuyoruz.\n        bool postFinished; // Postun bitip bitmediini tutuyoruz.\n    }\n\n    // Kehanetin sonucunu yani hangi tarafn kazandn burada tutacaz\n    struct WinnerLoserState {\n        SIDE winner; // SIDE tipinde kazananlar tutuyoruz. (Left'in ve Right'n kazananlar)\n        SIDE loser; // SIDE tipinde kaybedenleri tutuyoruz. (Left'in ve Right'n kaybedenleri)\n    }\n\n    //Kullancnn setii taraf ve bet miktarn tutmak iin SideBetInfo struct' oluturuyoruz.\n    struct SideBetInfo {\n        SIDE side;\n        uint256 betAmount;\n    }\n\n    /* ////////////////////////////////// */\n    /* //////// MAPPING YAPILARI //////// */\n    /* ////////////////////////////////// */\n\n    mapping(address => User) public users; // Kullanclar tutmak/dndrmek iin bir mapping oluturuyoruz.\n    mapping(uint256 => Post) public posts; // Postlar tutmak/dndrmek iin bir mapping oluturuyoruz.\n    mapping(address => mapping(uint256 => SideBetInfo)) public sideByUser; // Kullanclarn setii taraf ve bet miktarn tutmak iin bir mapping oluturuyoruz.\n    mapping(uint256 => mapping(SIDE => uint256)) public topBetsForSide;  //Taraflar iin toplam yatrlan bahisler. dl datmnda kullanlacak\n\n    mapping(uint256 => uint256) public postBet; //Postun bet miktarn tutuyoruz.\n    mapping(uint256 => uint256) public postBetPool; //Postun havuzunu tutuyoruz.\n\n\n    /* ////////////////////////////////// */\n    /* ///////// EVENT YAPILARI ///////// */\n    /* ////////////////////////////////// */\n\n    // Fonksiyonlarn durum bilgileri event ile bakalarna yayn yapyoruz\n    event NewUser(uint256 id, string fullName, address walletAddress);\n    event NewPost(uint256 id,string postContent,uint256 postBet,uint256 postEndDate,address postAuthor,SIDE _side);\n    event PostParticipation(uint256 postId,address participant,uint256 amount,SIDE _side);\n    event PostFinish(uint256 postId,SIDE winner,uint256 reward,address participant);\n    event UserDetailsUpdated(address indexed userAddress, string newFullName, bool isVerified);\n    event BalanceWithdrawn(address walletAddress,uint256 amount);\n    /* ////////////////////////////////// */\n    /* /////////// CONSTRUCTOR ////////// */\n    /* ////////////////////////////////// */\n\n    // Balangta ilklenmesi iin constructor fonksiyonu oluturuyoruz, kullanc ve post saylarn sfra ayarlyoruz.\n    constructor() {\n        owner = msg.sender;\n        userCount=1;\n\n        users[owner] = User({\n            id: userCount,\n            fullName: \"Admin\",\n            balance: 0,\n            walletAddress: owner,\n            registerDate: block.timestamp,\n            isVerified: true, //dogrulanmis mi\n            partipicatedPost: new uint256[](0), //diger katildigi tahminlerin/postlarn indexi\n            allPredictions: new uint256[](0), //oluturduu postlarn/tahminlerin indexi\n            predictionSuccesful: 0 //Kullancnn basarili tahmin saysn tutuyoruz\n        });\n        \n    }\n\n    /* ////////////////////////////////// */\n    /* /////////// MODIFIERLAR ////////// */\n    /* ////////////////////////////////// */\n\n    // Sadece adminin kullanabilecei fonksiyonlar belirlemek iin bir modifier oluturuyoruz.\n    modifier onlyOwner() {\n        require(msg.sender == owner, \"Only admin can change!\");\n        _;\n    }\n\n    \n    /* ////////////////////////////////// */\n    /* /////// EXECUTE FONKSIYONLAR ///// */\n    /* ////////////////////////////////// */\n    \n    // Contract sahipliini baka kullancya vermek iin\n    function setOwner(address _newOwner) external onlyOwner {  \n        owner = _newOwner;\n    }\n\n    // Kullanc oluturma fonksiyonu\n    function registerUser(string memory _fullName) public {\n        require(bytes(_fullName).length > 0, \"Full name is required\");\n        \n        require(!isUser(msg.sender) , \"Bu kullanici zaten var!\"); //Kullanc yoksa devam et\n        userCount+=1;\n\n        users[msg.sender] = User({\n            id: userCount,\n            fullName: _fullName,\n            balance: 0,\n            walletAddress: msg.sender,\n            registerDate: block.timestamp,\n            isVerified: false, //dogrulanmis mi\n            partipicatedPost: new uint256[](0), //diger katildigi tahminlerin/postlarn indexi\n            allPredictions: new uint256[](0), //oluturduu postlarn/tahminlerin indexi\n            predictionSuccesful: 0 //Kullancnn basarili tahmin saysn tutuyoruz\n        });\n        \n        emit NewUser(userCount, _fullName, msg.sender);\n    }\n    // Post oluturma fonksiyonu\n    function createPost(string memory _postContent,uint256 _postBet,uint256 _postEndDate, SIDE _side) public {\n        require(isUser(msg.sender) , \"Post olusturmak icin kullanici olmalisiniz!\"); //Kullanc yoksa devam et\n        require(bytes(_postContent).length > 0, \"Post content is required\");\n        require(_postBet > 0, \"Bet amount must be greater than 0\");\n        //require(_postEndDate > block.timestamp, \"End date must be in the future\");\n        postCount+=1;\n\n        //Post yaratldnda ilk katlmc olarak post sahibini ekliyoruz.\n        address[] memory initialParticipants = new address[](1);\n        initialParticipants[0] = msg.sender;\n\n        //Seilen taraf post ID sine gre kullancnn setii tarafa mapliyoruz.\n        sideByUser[msg.sender][postCount] = SideBetInfo({\n            side: _side,\n            betAmount: _postBet\n        });\n        \n        posts[postCount] = Post({\n            id: postCount, //Postun ID si\n            postContent: _postContent, //Post icerigi\n            postBet: _postBet, //Postun degeri\n            postDate: block.timestamp,\n            postEndDate: _postEndDate,\n            postParticipants: initialParticipants, // lk katlmc olarak sadece gndereni ekle\n            postBetPool: _postBet, //Postun toplam havuzu. Ilk yaratildiginda kahin betini post havuzuna ekledik\n            postFinished: false // Post bitti mi\n            //taraf: sideByUser[msg.sender][postCount] //Kahinin post'ta seecei taraf structa atadk\n        });\n\n        //Kahinin setii tarafa gre yatrd beti havuza ekliyoruz\n        topBetsForSide[postCount][_side] += _postBet;\n        \n        \n        //Kullanicinin toplam tahmin sayisini guncelliyoruz\n        users[msg.sender].allPredictions.push(postCount);\n\n        emit NewPost(postCount, _postContent, _postBet, _postEndDate, msg.sender, _side);\n    }\n\n    // Dier kullanclarn bir posta katlm fonksiyonu\n    function participateInPost( uint256 _postId, SIDE _side, uint256 _amount ) public {\n        require(_postId <= postCount && _postId > 0, \"Invalid post ID\");\n        //require(posts[_postId].postEndDate > block.timestamp, \"Post has ended.\");\n        require(_amount > 0, \"Amount must be greater than 0\");\n        //Post sahibi kendi postuna bahis yapamaz\n        require(posts[_postId].postParticipants[0] != msg.sender,\n            \"Kendi kehanetine katilim yapamazsin!\");\n\n        \n        posts[_postId].postBetPool += _amount; //Postun havuzunu gncelliyoruz.\n        topBetsForSide[postCount][_side] += _amount; //Side iin toplam yatrlan bahisleri gncelliyoruz.\n\n        sideByUser[msg.sender][_postId] = SideBetInfo({ //Kullancnn setii taraf post ID sine gre mapliyoruz.\n            side: _side,\n            betAmount: _amount\n        });\n   \n        posts[_postId].postParticipants.push(msg.sender); // Katlan kullancnn czdan adresini katilimcilar dizisine ekledik\n\n        \n        users[msg.sender].partipicatedPost.push(_postId); //Kullancnn dier katld postlar gncelliyoruz.\n\n        emit PostParticipation(_postId, msg.sender, _amount, _side);\n    }\n\n    // Etkinligin kazanani belirleyen fonksiyon.\n    // winner ile 0(LEFT) veya 1(RIGHT) alacaz. loser ile 0(LEFT) veya 1(RIGHT) alacaz\n    function postResults( uint256 _postId, SIDE _winner, SIDE _loser) external payable onlyOwner() {\n        //require(predictor == msg.sender, \"Kahin degilsiniz!\"); //Kahin olup olmadn kontrol ediyoruz.\n        require(posts[_postId].postFinished == false, \"Kehanet bitmedi!\"); //Kehanetin bitmediyse devam et, bittiyse rapor oluturma.\n        \n        //Hangi tarafn kazandn struct'a bildiriyoruz\n        state.winner = _winner; //Param ile gelen winner'i struct'taki winner'a atiyoruz.\n        state.loser = _loser; //Param ile gelen loser'i struct'taki loser'a atiyoruz.\n        posts[_postId].postFinished = true; //Kehanetin bittigini belirtiyoruz.\n\n        \n        uint256 totalWinnerBet = topBetsForSide[_postId][_winner]; //Kazanan tarafn toplam bahis miktarn al\n        //uint256 totalLoserBet = topBetsForSide[_postId][_loser]; //Kaybeden tarafn toplam bahis miktarn al\n        \n        \n        // Kazananlara dl miktarn hesapla\n        for (uint256 i = 0; i < posts[_postId].postParticipants.length; i++) { //Tm katlmclar dn\n            address participant = posts[_postId].postParticipants[i]; //Her katlmcnn adresini al\n            \n            // Kullancnn bahis miktarn ve katld taraftan toplam bahis miktarn al\n            uint256 userBet = sideByUser[participant][_postId].betAmount;\n\n            // Eer katld taraf kazanan ise dl miktarn hesapla\n            if (sideByUser[participant][_postId].side == _winner) {\n                \n                \n                // Kazananlara den pay hesapla\n                //(Yatrd bahis * Havuzdaki top miktar) /toplam kazanan says\n                uint256 reward = (userBet * posts[_postId].postBetPool) / totalWinnerBet;\n\n                // Kullancnn bakiyesine dl ekle\n                users[participant].balance += reward;\n\n                // Kazanan tahmin saysn artr\n                users[participant].predictionSuccesful += 1;\n\n                emit PostFinish(_postId, _winner, reward, participant);\n            }\n        }\n\n    }\n\n\n\n    /* //withdrawBalance\n    function withdrawBalance(uint amount) external nonReentrant {\n        require(isUser(msg.sender), \"Kullanici bulunamadi!\");\n        \n        uint balance = users[msg.sender].balance;\n        require(balance >= amount, \"Yetersiz bakiye!\");\n\n        users[msg.sender].balance -= amount;\n\n        (bool success, ) = msg.sender.call{value: amount}(\"\");\n        require(success, \"Transfer failed.\");\n\n        emit BalanceWithdrawn(msg.sender, amount);\n    } */\n\n\n    function updateUserDetails(address _userAddress, string memory _newFullName, bool _isVerified) external onlyOwner() {\n        require(isUser(_userAddress), \"Kullanici bulunamadi!\"); // Kullanc yoksa devam et\n    \n        // Kullancnn bilgilerini gncelle\n        users[_userAddress].fullName = _newFullName;\n        users[_userAddress].isVerified = _isVerified;\n\n        // lgili event'i yaynla\n        emit UserDetailsUpdated(_userAddress, _newFullName, _isVerified);\n    }\n\n    /* //////////////////////////////////// */\n    /* //////// QUERY FONKSIYONLAR //////// */\n    /* //////////////////////////////////// */\n\n    //Kullanc var olup olmadn kontrol ediyoruz. True yada False dnmesini bekliyoruz.\n    function isUser(address _walletAddress) public view returns (bool) {\n        return users[_walletAddress].walletAddress != address(0); // Adress verdiimiz kullancnn adresi 0'a eit deilse true dndryoruz.\n    }\n   \n    // Kullancnn ad ve soyadn eken fonksiyon\n    function getUserFullName(address _userAddress) public view returns (string memory) {\n        return string(abi.encodePacked(users[_userAddress].fullName)); \n    }\n\n    //Kullanc bilgilerini ekme fonksiyonu\n    function getUserDetails(address _walletAddress) external view returns ( \n        uint256, \n        string memory, \n        uint, \n        address, \n        uint256, \n        bool,\n        uint256[] memory, \n        uint256[] memory, \n        uint256 \n        )\n        {\n        require(isUser(_walletAddress), \"Kullanici bulunamadi!\"); //Kullanc yoksa devam et\n\n        User memory user = users[_walletAddress]; \n\n        return (\n            user.id,\n            user.fullName,\n            user.balance,\n            user.walletAddress,\n            user.registerDate,\n            user.isVerified,\n            user.partipicatedPost,\n            user.allPredictions,\n            user.predictionSuccesful\n        );\n    }\n\n    //Post bilgilerini ekme fonksiyonu\n    function getPostDetails(uint256 _id) external view returns ( \n        uint256, \n        string memory, \n        uint256, \n        uint256, \n        uint256, \n        address[] memory, \n        uint256, \n        bool \n        ) {\n        require(posts[_id].id != 0, \"Post bulunamadi!\"); // Post varsa devam et\n\n        Post memory post = posts[_id];\n\n        return (\n            post.id,\n            post.postContent,\n            post.postBet,\n            post.postDate,\n            post.postEndDate,\n            post.postParticipants,\n            post.postBetPool,\n            post.postFinished\n        );\n\n       \n    }\n\n    // Postlar aktif/pasif durumuna gre listeleme fonksiyonu (Parametre 0/1 alr)\n    function getAllPosts() external view returns (Post[] memory) {\n        Post[] memory allPosts = new Post[](postCount);\n\n        for (uint256 i = 1; i <= postCount; i++) {\n            allPosts[i - 1] = posts[i];\n        }\n\n        return allPosts;\n    }\n\n\n    // Postlar aktif/pasif durumuna gre listeleme fonksiyonu (Parametre 0/1 alr)\n    function getPostByStatus(bool _status) external view returns (Post[] memory) {\n        uint256 count = 0;\n\n       \n        for (uint256 i = 1; i <= postCount; i++) {\n            if (posts[i].postFinished == _status) {\n                count++;\n            }\n        }\n\n        \n        Post[] memory postsWithStatus = new Post[](count);\n        \n        \n        uint256 index = 0;\n        for (uint256 i = 1; i <= postCount; i++) {\n            if (posts[i].postFinished == _status) {\n                postsWithStatus[index] = posts[i];\n                index++;\n            }\n        }\n\n        return postsWithStatus;\n    }\n\n\n    function getOwner() external view returns(address) {\n         return owner;\n    }\n\n    //get User Information\n    function getUser(address _walletAddress) external view returns (User memory) {\n        require(isUser(_walletAddress), \"Kullanici bulunamadi!\");\n        return users[_walletAddress];\n    }\n\n    //Get Post Information\n    function getPost(uint _id) external view returns(Post memory) {\n        require(posts[_id].id != 0, \"Post does not exist!\");\n        return posts[_id];\n    }\n\n    function getUserCount() external view returns (uint) {\n        return userCount;\n    }\n\n    function getPostCount() external view returns (uint) {\n        return postCount;\n    }\n\n    function getSideByUser(address _userAddress, uint256 _postId) external view returns (SideBetInfo memory) {\n        return sideByUser[_userAddress][_postId];\n    }\n\n    function getTopBetsForSide(uint256 _postId, SIDE _side) external view returns (uint256) {\n        return topBetsForSide[_postId][_side];\n    }\n\n    function getPostBet(uint256 _postId) external view returns (uint256) {\n        return posts[_postId].postBet;\n    }\n\n    function getPostBetPool(uint256 _postId) external view returns (uint256) {\n        return posts[_postId].postBetPool;\n    }\n\n    function getPostParticipants(uint256 _postId) external view returns (address[] memory) {\n        return posts[_postId].postParticipants;\n    }\n\n    function getPostParticipantsCount(uint256 _postId) external view returns (uint256) {\n        return posts[_postId].postParticipants.length;\n    }\n\n   \n\n   \n}\n",
  "sourcePath": "/Users/dmrdvn/Projects/PredictorsDAPP/contracts/PredictorsApp.sol",
  "compiler": {
    "name": "solc",
    "version": "0.8.13+commit.abaa5c0e.Emscripten.clang"
  },
  "schemaVersion": "3.4.16",
  "updatedAt": "2023-12-28T14:06:52.585Z",
  "networkType": "ethereum",
  "devdoc": {
    "kind": "dev",
    "methods": {},
    "version": 1
  },
  "userdoc": {
    "kind": "user",
    "methods": {},
    "version": 1
  }
}