{
  "_format": "hh-sol-artifact-1",
  "contractName": "PredictorsApp",
  "sourceName": "contracts/PredictorsApp.sol",
  "abi": [
    {
      "inputs": [],
      "stateMutability": "nonpayable",
      "type": "constructor"
    },
    {
      "anonymous": false,
      "inputs": [
        {
          "indexed": false,
          "internalType": "address",
          "name": "walletAddress",
          "type": "address"
        },
        {
          "indexed": false,
          "internalType": "uint256",
          "name": "amount",
          "type": "uint256"
        }
      ],
      "name": "BalanceWithdrawn",
      "type": "event"
    },
    {
      "anonymous": false,
      "inputs": [
        {
          "indexed": false,
          "internalType": "uint256",
          "name": "id",
          "type": "uint256"
        },
        {
          "indexed": false,
          "internalType": "string",
          "name": "postContent",
          "type": "string"
        },
        {
          "indexed": false,
          "internalType": "uint256",
          "name": "postBet",
          "type": "uint256"
        },
        {
          "indexed": false,
          "internalType": "uint256",
          "name": "postEndDate",
          "type": "uint256"
        },
        {
          "indexed": false,
          "internalType": "address",
          "name": "postAuthor",
          "type": "address"
        },
        {
          "indexed": false,
          "internalType": "enum PredictorsApp.SIDE",
          "name": "_side",
          "type": "uint8"
        }
      ],
      "name": "NewPost",
      "type": "event"
    },
    {
      "anonymous": false,
      "inputs": [
        {
          "indexed": false,
          "internalType": "uint256",
          "name": "id",
          "type": "uint256"
        },
        {
          "indexed": false,
          "internalType": "string",
          "name": "fullName",
          "type": "string"
        },
        {
          "indexed": false,
          "internalType": "address",
          "name": "walletAddress",
          "type": "address"
        }
      ],
      "name": "NewUser",
      "type": "event"
    },
    {
      "anonymous": false,
      "inputs": [
        {
          "indexed": false,
          "internalType": "uint256",
          "name": "postId",
          "type": "uint256"
        },
        {
          "indexed": false,
          "internalType": "address",
          "name": "winner",
          "type": "address"
        },
        {
          "indexed": false,
          "internalType": "uint256",
          "name": "totalBet",
          "type": "uint256"
        },
        {
          "indexed": false,
          "internalType": "uint256",
          "name": "authorReward",
          "type": "uint256"
        }
      ],
      "name": "PostFinish",
      "type": "event"
    },
    {
      "anonymous": false,
      "inputs": [
        {
          "indexed": false,
          "internalType": "uint256",
          "name": "postId",
          "type": "uint256"
        },
        {
          "indexed": false,
          "internalType": "address",
          "name": "participant",
          "type": "address"
        },
        {
          "indexed": false,
          "internalType": "uint256",
          "name": "amount",
          "type": "uint256"
        },
        {
          "indexed": false,
          "internalType": "enum PredictorsApp.SIDE",
          "name": "_side",
          "type": "uint8"
        }
      ],
      "name": "PostParticipation",
      "type": "event"
    },
    {
      "inputs": [],
      "name": "admin",
      "outputs": [
        {
          "internalType": "address",
          "name": "",
          "type": "address"
        }
      ],
      "stateMutability": "view",
      "type": "function"
    },
    {
      "inputs": [
        {
          "internalType": "address",
          "name": "",
          "type": "address"
        },
        {
          "internalType": "enum PredictorsApp.SIDE",
          "name": "",
          "type": "uint8"
        }
      ],
      "name": "betAmountByUser",
      "outputs": [
        {
          "internalType": "uint256",
          "name": "",
          "type": "uint256"
        }
      ],
      "stateMutability": "view",
      "type": "function"
    },
    {
      "inputs": [
        {
          "internalType": "string",
          "name": "_postContent",
          "type": "string"
        },
        {
          "internalType": "uint256",
          "name": "_postBet",
          "type": "uint256"
        },
        {
          "internalType": "uint256",
          "name": "_postEndDate",
          "type": "uint256"
        },
        {
          "internalType": "enum PredictorsApp.SIDE",
          "name": "_side",
          "type": "uint8"
        }
      ],
      "name": "createPost",
      "outputs": [],
      "stateMutability": "nonpayable",
      "type": "function"
    },
    {
      "inputs": [],
      "name": "getOwner",
      "outputs": [
        {
          "internalType": "address",
          "name": "",
          "type": "address"
        }
      ],
      "stateMutability": "view",
      "type": "function"
    },
    {
      "inputs": [
        {
          "internalType": "uint256",
          "name": "_id",
          "type": "uint256"
        }
      ],
      "name": "getPost",
      "outputs": [
        {
          "components": [
            {
              "internalType": "uint256",
              "name": "id",
              "type": "uint256"
            },
            {
              "internalType": "string",
              "name": "postContent",
              "type": "string"
            },
            {
              "internalType": "uint256",
              "name": "postBet",
              "type": "uint256"
            },
            {
              "internalType": "uint256",
              "name": "postDate",
              "type": "uint256"
            },
            {
              "internalType": "uint256",
              "name": "postEndDate",
              "type": "uint256"
            },
            {
              "internalType": "address[]",
              "name": "postParticipants",
              "type": "address[]"
            },
            {
              "internalType": "uint256",
              "name": "postBetPool",
              "type": "uint256"
            },
            {
              "internalType": "bool",
              "name": "postFinished",
              "type": "bool"
            }
          ],
          "internalType": "struct PredictorsApp.Post",
          "name": "",
          "type": "tuple"
        }
      ],
      "stateMutability": "view",
      "type": "function"
    },
    {
      "inputs": [
        {
          "internalType": "uint256",
          "name": "_postId",
          "type": "uint256"
        }
      ],
      "name": "getPostBet",
      "outputs": [
        {
          "internalType": "uint256",
          "name": "",
          "type": "uint256"
        }
      ],
      "stateMutability": "view",
      "type": "function"
    },
    {
      "inputs": [
        {
          "internalType": "uint256",
          "name": "_postId",
          "type": "uint256"
        }
      ],
      "name": "getPostBetPool",
      "outputs": [
        {
          "internalType": "uint256",
          "name": "",
          "type": "uint256"
        }
      ],
      "stateMutability": "view",
      "type": "function"
    },
    {
      "inputs": [
        {
          "internalType": "bool",
          "name": "_status",
          "type": "bool"
        }
      ],
      "name": "getPostByStatus",
      "outputs": [
        {
          "components": [
            {
              "internalType": "uint256",
              "name": "id",
              "type": "uint256"
            },
            {
              "internalType": "string",
              "name": "postContent",
              "type": "string"
            },
            {
              "internalType": "uint256",
              "name": "postBet",
              "type": "uint256"
            },
            {
              "internalType": "uint256",
              "name": "postDate",
              "type": "uint256"
            },
            {
              "internalType": "uint256",
              "name": "postEndDate",
              "type": "uint256"
            },
            {
              "internalType": "address[]",
              "name": "postParticipants",
              "type": "address[]"
            },
            {
              "internalType": "uint256",
              "name": "postBetPool",
              "type": "uint256"
            },
            {
              "internalType": "bool",
              "name": "postFinished",
              "type": "bool"
            }
          ],
          "internalType": "struct PredictorsApp.Post[]",
          "name": "",
          "type": "tuple[]"
        }
      ],
      "stateMutability": "view",
      "type": "function"
    },
    {
      "inputs": [],
      "name": "getPostCount",
      "outputs": [
        {
          "internalType": "uint256",
          "name": "",
          "type": "uint256"
        }
      ],
      "stateMutability": "view",
      "type": "function"
    },
    {
      "inputs": [
        {
          "internalType": "uint256",
          "name": "_id",
          "type": "uint256"
        }
      ],
      "name": "getPostDetails",
      "outputs": [
        {
          "internalType": "uint256",
          "name": "",
          "type": "uint256"
        },
        {
          "internalType": "string",
          "name": "",
          "type": "string"
        },
        {
          "internalType": "uint256",
          "name": "",
          "type": "uint256"
        },
        {
          "internalType": "uint256",
          "name": "",
          "type": "uint256"
        },
        {
          "internalType": "uint256",
          "name": "",
          "type": "uint256"
        },
        {
          "internalType": "address[]",
          "name": "",
          "type": "address[]"
        },
        {
          "internalType": "uint256",
          "name": "",
          "type": "uint256"
        },
        {
          "internalType": "bool",
          "name": "",
          "type": "bool"
        }
      ],
      "stateMutability": "view",
      "type": "function"
    },
    {
      "inputs": [
        {
          "internalType": "address",
          "name": "_walletAddress",
          "type": "address"
        }
      ],
      "name": "getUser",
      "outputs": [
        {
          "components": [
            {
              "internalType": "uint256",
              "name": "id",
              "type": "uint256"
            },
            {
              "internalType": "string",
              "name": "fullName",
              "type": "string"
            },
            {
              "internalType": "uint256",
              "name": "balance",
              "type": "uint256"
            },
            {
              "internalType": "address",
              "name": "walletAddress",
              "type": "address"
            },
            {
              "internalType": "uint256",
              "name": "registerDate",
              "type": "uint256"
            },
            {
              "internalType": "bool",
              "name": "isVerified",
              "type": "bool"
            },
            {
              "internalType": "uint256[]",
              "name": "partipicatedPost",
              "type": "uint256[]"
            },
            {
              "internalType": "uint256[]",
              "name": "allPredictions",
              "type": "uint256[]"
            },
            {
              "internalType": "uint256",
              "name": "predictionSuccesful",
              "type": "uint256"
            }
          ],
          "internalType": "struct PredictorsApp.User",
          "name": "",
          "type": "tuple"
        }
      ],
      "stateMutability": "view",
      "type": "function"
    },
    {
      "inputs": [],
      "name": "getUserCount",
      "outputs": [
        {
          "internalType": "uint256",
          "name": "",
          "type": "uint256"
        }
      ],
      "stateMutability": "view",
      "type": "function"
    },
    {
      "inputs": [
        {
          "internalType": "address",
          "name": "_walletAddress",
          "type": "address"
        }
      ],
      "name": "getUserDetails",
      "outputs": [
        {
          "internalType": "uint256",
          "name": "",
          "type": "uint256"
        },
        {
          "internalType": "string",
          "name": "",
          "type": "string"
        },
        {
          "internalType": "uint256",
          "name": "",
          "type": "uint256"
        },
        {
          "internalType": "address",
          "name": "",
          "type": "address"
        },
        {
          "internalType": "uint256",
          "name": "",
          "type": "uint256"
        },
        {
          "internalType": "bool",
          "name": "",
          "type": "bool"
        },
        {
          "internalType": "uint256[]",
          "name": "",
          "type": "uint256[]"
        },
        {
          "internalType": "uint256[]",
          "name": "",
          "type": "uint256[]"
        },
        {
          "internalType": "uint256",
          "name": "",
          "type": "uint256"
        }
      ],
      "stateMutability": "view",
      "type": "function"
    },
    {
      "inputs": [
        {
          "internalType": "address",
          "name": "_userAddress",
          "type": "address"
        }
      ],
      "name": "getUserFullName",
      "outputs": [
        {
          "internalType": "string",
          "name": "",
          "type": "string"
        }
      ],
      "stateMutability": "view",
      "type": "function"
    },
    {
      "inputs": [
        {
          "internalType": "address",
          "name": "_walletAddress",
          "type": "address"
        }
      ],
      "name": "isUser",
      "outputs": [
        {
          "internalType": "bool",
          "name": "",
          "type": "bool"
        }
      ],
      "stateMutability": "view",
      "type": "function"
    },
    {
      "inputs": [
        {
          "internalType": "uint256",
          "name": "_postId",
          "type": "uint256"
        },
        {
          "internalType": "enum PredictorsApp.SIDE",
          "name": "_side",
          "type": "uint8"
        },
        {
          "internalType": "uint256",
          "name": "_amount",
          "type": "uint256"
        }
      ],
      "name": "participateInPost",
      "outputs": [],
      "stateMutability": "nonpayable",
      "type": "function"
    },
    {
      "inputs": [
        {
          "internalType": "uint256",
          "name": "",
          "type": "uint256"
        }
      ],
      "name": "postBet",
      "outputs": [
        {
          "internalType": "uint256",
          "name": "",
          "type": "uint256"
        }
      ],
      "stateMutability": "view",
      "type": "function"
    },
    {
      "inputs": [
        {
          "internalType": "uint256",
          "name": "",
          "type": "uint256"
        }
      ],
      "name": "postBetPool",
      "outputs": [
        {
          "internalType": "uint256",
          "name": "",
          "type": "uint256"
        }
      ],
      "stateMutability": "view",
      "type": "function"
    },
    {
      "inputs": [],
      "name": "postCount",
      "outputs": [
        {
          "internalType": "uint256",
          "name": "",
          "type": "uint256"
        }
      ],
      "stateMutability": "view",
      "type": "function"
    },
    {
      "inputs": [
        {
          "internalType": "uint256",
          "name": "_postId",
          "type": "uint256"
        },
        {
          "internalType": "enum PredictorsApp.SIDE",
          "name": "_winner",
          "type": "uint8"
        },
        {
          "internalType": "enum PredictorsApp.SIDE",
          "name": "_loser",
          "type": "uint8"
        }
      ],
      "name": "postResults",
      "outputs": [],
      "stateMutability": "payable",
      "type": "function"
    },
    {
      "inputs": [
        {
          "internalType": "uint256",
          "name": "",
          "type": "uint256"
        }
      ],
      "name": "posts",
      "outputs": [
        {
          "internalType": "uint256",
          "name": "id",
          "type": "uint256"
        },
        {
          "internalType": "string",
          "name": "postContent",
          "type": "string"
        },
        {
          "internalType": "uint256",
          "name": "postBet",
          "type": "uint256"
        },
        {
          "internalType": "uint256",
          "name": "postDate",
          "type": "uint256"
        },
        {
          "internalType": "uint256",
          "name": "postEndDate",
          "type": "uint256"
        },
        {
          "internalType": "uint256",
          "name": "postBetPool",
          "type": "uint256"
        },
        {
          "internalType": "bool",
          "name": "postFinished",
          "type": "bool"
        }
      ],
      "stateMutability": "view",
      "type": "function"
    },
    {
      "inputs": [
        {
          "internalType": "string",
          "name": "_fullName",
          "type": "string"
        }
      ],
      "name": "registerUser",
      "outputs": [],
      "stateMutability": "nonpayable",
      "type": "function"
    },
    {
      "inputs": [
        {
          "internalType": "address",
          "name": "_newOwner",
          "type": "address"
        }
      ],
      "name": "setOwner",
      "outputs": [],
      "stateMutability": "nonpayable",
      "type": "function"
    },
    {
      "inputs": [
        {
          "internalType": "address",
          "name": "",
          "type": "address"
        },
        {
          "internalType": "uint256",
          "name": "",
          "type": "uint256"
        }
      ],
      "name": "sideByUser",
      "outputs": [
        {
          "internalType": "enum PredictorsApp.SIDE",
          "name": "",
          "type": "uint8"
        }
      ],
      "stateMutability": "view",
      "type": "function"
    },
    {
      "inputs": [],
      "name": "state",
      "outputs": [
        {
          "internalType": "enum PredictorsApp.SIDE",
          "name": "winner",
          "type": "uint8"
        },
        {
          "internalType": "enum PredictorsApp.SIDE",
          "name": "loser",
          "type": "uint8"
        }
      ],
      "stateMutability": "view",
      "type": "function"
    },
    {
      "inputs": [
        {
          "internalType": "enum PredictorsApp.SIDE",
          "name": "",
          "type": "uint8"
        }
      ],
      "name": "topBetsForSide",
      "outputs": [
        {
          "internalType": "uint256",
          "name": "",
          "type": "uint256"
        }
      ],
      "stateMutability": "view",
      "type": "function"
    },
    {
      "inputs": [],
      "name": "userCount",
      "outputs": [
        {
          "internalType": "uint256",
          "name": "",
          "type": "uint256"
        }
      ],
      "stateMutability": "view",
      "type": "function"
    },
    {
      "inputs": [
        {
          "internalType": "address",
          "name": "",
          "type": "address"
        }
      ],
      "name": "users",
      "outputs": [
        {
          "internalType": "uint256",
          "name": "id",
          "type": "uint256"
        },
        {
          "internalType": "string",
          "name": "fullName",
          "type": "string"
        },
        {
          "internalType": "uint256",
          "name": "balance",
          "type": "uint256"
        },
        {
          "internalType": "address",
          "name": "walletAddress",
          "type": "address"
        },
        {
          "internalType": "uint256",
          "name": "registerDate",
          "type": "uint256"
        },
        {
          "internalType": "bool",
          "name": "isVerified",
          "type": "bool"
        },
        {
          "internalType": "uint256",
          "name": "predictionSuccesful",
          "type": "uint256"
        }
      ],
      "stateMutability": "view",
      "type": "function"
    }
  ],
  "bytecode": "0x608060405234801561001057600080fd5b50600080546001600160a01b03191633179055612b0c806100326000396000f3fe6080604052600436106101b75760003560e01c8063873ee900116100ec578063bcc954071161008a578063cde2e45011610064578063cde2e450146105aa578063d7441ee9146105ca578063dd1d8a43146105f7578063f851a4401461061757600080fd5b8063bcc954071461052f578063c19d93fb14610544578063cc3d967b1461057557600080fd5b8063a87430ba116100c6578063a87430ba1461049a578063adb2e2d2146104cd578063b5cb15f7146104fa578063bc36aac81461050f57600080fd5b8063873ee900146103ec578063893d20e8146104345780639fc226f41461046657600080fd5b80633135899a11610159578063583013281161013357806358301328146103455780636f77926b14610372578063704f1b941461039f57806380897d3b146103bf57600080fd5b80633135899a146102b057806340731c24146102e85780634209fff11461031557600080fd5b806313af40351161019557806313af40351461023a57806317906c2e1461025a5780631b9cde5714610270578063302513d01461028357600080fd5b806303f505c3146101bc57806307973ccf146101de5780630b1e7f8314610207575b600080fd5b3480156101c857600080fd5b506101dc6101d7366004612264565b610637565b005b3480156101ea57600080fd5b506101f460015481565b6040519081526020015b60405180910390f35b34801561021357600080fd5b506102276102223660046122c5565b6109d0565b6040516101fe979695949392919061232b565b34801561024657600080fd5b506101dc610255366004612387565b610a97565b34801561026657600080fd5b506101f460025481565b6101dc61027e3660046123a2565b610b1f565b34801561028f57600080fd5b506101f461029e3660046123de565b60076020526000908152604090205481565b3480156102bc57600080fd5b506101f46102cb3660046123f9565b600960209081526000928352604080842090915290825290205481565b3480156102f457600080fd5b506103086103033660046122c5565b610ec4565b6040516101fe91906124eb565b34801561032157600080fd5b50610335610330366004612387565b61107b565b60405190151581526020016101fe565b34801561035157600080fd5b506101f46103603660046122c5565b600b6020526000908152604090205481565b34801561037e57600080fd5b5061039261038d366004612387565b61109e565b6040516101fe919061252e565b3480156103ab57600080fd5b506101dc6103ba3660046125eb565b611303565b3480156103cb57600080fd5b506101f46103da3660046122c5565b600a6020526000908152604090205481565b3480156103f857600080fd5b50610427610407366004612628565b600860209081526000928352604080842090915290825290205460ff1681565b6040516101fe919061268a565b34801561044057600080fd5b506000546001600160a01b03165b6040516001600160a01b0390911681526020016101fe565b34801561047257600080fd5b506104866104813660046122c5565b611514565b6040516101fe98979695949392919061269e565b3480156104a657600080fd5b506104ba6104b5366004612387565b61171a565b6040516101fe97969594939291906126fb565b3480156104d957600080fd5b506104ed6104e8366004612749565b6117ec565b6040516101fe919061276b565b34801561050657600080fd5b506001546101f4565b34801561051b57600080fd5b506101f461052a3660046122c5565b611a63565b34801561053b57600080fd5b506002546101f4565b34801561055057600080fd5b506004546105679060ff8082169161010090041682565b6040516101fe9291906127cd565b34801561058157600080fd5b50610595610590366004612387565b611a8e565b6040516101fe999897969594939291906127e8565b3480156105b657600080fd5b506101f46105c53660046122c5565b611d00565b3480156105d657600080fd5b506105ea6105e5366004612387565b611d24565b6040516101fe9190612867565b34801561060357600080fd5b506101dc61061236600461287a565b611d74565b34801561062357600080fd5b5060035461044e906001600160a01b031681565b6106403361107b565b6106a55760405162461bcd60e51b815260206004820152602b60248201527f506f7374206f6c75737475726d616b206963696e206b756c6c616e696369206f60448201526a6c6d616c6973696e697a2160a81b60648201526084015b60405180910390fd5b60008451116106f65760405162461bcd60e51b815260206004820152601860248201527f506f737420636f6e74656e742069732072657175697265640000000000000000604482015260640161069c565b600083116107505760405162461bcd60e51b815260206004820152602160248201527f42657420616d6f756e74206d7573742062652067726561746572207468616e206044820152600360fc1b606482015260840161069c565b60016002600082825461076391906128c5565b909155505060408051600180825281830190925260009160208083019080368337019050509050338160008151811061079e5761079e6128dd565b6001600160a01b03909216602092830291909101820152336000908152600882526040808220600254835290925220805483919060ff1916600183818111156107e9576107e9612652565b0217905550604080516101008101825260025480825260208083018981528385018990524260608501526080840188905260a0840186905260c08401899052600060e0850181905292835260068252939091208251815592518051929392610857926001850192019061203e565b5060408201516002820155606082015160038201556080820151600482015560a082015180516108919160058401916020909101906120c2565b5060c0820151600682015560e0909101516007909101805460ff191691151591909117905533600090815260096020526040812085918460018111156108d9576108d9612652565b60018111156108ea576108ea612652565b8152602001908152602001600020600082825461090791906128c5565b909155508490506007600084600181111561092457610924612652565b600181111561093557610935612652565b8152602001908152602001600020600082825461095291906128c5565b909155505033600081815260056020908152604080832060028054600790920180546001810182559086529390942090920191909155905490517f7899c2ae62d80d88c47b7e17dbdb5dec5b80aab5ed5bd8700581a6819e48dba2926109c192918991899189919089906128f3565b60405180910390a15050505050565b600660205260009081526040902080546001820180549192916109f290612943565b80601f0160208091040260200160405190810160405280929190818152602001828054610a1e90612943565b8015610a6b5780601f10610a4057610100808354040283529160200191610a6b565b820191906000526020600020905b815481529060010190602001808311610a4e57829003601f168201915b505050600284015460038501546004860154600687015460079097015495969295919450925060ff1687565b6000546001600160a01b03163314610afd5760405162461bcd60e51b815260206004820152602360248201527f536164656365206865736170207361686962692064656769737469726562696c60448201526269722160e81b606482015260840161069c565b600080546001600160a01b0319166001600160a01b0392909216919091179055565b60008381526006602052604090206007015460ff1615610b745760405162461bcd60e51b815260206004820152601060248201526f4b6568616e6574206269746d6564692160801b604482015260640161069c565b6004805483919060ff191660018381811115610b9257610b92612652565b02179055506004805482919061ff001916610100836001811115610bb857610bb8612652565b0217905550600083815260066020526040812060078101805460ff191660011790556005015467ffffffffffffffff811115610bf657610bf66121ad565b604051908082528060200260200182016040528015610c1f578160200160208202803683370190505b50600085815260066020908152604080832060050180548251818502810185019093528083529495509293909291830182828015610c8657602002820191906000526020600020905b81546001600160a01b03168152600190910190602001808311610c68575b5050506000888152600660208190526040822001549394509150505b8251811015610ebb576000838281518110610cbf57610cbf6128dd565b6020908102919091018101516001600160a01b03811660009081526008835260408082208c83529093529190912054865191925060ff1690869084908110610d0957610d096128dd565b60200260200101906001811115610d2257610d22612652565b90816001811115610d3557610d35612652565b90525060045460ff166001811115610d4f57610d4f612652565b858381518110610d6157610d616128dd565b60200260200101516001811115610d7a57610d7a612652565b03610ea8576001600160a01b0381166000908152600560205260408120600801805460019290610dab9084906128c5565b90915550506001600160a01b038116600090815260096020526040812086518290889086908110610dde57610dde6128dd565b60200260200101516001811115610df757610df7612652565b6001811115610e0857610e08612652565b81526020810191909152604001600090812054600454909250600790829060ff166001811115610e3a57610e3a612652565b6001811115610e4b57610e4b612652565b8152602001908152602001600020548583610e66919061297d565b610e70919061299c565b6001600160a01b038416600090815260056020526040812060020180549293508392909190610ea09084906128c5565b909155505050505b5080610eb3816129be565b915050610ca2565b50505050505050565b610ecc612117565b6000828152600660205260408120549003610f205760405162461bcd60e51b8152602060048201526014602482015273506f737420646f6573206e6f742065786973742160601b604482015260640161069c565b600660008381526020019081526020016000206040518061010001604052908160008201548152602001600182018054610f5990612943565b80601f0160208091040260200160405190810160405280929190818152602001828054610f8590612943565b8015610fd25780601f10610fa757610100808354040283529160200191610fd2565b820191906000526020600020905b815481529060010190602001808311610fb557829003601f168201915b505050505081526020016002820154815260200160038201548152602001600482015481526020016005820180548060200260200160405190810160405280929190818152602001828054801561105257602002820191906000526020600020905b81546001600160a01b03168152600190910190602001808311611034575b50505091835250506006820154602082015260079091015460ff16151560409091015292915050565b6001600160a01b0390811660009081526005602052604090206003015416151590565b6110f860405180610120016040528060008152602001606081526020016000815260200160006001600160a01b03168152602001600081526020016000151581526020016060815260200160608152602001600081525090565b6111018261107b565b6111455760405162461bcd60e51b81526020600482015260156024820152744b756c6c616e6963692062756c756e616d6164692160581b604482015260640161069c565b6001600160a01b0382166000908152600560209081526040918290208251610120810190935280548352600181018054919284019161118390612943565b80601f01602080910402602001604051908101604052809291908181526020018280546111af90612943565b80156111fc5780601f106111d1576101008083540402835291602001916111fc565b820191906000526020600020905b8154815290600101906020018083116111df57829003601f168201915b5050509183525050600282015460208083019190915260038301546001600160a01b031660408084019190915260048401546060840152600584015460ff161515608084015260068401805482518185028101850190935280835260a090940193919290919083018282801561129157602002820191906000526020600020905b81548152602001906001019080831161127d575b50505050508152602001600782018054806020026020016040519081016040528092919081815260200182805480156112e957602002820191906000526020600020905b8154815260200190600101908083116112d5575b505050505081526020016008820154815250509050919050565b600081511161134c5760405162461bcd60e51b8152602060048201526015602482015274119d5b1b081b985b59481a5cc81c995c5d5a5c9959605a1b604482015260640161069c565b6113553361107b565b156113a25760405162461bcd60e51b815260206004820152601760248201527f4275206b756c6c616e696369207a6174656e2076617221000000000000000000604482015260640161069c565b60018060008282546113b491906128c5565b9091555050604080516101208101825260018054825260208083018581526000848601819052336060860181905242608087015260a086018290528651828152808501885260c08701528651828152808501885260e0870152610100860182905281526005835294909420835181559351805193949361143b93850192919091019061203e565b506040820151600282015560608201516003820180546001600160a01b0319166001600160a01b039092169190911790556080820151600482015560a082015160058201805460ff191691151591909117905560c082015180516114a991600684019160209091019061215e565b5060e082015180516114c591600784019160209091019061215e565b5061010082015181600801559050507f252de601d0068c75b821d503ebaaf561c5b04c99d1cf5ebe04bf9c4348285b2f6001548233604051611509939291906129d7565b60405180910390a150565b6000606060008060006060600080600660008a81526020019081526020016000206000015460000361157b5760405162461bcd60e51b815260206004820152601060248201526f506f73742062756c756e616d6164692160801b604482015260640161069c565b6000600660008b815260200190815260200160002060405180610100016040529081600082015481526020016001820180546115b690612943565b80601f01602080910402602001604051908101604052809291908181526020018280546115e290612943565b801561162f5780601f106116045761010080835404028352916020019161162f565b820191906000526020600020905b81548152906001019060200180831161161257829003601f168201915b50505050508152602001600282015481526020016003820154815260200160048201548152602001600582018054806020026020016040519081016040528092919081815260200182805480156116af57602002820191906000526020600020905b81546001600160a01b03168152600190910190602001808311611691575b5050509183525050600682015460208083019190915260079092015460ff161515604091820152825191830151908301516060840151608085015160a086015160c087015160e090970151959f50939d50919b50995097509550909350915050919395975091939597565b6005602052600090815260409020805460018201805491929161173c90612943565b80601f016020809104026020016040519081016040528092919081815260200182805461176890612943565b80156117b55780601f1061178a576101008083540402835291602001916117b5565b820191906000526020600020905b81548152906001019060200180831161179857829003601f168201915b505050506002830154600384015460048501546005860154600890960154949592946001600160a01b0390921693509160ff169087565b6060600060015b600254811161183d5760008181526006602052604090206007015484151560ff90911615150361182b5781611827816129be565b9250505b80611835816129be565b9150506117f3565b5060008167ffffffffffffffff811115611859576118596121ad565b60405190808252806020026020018201604052801561189257816020015b61187f612117565b8152602001906001900390816118775790505b509050600060015b6002548111611a595760008181526006602052604090206007015486151560ff909116151503611a47576006600082815260200190815260200160002060405180610100016040529081600082015481526020016001820180546118fd90612943565b80601f016020809104026020016040519081016040528092919081815260200182805461192990612943565b80156119765780601f1061194b57610100808354040283529160200191611976565b820191906000526020600020905b81548152906001019060200180831161195957829003601f168201915b50505050508152602001600282015481526020016003820154815260200160048201548152602001600582018054806020026020016040519081016040528092919081815260200182805480156119f657602002820191906000526020600020905b81546001600160a01b031681526001909101906020018083116119d8575b50505091835250506006820154602082015260079091015460ff1615156040909101528351849084908110611a2d57611a2d6128dd565b60200260200101819052508180611a43906129be565b9250505b80611a51816129be565b91505061189a565b5090949350505050565b6000818152600b6020526040812054670de0b6b3a764000090611a8790829061299c565b9392505050565b600060606000806000806060806000611aa68a61107b565b611aea5760405162461bcd60e51b81526020600482015260156024820152744b756c6c616e6963692062756c756e616d6164692160581b604482015260640161069c565b6000600560008c6001600160a01b03166001600160a01b031681526020019081526020016000206040518061012001604052908160008201548152602001600182018054611b3790612943565b80601f0160208091040260200160405190810160405280929190818152602001828054611b6390612943565b8015611bb05780601f10611b8557610100808354040283529160200191611bb0565b820191906000526020600020905b815481529060010190602001808311611b9357829003601f168201915b5050509183525050600282015460208083019190915260038301546001600160a01b031660408084019190915260048401546060840152600584015460ff161515608084015260068401805482518185028101850190935280835260a0909401939192909190830182828015611c4557602002820191906000526020600020905b815481526020019060010190808311611c31575b5050505050815260200160078201805480602002602001604051908101604052809291908181526020018280548015611c9d57602002820191906000526020600020905b815481526020019060010190808311611c89575b505050505081526020016008820154815250509050806000015181602001518260400151836060015184608001518560a001518660c001518760e00151886101000151995099509950995099509950995099509950509193959799909294969850565b6000818152600a6020526040812054670de0b6b3a764000090611a8790829061299c565b606060056000836001600160a01b03166001600160a01b03168152602001908152602001600020600101604051602001611d5e9190612a08565b6040516020818303038152906040529050919050565b6002548311158015611d865750600083115b611dc45760405162461bcd60e51b815260206004820152600f60248201526e125b9d985b1a59081c1bdcdd081251608a1b604482015260640161069c565b60008111611e145760405162461bcd60e51b815260206004820152601d60248201527f416d6f756e74206d7573742062652067726561746572207468616e2030000000604482015260640161069c565b60008381526006602052604081206005018054339290611e3657611e366128dd565b6000918252602090912001546001600160a01b031603611ea45760405162461bcd60e51b8152602060048201526024808201527f4b656e6469206b6568616e6574696e65206b6174696c696d20796170616d617a60448201526373696e2160e01b606482015260840161069c565b8060076000846001811115611ebb57611ebb612652565b6001811115611ecc57611ecc612652565b81526020019081526020016000206000828254611ee991906128c5565b909155505060008381526006602081905260408220018054839290611f0f9084906128c5565b90915550503360009081526009602052604081208291846001811115611f3757611f37612652565b6001811115611f4857611f48612652565b81526020019081526020016000206000828254611f6591906128c5565b90915550503360009081526008602090815260408083208684529091529020805483919060ff191660018381811115611fa057611fa0612652565b0217905550600083815260066020818152604080842060059081018054600181810183559187528487200180546001600160a01b031916339081179091558087529184528286209094018054948501815585529190932090910185905590517f65f3464dba2df0038cd6b6f3946cbff99b635032abc752ae6eb1d22a144d5143916120319186919085908790612aa3565b60405180910390a1505050565b82805461204a90612943565b90600052602060002090601f01602090048101928261206c57600085556120b2565b82601f1061208557805160ff19168380011785556120b2565b828001600101855582156120b2579182015b828111156120b2578251825591602001919060010190612097565b506120be929150612198565b5090565b8280548282559060005260206000209081019282156120b2579160200282015b828111156120b257825182546001600160a01b0319166001600160a01b039091161782556020909201916001909101906120e2565b604051806101000160405280600081526020016060815260200160008152602001600081526020016000815260200160608152602001600081526020016000151581525090565b8280548282559060005260206000209081019282156120b257916020028201828111156120b2578251825591602001919060010190612097565b5b808211156120be5760008155600101612199565b634e487b7160e01b600052604160045260246000fd5b600082601f8301126121d457600080fd5b813567ffffffffffffffff808211156121ef576121ef6121ad565b604051601f8301601f19908116603f01168101908282118183101715612217576122176121ad565b8160405283815286602085880101111561223057600080fd5b836020870160208301376000602085830101528094505050505092915050565b80356002811061225f57600080fd5b919050565b6000806000806080858703121561227a57600080fd5b843567ffffffffffffffff81111561229157600080fd5b61229d878288016121c3565b94505060208501359250604085013591506122ba60608601612250565b905092959194509250565b6000602082840312156122d757600080fd5b5035919050565b6000815180845260005b81811015612304576020818501810151868301820152016122e8565b81811115612316576000602083870101525b50601f01601f19169290920160200192915050565b87815260e06020820152600061234460e08301896122de565b6040830197909752506060810194909452608084019290925260a0830152151560c09091015292915050565b80356001600160a01b038116811461225f57600080fd5b60006020828403121561239957600080fd5b611a8782612370565b6000806000606084860312156123b757600080fd5b833592506123c760208501612250565b91506123d560408501612250565b90509250925092565b6000602082840312156123f057600080fd5b611a8782612250565b6000806040838503121561240c57600080fd5b61241583612370565b915061242360208401612250565b90509250929050565b600081518084526020808501945080840160005b838110156124655781516001600160a01b031687529582019590820190600101612440565b509495945050505050565b6000610100825184526020830151816020860152612490828601826122de565b91505060408301516040850152606083015160608501526080830151608085015260a083015184820360a08601526124c8828261242c565b91505060c083015160c085015260e0830151151560e08501528091505092915050565b602081526000611a876020830184612470565b600081518084526020808501945080840160005b8381101561246557815187529582019590820190600101612512565b6020815281516020820152600060208301516101208060408501526125576101408501836122de565b915060408501516060850152606085015161257d60808601826001600160a01b03169052565b50608085015160a085015260a085015161259b60c086018215159052565b5060c0850151601f19808685030160e08701526125b884836124fe565b935060e087015191506101008187860301818801526125d785846124fe565b970151959092019490945250929392505050565b6000602082840312156125fd57600080fd5b813567ffffffffffffffff81111561261457600080fd5b612620848285016121c3565b949350505050565b6000806040838503121561263b57600080fd5b61264483612370565b946020939093013593505050565b634e487b7160e01b600052602160045260246000fd5b6002811061268657634e487b7160e01b600052602160045260246000fd5b9052565b602081016126988284612668565b92915050565b60006101008a83528060208401526126b88184018b6122de565b905088604084015287606084015286608084015282810360a08401526126de818761242c565b60c0840195909552505090151560e0909101529695505050505050565b87815260e06020820152600061271460e08301896122de565b6040830197909752506001600160a01b039490941660608501526080840192909252151560a083015260c09091015292915050565b60006020828403121561275b57600080fd5b81358015158114611a8757600080fd5b6000602080830181845280855180835260408601915060408160051b870101925083870160005b828110156127c057603f198886030184526127ae858351612470565b94509285019290850190600101612792565b5092979650505050505050565b604081016127db8285612668565b611a876020830184612668565b60006101208b83528060208401526128028184018c6122de565b604084018b90526001600160a01b038a1660608501526080840189905287151560a085015283810360c0850152905061283b81876124fe565b905082810360e084015261284f81866124fe565b915050826101008301529a9950505050505050505050565b602081526000611a8760208301846122de565b60008060006060848603121561288f57600080fd5b8335925061289f60208501612250565b9150604084013590509250925092565b634e487b7160e01b600052601160045260246000fd5b600082198211156128d8576128d86128af565b500190565b634e487b7160e01b600052603260045260246000fd5b86815260c06020820152600061290c60c08301886122de565b60408301879052606083018690526001600160a01b0385166080840152905061293860a0830184612668565b979650505050505050565b600181811c9082168061295757607f821691505b60208210810361297757634e487b7160e01b600052602260045260246000fd5b50919050565b6000816000190483118215151615612997576129976128af565b500290565b6000826129b957634e487b7160e01b600052601260045260246000fd5b500490565b6000600182016129d0576129d06128af565b5060010190565b8381526060602082015260006129f060608301856122de565b905060018060a01b0383166040830152949350505050565b600080835481600182811c915080831680612a2457607f831692505b60208084108203612a4357634e487b7160e01b86526022600452602486fd5b818015612a575760018114612a6857612a95565b60ff19861689528489019650612a95565b60008a81526020902060005b86811015612a8d5781548b820152908501908301612a74565b505084890196505b509498975050505050505050565b8481526001600160a01b03841660208201526040810183905260808101612acd6060830184612668565b9594505050505056fea26469706673582212208d089ffcc7228f93e9b60477923d1dffed15cbd7726e98563aafd288212d84b664736f6c634300080d0033",
  "linkReferences": {},
  "deployedLinkReferences": {}
}