{
  "contractName": "PredictorsApp",
  "abi": [
    {
      "inputs": [],
      "stateMutability": "nonpayable",
      "type": "constructor"
    },
    {
      "anonymous": false,
      "inputs": [
        {
          "indexed": false,
          "internalType": "uint256",
          "name": "id",
          "type": "uint256"
        },
        {
          "indexed": false,
          "internalType": "string",
          "name": "postContent",
          "type": "string"
        },
        {
          "indexed": false,
          "internalType": "uint256",
          "name": "postBet",
          "type": "uint256"
        },
        {
          "indexed": false,
          "internalType": "uint256",
          "name": "postEndDate",
          "type": "uint256"
        },
        {
          "indexed": false,
          "internalType": "address",
          "name": "postAuthor",
          "type": "address"
        },
        {
          "indexed": false,
          "internalType": "enum PredictorsApp.SIDE",
          "name": "_side",
          "type": "uint8"
        }
      ],
      "name": "NewPost",
      "type": "event"
    },
    {
      "anonymous": false,
      "inputs": [
        {
          "indexed": false,
          "internalType": "uint256",
          "name": "id",
          "type": "uint256"
        },
        {
          "indexed": false,
          "internalType": "string",
          "name": "fullName",
          "type": "string"
        },
        {
          "indexed": false,
          "internalType": "address",
          "name": "walletAddress",
          "type": "address"
        }
      ],
      "name": "NewUser",
      "type": "event"
    },
    {
      "anonymous": false,
      "inputs": [
        {
          "indexed": false,
          "internalType": "uint256",
          "name": "postId",
          "type": "uint256"
        },
        {
          "indexed": false,
          "internalType": "address",
          "name": "winner",
          "type": "address"
        },
        {
          "indexed": false,
          "internalType": "uint256",
          "name": "totalBet",
          "type": "uint256"
        },
        {
          "indexed": false,
          "internalType": "uint256",
          "name": "authorReward",
          "type": "uint256"
        }
      ],
      "name": "PostFinish",
      "type": "event"
    },
    {
      "anonymous": false,
      "inputs": [
        {
          "indexed": false,
          "internalType": "uint256",
          "name": "postId",
          "type": "uint256"
        },
        {
          "indexed": false,
          "internalType": "address",
          "name": "participant",
          "type": "address"
        },
        {
          "indexed": false,
          "internalType": "uint256",
          "name": "amount",
          "type": "uint256"
        },
        {
          "indexed": false,
          "internalType": "enum PredictorsApp.SIDE",
          "name": "_side",
          "type": "uint8"
        }
      ],
      "name": "PostParticipation",
      "type": "event"
    },
    {
      "inputs": [],
      "name": "admin",
      "outputs": [
        {
          "internalType": "address",
          "name": "",
          "type": "address"
        }
      ],
      "stateMutability": "view",
      "type": "function"
    },
    {
      "inputs": [
        {
          "internalType": "address",
          "name": "",
          "type": "address"
        },
        {
          "internalType": "enum PredictorsApp.SIDE",
          "name": "",
          "type": "uint8"
        }
      ],
      "name": "betAmountByUser",
      "outputs": [
        {
          "internalType": "uint256",
          "name": "",
          "type": "uint256"
        }
      ],
      "stateMutability": "view",
      "type": "function"
    },
    {
      "inputs": [],
      "name": "postCount",
      "outputs": [
        {
          "internalType": "uint256",
          "name": "",
          "type": "uint256"
        }
      ],
      "stateMutability": "view",
      "type": "function"
    },
    {
      "inputs": [
        {
          "internalType": "uint256",
          "name": "",
          "type": "uint256"
        }
      ],
      "name": "posts",
      "outputs": [
        {
          "internalType": "uint256",
          "name": "id",
          "type": "uint256"
        },
        {
          "internalType": "string",
          "name": "postContent",
          "type": "string"
        },
        {
          "internalType": "uint256",
          "name": "postBet",
          "type": "uint256"
        },
        {
          "internalType": "uint256",
          "name": "postEndDate",
          "type": "uint256"
        },
        {
          "internalType": "uint256",
          "name": "postDate",
          "type": "uint256"
        },
        {
          "internalType": "uint256",
          "name": "postBetPool",
          "type": "uint256"
        },
        {
          "internalType": "bool",
          "name": "postFinished",
          "type": "bool"
        }
      ],
      "stateMutability": "view",
      "type": "function"
    },
    {
      "inputs": [
        {
          "internalType": "address",
          "name": "",
          "type": "address"
        },
        {
          "internalType": "uint256",
          "name": "",
          "type": "uint256"
        }
      ],
      "name": "sideByUser",
      "outputs": [
        {
          "internalType": "enum PredictorsApp.SIDE",
          "name": "",
          "type": "uint8"
        }
      ],
      "stateMutability": "view",
      "type": "function"
    },
    {
      "inputs": [],
      "name": "state",
      "outputs": [
        {
          "internalType": "enum PredictorsApp.SIDE",
          "name": "winner",
          "type": "uint8"
        },
        {
          "internalType": "enum PredictorsApp.SIDE",
          "name": "loser",
          "type": "uint8"
        }
      ],
      "stateMutability": "view",
      "type": "function"
    },
    {
      "inputs": [
        {
          "internalType": "enum PredictorsApp.SIDE",
          "name": "",
          "type": "uint8"
        }
      ],
      "name": "topBetsForSide",
      "outputs": [
        {
          "internalType": "uint256",
          "name": "",
          "type": "uint256"
        }
      ],
      "stateMutability": "view",
      "type": "function"
    },
    {
      "inputs": [],
      "name": "userCount",
      "outputs": [
        {
          "internalType": "uint256",
          "name": "",
          "type": "uint256"
        }
      ],
      "stateMutability": "view",
      "type": "function"
    },
    {
      "inputs": [
        {
          "internalType": "address",
          "name": "",
          "type": "address"
        }
      ],
      "name": "users",
      "outputs": [
        {
          "internalType": "uint256",
          "name": "id",
          "type": "uint256"
        },
        {
          "internalType": "string",
          "name": "fullName",
          "type": "string"
        },
        {
          "internalType": "uint256",
          "name": "balance",
          "type": "uint256"
        },
        {
          "internalType": "address",
          "name": "walletAddress",
          "type": "address"
        },
        {
          "internalType": "uint256",
          "name": "registerDate",
          "type": "uint256"
        },
        {
          "internalType": "bool",
          "name": "isVerified",
          "type": "bool"
        },
        {
          "internalType": "uint256",
          "name": "predictionSuccesful",
          "type": "uint256"
        }
      ],
      "stateMutability": "view",
      "type": "function"
    },
    {
      "inputs": [
        {
          "internalType": "string",
          "name": "_fullName",
          "type": "string"
        }
      ],
      "name": "registerUser",
      "outputs": [],
      "stateMutability": "nonpayable",
      "type": "function"
    },
    {
      "inputs": [
        {
          "internalType": "string",
          "name": "_postContent",
          "type": "string"
        },
        {
          "internalType": "uint256",
          "name": "_postBet",
          "type": "uint256"
        },
        {
          "internalType": "uint256",
          "name": "_postEndDate",
          "type": "uint256"
        },
        {
          "internalType": "enum PredictorsApp.SIDE",
          "name": "_side",
          "type": "uint8"
        }
      ],
      "name": "createPost",
      "outputs": [],
      "stateMutability": "nonpayable",
      "type": "function"
    },
    {
      "inputs": [
        {
          "internalType": "uint256",
          "name": "_postId",
          "type": "uint256"
        },
        {
          "internalType": "uint256",
          "name": "_amount",
          "type": "uint256"
        },
        {
          "internalType": "enum PredictorsApp.SIDE",
          "name": "_side",
          "type": "uint8"
        }
      ],
      "name": "participateInPost",
      "outputs": [],
      "stateMutability": "nonpayable",
      "type": "function"
    },
    {
      "inputs": [
        {
          "internalType": "uint256",
          "name": "_postId",
          "type": "uint256"
        },
        {
          "internalType": "enum PredictorsApp.SIDE",
          "name": "_winner",
          "type": "uint8"
        },
        {
          "internalType": "enum PredictorsApp.SIDE",
          "name": "_loser",
          "type": "uint8"
        }
      ],
      "name": "sonucuRaporla",
      "outputs": [],
      "stateMutability": "payable",
      "type": "function"
    },
    {
      "inputs": [
        {
          "internalType": "address",
          "name": "userAddress",
          "type": "address"
        }
      ],
      "name": "getUserFullName",
      "outputs": [
        {
          "internalType": "string",
          "name": "",
          "type": "string"
        }
      ],
      "stateMutability": "view",
      "type": "function"
    },
    {
      "inputs": [
        {
          "internalType": "address",
          "name": "_walletAddress",
          "type": "address"
        }
      ],
      "name": "getUserDetails",
      "outputs": [
        {
          "internalType": "uint256",
          "name": "",
          "type": "uint256"
        },
        {
          "internalType": "string",
          "name": "",
          "type": "string"
        },
        {
          "internalType": "uint256",
          "name": "",
          "type": "uint256"
        },
        {
          "internalType": "address",
          "name": "",
          "type": "address"
        },
        {
          "internalType": "uint256",
          "name": "",
          "type": "uint256"
        },
        {
          "internalType": "bool",
          "name": "",
          "type": "bool"
        },
        {
          "internalType": "uint256[]",
          "name": "",
          "type": "uint256[]"
        },
        {
          "internalType": "uint256",
          "name": "",
          "type": "uint256"
        },
        {
          "internalType": "uint256[]",
          "name": "",
          "type": "uint256[]"
        }
      ],
      "stateMutability": "view",
      "type": "function"
    },
    {
      "inputs": [
        {
          "internalType": "uint256",
          "name": "_id",
          "type": "uint256"
        }
      ],
      "name": "getPostDetails",
      "outputs": [
        {
          "internalType": "uint256",
          "name": "",
          "type": "uint256"
        },
        {
          "internalType": "string",
          "name": "",
          "type": "string"
        },
        {
          "internalType": "uint256",
          "name": "",
          "type": "uint256"
        },
        {
          "internalType": "uint256",
          "name": "",
          "type": "uint256"
        },
        {
          "internalType": "uint256",
          "name": "",
          "type": "uint256"
        },
        {
          "internalType": "address[]",
          "name": "",
          "type": "address[]"
        },
        {
          "internalType": "uint256",
          "name": "",
          "type": "uint256"
        },
        {
          "internalType": "bool",
          "name": "",
          "type": "bool"
        }
      ],
      "stateMutability": "view",
      "type": "function"
    },
    {
      "inputs": [
        {
          "internalType": "bool",
          "name": "_status",
          "type": "bool"
        }
      ],
      "name": "getPostByStatus",
      "outputs": [
        {
          "components": [
            {
              "internalType": "uint256",
              "name": "id",
              "type": "uint256"
            },
            {
              "internalType": "string",
              "name": "postContent",
              "type": "string"
            },
            {
              "internalType": "uint256",
              "name": "postBet",
              "type": "uint256"
            },
            {
              "internalType": "uint256",
              "name": "postEndDate",
              "type": "uint256"
            },
            {
              "internalType": "uint256",
              "name": "postDate",
              "type": "uint256"
            },
            {
              "internalType": "address[]",
              "name": "postParticipants",
              "type": "address[]"
            },
            {
              "internalType": "uint256",
              "name": "postBetPool",
              "type": "uint256"
            },
            {
              "internalType": "bool",
              "name": "postFinished",
              "type": "bool"
            }
          ],
          "internalType": "struct PredictorsApp.Post[]",
          "name": "",
          "type": "tuple[]"
        }
      ],
      "stateMutability": "view",
      "type": "function"
    }
  ],
  "bytecode": "0x608060405234801561000f575f80fd5b505f80819055505f6001819055506136d28061002a5f395ff3fe6080604052600436106100fd575f3560e01c8063873ee90011610094578063adb6476911610063578063adb6476914610384578063c19d93fb146103a0578063cc3d967b146103cb578063d7441ee91461040f578063f851a4401461044b576100fd565b8063873ee900146102875780639fc226f4146102c3578063a87430ba14610306578063adb2e2d214610348576100fd565b8063302513d0116100d0578063302513d0146101bf5780633135899a146101fb5780633ca7c55e14610237578063704f1b941461025f576100fd565b806303f505c31461010157806307973ccf146101295780630b1e7f831461015357806317906c2e14610195575b5f80fd5b34801561010c575f80fd5b50610127600480360381019061012291906121e4565b610475565b005b348015610134575f80fd5b5061013d610878565b60405161014a9190612273565b60405180910390f35b34801561015e575f80fd5b506101796004803603810190610174919061228c565b61087d565b60405161018c979695949392919061234b565b60405180910390f35b3480156101a0575f80fd5b506101a961094d565b6040516101b69190612273565b60405180910390f35b3480156101ca575f80fd5b506101e560048036038101906101e091906123bf565b610953565b6040516101f29190612273565b60405180910390f35b348015610206575f80fd5b50610221600480360381019061021c9190612444565b610968565b60405161022e9190612273565b60405180910390f35b348015610242575f80fd5b5061025d60048036038101906102589190612482565b610988565b005b34801561026a575f80fd5b50610285600480360381019061028091906124d2565b610d5b565b005b348015610292575f80fd5b506102ad60048036038101906102a89190612519565b611041565b6040516102ba91906125ca565b60405180910390f35b3480156102ce575f80fd5b506102e960048036038101906102e4919061228c565b61106b565b6040516102fd98979695949392919061269a565b60405180910390f35b348015610311575f80fd5b5061032c60048036038101906103279190612724565b611293565b60405161033f979695949392919061275e565b60405180910390f35b348015610353575f80fd5b5061036e600480360381019061036991906127fc565b611382565b60405161037b9190612a68565b60405180910390f35b61039e60048036038101906103999190612a88565b61163d565b005b3480156103ab575f80fd5b506103b4611b08565b6040516103c2929190612ad8565b60405180910390f35b3480156103d6575f80fd5b506103f160048036038101906103ec9190612724565b611b31565b60405161040699989796959493929190612ba7565b60405180910390f35b34801561041a575f80fd5b5061043560048036038101906104309190612724565b611df0565b6040516104429190612c47565b60405180910390f35b348015610456575f80fd5b5061045f611e58565b60405161046c9190612c67565b60405180910390f35b5f8451116104b8576040517f08c379a00000000000000000000000000000000000000000000000000000000081526004016104af90612cca565b60405180910390fd5b5f83116104fa576040517f08c379a00000000000000000000000000000000000000000000000000000000081526004016104f190612d58565b60405180910390fd5b60015f81548092919061050c90612da3565b91905055505f600167ffffffffffffffff81111561052d5761052c61206a565b5b60405190808252806020026020018201604052801561055b5781602001602082028036833780820191505090505b50905033815f8151811061057257610571612dea565b5b602002602001019073ffffffffffffffffffffffffffffffffffffffff16908173ffffffffffffffffffffffffffffffffffffffff16815250508160085f3373ffffffffffffffffffffffffffffffffffffffff1673ffffffffffffffffffffffffffffffffffffffff1681526020019081526020015f205f60015481526020019081526020015f205f6101000a81548160ff0219169083600181111561061c5761061b612557565b5b021790555060405180610100016040528060015481526020018681526020018581526020018481526020014281526020018281526020018581526020015f151581525060055f60015481526020019081526020015f205f820151815f0155602082015181600101908161068f9190613011565b5060408201518160020155606082015181600301556080820151816004015560a08201518160050190805190602001906106ca929190611f13565b5060c0820151816006015560e0820151816007015f6101000a81548160ff0219169083151502179055509050508360075f3373ffffffffffffffffffffffffffffffffffffffff1673ffffffffffffffffffffffffffffffffffffffff1681526020019081526020015f205f84600181111561074957610748612557565b5b600181111561075b5761075a612557565b5b81526020019081526020015f205f82825461077691906130e0565b925050819055508360065f84600181111561079457610793612557565b5b60018111156107a6576107a5612557565b5b81526020019081526020015f205f8282546107c191906130e0565b9250508190555060045f3373ffffffffffffffffffffffffffffffffffffffff1673ffffffffffffffffffffffffffffffffffffffff1681526020019081526020015f20600601600154908060018154018082558091505060019003905f5260205f20015f90919091909150557f7899c2ae62d80d88c47b7e17dbdb5dec5b80aab5ed5bd8700581a6819e48dba2600154868686338760405161086996959493929190613113565b60405180910390a15050505050565b5f5481565b6005602052805f5260405f205f91509050805f0154908060010180546108a290612e44565b80601f01602080910402602001604051908101604052809291908181526020018280546108ce90612e44565b80156109195780601f106108f057610100808354040283529160200191610919565b820191905f5260205f20905b8154815290600101906020018083116108fc57829003601f168201915b505050505090806002015490806003015490806004015490806006015490806007015f9054906101000a900460ff16905087565b60015481565b6006602052805f5260405f205f915090505481565b6007602052815f5260405f20602052805f5260405f205f91509150505481565b600154831115801561099957505f83115b6109d8576040517f08c379a00000000000000000000000000000000000000000000000000000000081526004016109cf906131c3565b60405180910390fd5b5f8211610a1a576040517f08c379a0000000000000000000000000000000000000000000000000000000008152600401610a119061322b565b60405180910390fd5b3373ffffffffffffffffffffffffffffffffffffffff1660055f8581526020019081526020015f206005015f81548110610a5757610a56612dea565b5b905f5260205f20015f9054906101000a900473ffffffffffffffffffffffffffffffffffffffff1673ffffffffffffffffffffffffffffffffffffffff1603610ad5576040517f08c379a0000000000000000000000000000000000000000000000000000000008152600401610acc906132b9565b60405180910390fd5b8160065f836001811115610aec57610aeb612557565b5b6001811115610afe57610afd612557565b5b81526020019081526020015f205f828254610b1991906130e0565b925050819055508160075f3373ffffffffffffffffffffffffffffffffffffffff1673ffffffffffffffffffffffffffffffffffffffff1681526020019081526020015f205f836001811115610b7257610b71612557565b5b6001811115610b8457610b83612557565b5b81526020019081526020015f205f828254610b9f91906130e0565b925050819055508160055f8581526020019081526020015f206006015f828254610bc991906130e0565b925050819055508060085f3373ffffffffffffffffffffffffffffffffffffffff1673ffffffffffffffffffffffffffffffffffffffff1681526020019081526020015f205f8581526020019081526020015f205f6101000a81548160ff02191690836001811115610c3e57610c3d612557565b5b021790555060055f8481526020019081526020015f2060050133908060018154018082558091505060019003905f5260205f20015f9091909190916101000a81548173ffffffffffffffffffffffffffffffffffffffff021916908373ffffffffffffffffffffffffffffffffffffffff16021790555060045f3373ffffffffffffffffffffffffffffffffffffffff1673ffffffffffffffffffffffffffffffffffffffff1681526020019081526020015f2060080183908060018154018082558091505060019003905f5260205f20015f90919091909150557f65f3464dba2df0038cd6b6f3946cbff99b635032abc752ae6eb1d22a144d514383338484604051610d4e94939291906132d7565b60405180910390a1505050565b5f815111610d9e576040517f08c379a0000000000000000000000000000000000000000000000000000000008152600401610d9590613364565b60405180910390fd5b610da733611e7d565b15610de7576040517f08c379a0000000000000000000000000000000000000000000000000000000008152600401610dde906133cc565b60405180910390fd5b5f80815480929190610df890612da3565b91905055506040518061012001604052805f5481526020018281526020015f81526020013373ffffffffffffffffffffffffffffffffffffffff1681526020014281526020015f151581526020015f67ffffffffffffffff811115610e6057610e5f61206a565b5b604051908082528060200260200182016040528015610e8e5781602001602082028036833780820191505090505b5081526020015f81526020015f67ffffffffffffffff811115610eb457610eb361206a565b5b604051908082528060200260200182016040528015610ee25781602001602082028036833780820191505090505b5081525060045f3373ffffffffffffffffffffffffffffffffffffffff1673ffffffffffffffffffffffffffffffffffffffff1681526020019081526020015f205f820151815f01556020820151816001019081610f409190613011565b50604082015181600201556060820151816003015f6101000a81548173ffffffffffffffffffffffffffffffffffffffff021916908373ffffffffffffffffffffffffffffffffffffffff1602179055506080820151816004015560a0820151816005015f6101000a81548160ff02191690831515021790555060c0820151816006019080519060200190610fd6929190611f9a565b5060e08201518160070155610100820151816008019080519060200190610ffe929190611f9a565b509050507f252de601d0068c75b821d503ebaaf561c5b04c99d1cf5ebe04bf9c4348285b2f5f548233604051611036939291906133ea565b60405180910390a150565b6008602052815f5260405f20602052805f5260405f205f915091509054906101000a900460ff1681565b5f60605f805f60605f805f60055f8b81526020019081526020015f205f0154036110ca576040517f08c379a00000000000000000000000000000000000000000000000000000000081526004016110c190613470565b60405180910390fd5b5f60055f8b81526020019081526020015f20604051806101000160405290815f820154815260200160018201805461110190612e44565b80601f016020809104026020016040519081016040528092919081815260200182805461112d90612e44565b80156111785780601f1061114f57610100808354040283529160200191611178565b820191905f5260205f20905b81548152906001019060200180831161115b57829003601f168201915b505050505081526020016002820154815260200160038201548152602001600482015481526020016005820180548060200260200160405190810160405280929190818152602001828054801561122157602002820191905f5260205f20905b815f9054906101000a900473ffffffffffffffffffffffffffffffffffffffff1673ffffffffffffffffffffffffffffffffffffffff16815260200190600101908083116111d8575b5050505050815260200160068201548152602001600782015f9054906101000a900460ff1615151515815250509050805f015181602001518260400151836060015184608001518560a001518660c001518760e001519850985098509850985098509850985050919395975091939597565b6004602052805f5260405f205f91509050805f0154908060010180546112b890612e44565b80601f01602080910402602001604051908101604052809291908181526020018280546112e490612e44565b801561132f5780601f106113065761010080835404028352916020019161132f565b820191905f5260205f20905b81548152906001019060200180831161131257829003601f168201915b505050505090806002015490806003015f9054906101000a900473ffffffffffffffffffffffffffffffffffffffff1690806004015490806005015f9054906101000a900460ff16908060070154905087565b60605f80600190505b5f548110156113db5783151560055f8381526020019081526020015f206007015f9054906101000a900460ff161515036113ce5781806113ca90612da3565b9250505b808060010191505061138b565b505f8167ffffffffffffffff8111156113f7576113f661206a565b5b60405190808252806020026020018201604052801561143057816020015b61141d611fe5565b8152602001906001900390816114155790505b5090505f91505f600190505b5f5481116116325784151560055f8381526020019081526020015f206007015f9054906101000a900460ff1615150361161f5760055f8281526020019081526020015f20604051806101000160405290815f82015481526020016001820180546114a590612e44565b80601f01602080910402602001604051908101604052809291908181526020018280546114d190612e44565b801561151c5780601f106114f35761010080835404028352916020019161151c565b820191905f5260205f20905b8154815290600101906020018083116114ff57829003601f168201915b50505050508152602001600282015481526020016003820154815260200160048201548152602001600582018054806020026020016040519081016040528092919081815260200182805480156115c557602002820191905f5260205f20905b815f9054906101000a900473ffffffffffffffffffffffffffffffffffffffff1673ffffffffffffffffffffffffffffffffffffffff168152602001906001019080831161157c575b5050505050815260200160068201548152602001600782015f9054906101000a900460ff16151515158152505082848151811061160557611604612dea565b5b6020026020010181905250828061161b90612da3565b9350505b808061162a90612da3565b91505061143c565b508092505050919050565b5f151560055f8581526020019081526020015f206007015f9054906101000a900460ff161515146116a3576040517f08c379a000000000000000000000000000000000000000000000000000000000815260040161169a906134d8565b60405180910390fd5b8160035f015f6101000a81548160ff021916908360018111156116c9576116c8612557565b5b02179055508060035f0160016101000a81548160ff021916908360018111156116f5576116f4612557565b5b0217905550600160055f8581526020019081526020015f206007015f6101000a81548160ff0219169083151502179055505f60055f8581526020019081526020015f206005018054905067ffffffffffffffff8111156117585761175761206a565b5b6040519080825280602002602001820160405280156117865781602001602082028036833780820191505090505b5090505f60055f8681526020019081526020015f2060050180548060200260200160405190810160405280929190818152602001828054801561181b57602002820191905f5260205f20905b815f9054906101000a900473ffffffffffffffffffffffffffffffffffffffff1673ffffffffffffffffffffffffffffffffffffffff16815260200190600101908083116117d2575b505050505090505f60055f8781526020019081526020015f206006015490505f5b8251811015611aff575f83828151811061185957611858612dea565b5b6020026020010151905060085f8273ffffffffffffffffffffffffffffffffffffffff1673ffffffffffffffffffffffffffffffffffffffff1681526020019081526020015f205f8981526020019081526020015f205f9054906101000a900460ff168583815181106118cf576118ce612dea565b5b602002602001019060018111156118e9576118e8612557565b5b908160018111156118fd576118fc612557565b5b8152505060035f015f9054906101000a900460ff16600181111561192457611923612557565b5b85838151811061193757611936612dea565b5b6020026020010151600181111561195157611950612557565b5b03611af15760045f8273ffffffffffffffffffffffffffffffffffffffff1673ffffffffffffffffffffffffffffffffffffffff1681526020019081526020015f206007015f8154809291906119a690612da3565b91905055505f60075f8373ffffffffffffffffffffffffffffffffffffffff1673ffffffffffffffffffffffffffffffffffffffff1681526020019081526020015f205f8785815181106119fd576119fc612dea565b5b60200260200101516001811115611a1757611a16612557565b5b6001811115611a2957611a28612557565b5b81526020019081526020015f205490505f60065f60035f015f9054906101000a900460ff166001811115611a6057611a5f612557565b5b6001811115611a7257611a71612557565b5b81526020019081526020015f20548583611a8c91906134f6565b611a969190613564565b90508060045f8573ffffffffffffffffffffffffffffffffffffffff1673ffffffffffffffffffffffffffffffffffffffff1681526020019081526020015f206002015f828254611ae791906130e0565b9250508190555050505b50808060010191505061183c565b50505050505050565b6003805f015f9054906101000a900460ff1690805f0160019054906101000a900460ff16905082565b5f60605f805f8060605f6060611b468a611e7d565b611b85576040517f08c379a0000000000000000000000000000000000000000000000000000000008152600401611b7c906135de565b60405180910390fd5b5f60045f8c73ffffffffffffffffffffffffffffffffffffffff1673ffffffffffffffffffffffffffffffffffffffff1681526020019081526020015f20604051806101200160405290815f8201548152602001600182018054611be890612e44565b80601f0160208091040260200160405190810160405280929190818152602001828054611c1490612e44565b8015611c5f5780601f10611c3657610100808354040283529160200191611c5f565b820191905f5260205f20905b815481529060010190602001808311611c4257829003601f168201915b5050505050815260200160028201548152602001600382015f9054906101000a900473ffffffffffffffffffffffffffffffffffffffff1673ffffffffffffffffffffffffffffffffffffffff1673ffffffffffffffffffffffffffffffffffffffff16815260200160048201548152602001600582015f9054906101000a900460ff1615151515815260200160068201805480602002602001604051908101604052809291908181526020018280548015611d3857602002820191905f5260205f20905b815481526020019060010190808311611d24575b505050505081526020016007820154815260200160088201805480602002602001604051908101604052809291908181526020018280548015611d9857602002820191905f5260205f20905b815481526020019060010190808311611d84575b5050505050815250509050805f015181602001518260400151836060015184608001518560a001518660c001518760e00151886101000151995099509950995099509950995099509950509193959799909294969850565b606060045f8373ffffffffffffffffffffffffffffffffffffffff1673ffffffffffffffffffffffffffffffffffffffff1681526020019081526020015f20600101604051602001611e429190613686565b6040516020818303038152906040529050919050565b60025f9054906101000a900473ffffffffffffffffffffffffffffffffffffffff1681565b5f8173ffffffffffffffffffffffffffffffffffffffff1660045f8473ffffffffffffffffffffffffffffffffffffffff1673ffffffffffffffffffffffffffffffffffffffff1681526020019081526020015f206003015f9054906101000a900473ffffffffffffffffffffffffffffffffffffffff1673ffffffffffffffffffffffffffffffffffffffff16149050919050565b828054828255905f5260205f20908101928215611f89579160200282015b82811115611f88578251825f6101000a81548173ffffffffffffffffffffffffffffffffffffffff021916908373ffffffffffffffffffffffffffffffffffffffff16021790555091602001919060010190611f31565b5b509050611f969190612026565b5090565b828054828255905f5260205f20908101928215611fd4579160200282015b82811115611fd3578251825591602001919060010190611fb8565b5b509050611fe19190612026565b5090565b6040518061010001604052805f8152602001606081526020015f81526020015f81526020015f8152602001606081526020015f81526020015f151581525090565b5b8082111561203d575f815f905550600101612027565b5090565b5f604051905090565b5f80fd5b5f80fd5b5f80fd5b5f80fd5b5f601f19601f8301169050919050565b7f4e487b71000000000000000000000000000000000000000000000000000000005f52604160045260245ffd5b6120a08261205a565b810181811067ffffffffffffffff821117156120bf576120be61206a565b5b80604052505050565b5f6120d1612041565b90506120dd8282612097565b919050565b5f67ffffffffffffffff8211156120fc576120fb61206a565b5b6121058261205a565b9050602081019050919050565b828183375f83830152505050565b5f61213261212d846120e2565b6120c8565b90508281526020810184848401111561214e5761214d612056565b5b612159848285612112565b509392505050565b5f82601f83011261217557612174612052565b5b8135612185848260208601612120565b91505092915050565b5f819050919050565b6121a08161218e565b81146121aa575f80fd5b50565b5f813590506121bb81612197565b92915050565b600281106121cd575f80fd5b50565b5f813590506121de816121c1565b92915050565b5f805f80608085870312156121fc576121fb61204a565b5b5f85013567ffffffffffffffff8111156122195761221861204e565b5b61222587828801612161565b9450506020612236878288016121ad565b9350506040612247878288016121ad565b9250506060612258878288016121d0565b91505092959194509250565b61226d8161218e565b82525050565b5f6020820190506122865f830184612264565b92915050565b5f602082840312156122a1576122a061204a565b5b5f6122ae848285016121ad565b91505092915050565b5f81519050919050565b5f82825260208201905092915050565b5f5b838110156122ee5780820151818401526020810190506122d3565b5f8484015250505050565b5f612303826122b7565b61230d81856122c1565b935061231d8185602086016122d1565b6123268161205a565b840191505092915050565b5f8115159050919050565b61234581612331565b82525050565b5f60e08201905061235e5f83018a612264565b818103602083015261237081896122f9565b905061237f6040830188612264565b61238c6060830187612264565b6123996080830186612264565b6123a660a0830185612264565b6123b360c083018461233c565b98975050505050505050565b5f602082840312156123d4576123d361204a565b5b5f6123e1848285016121d0565b91505092915050565b5f73ffffffffffffffffffffffffffffffffffffffff82169050919050565b5f612413826123ea565b9050919050565b61242381612409565b811461242d575f80fd5b50565b5f8135905061243e8161241a565b92915050565b5f806040838503121561245a5761245961204a565b5b5f61246785828601612430565b9250506020612478858286016121d0565b9150509250929050565b5f805f606084860312156124995761249861204a565b5b5f6124a6868287016121ad565b93505060206124b7868287016121ad565b92505060406124c8868287016121d0565b9150509250925092565b5f602082840312156124e7576124e661204a565b5b5f82013567ffffffffffffffff8111156125045761250361204e565b5b61251084828501612161565b91505092915050565b5f806040838503121561252f5761252e61204a565b5b5f61253c85828601612430565b925050602061254d858286016121ad565b9150509250929050565b7f4e487b71000000000000000000000000000000000000000000000000000000005f52602160045260245ffd5b6002811061259557612594612557565b5b50565b5f8190506125a582612584565b919050565b5f6125b482612598565b9050919050565b6125c4816125aa565b82525050565b5f6020820190506125dd5f8301846125bb565b92915050565b5f81519050919050565b5f82825260208201905092915050565b5f819050602082019050919050565b61261581612409565b82525050565b5f612626838361260c565b60208301905092915050565b5f602082019050919050565b5f612648826125e3565b61265281856125ed565b935061265d836125fd565b805f5b8381101561268d578151612674888261261b565b975061267f83612632565b925050600181019050612660565b5085935050505092915050565b5f610100820190506126ae5f83018b612264565b81810360208301526126c0818a6122f9565b90506126cf6040830189612264565b6126dc6060830188612264565b6126e96080830187612264565b81810360a08301526126fb818661263e565b905061270a60c0830185612264565b61271760e083018461233c565b9998505050505050505050565b5f602082840312156127395761273861204a565b5b5f61274684828501612430565b91505092915050565b61275881612409565b82525050565b5f60e0820190506127715f83018a612264565b818103602083015261278381896122f9565b90506127926040830188612264565b61279f606083018761274f565b6127ac6080830186612264565b6127b960a083018561233c565b6127c660c0830184612264565b98975050505050505050565b6127db81612331565b81146127e5575f80fd5b50565b5f813590506127f6816127d2565b92915050565b5f602082840312156128115761281061204a565b5b5f61281e848285016127e8565b91505092915050565b5f81519050919050565b5f82825260208201905092915050565b5f819050602082019050919050565b6128598161218e565b82525050565b5f82825260208201905092915050565b5f612879826122b7565b612883818561285f565b93506128938185602086016122d1565b61289c8161205a565b840191505092915050565b5f82825260208201905092915050565b5f6128c1826125e3565b6128cb81856128a7565b93506128d6836125fd565b805f5b838110156129065781516128ed888261261b565b97506128f883612632565b9250506001810190506128d9565b5085935050505092915050565b61291c81612331565b82525050565b5f61010083015f8301516129385f860182612850565b5060208301518482036020860152612950828261286f565b91505060408301516129656040860182612850565b5060608301516129786060860182612850565b50608083015161298b6080860182612850565b5060a083015184820360a08601526129a382826128b7565b91505060c08301516129b860c0860182612850565b5060e08301516129cb60e0860182612913565b508091505092915050565b5f6129e18383612922565b905092915050565b5f602082019050919050565b5f6129ff82612827565b612a098185612831565b935083602082028501612a1b85612841565b805f5b85811015612a565784840389528151612a3785826129d6565b9450612a42836129e9565b925060208a01995050600181019050612a1e565b50829750879550505050505092915050565b5f6020820190508181035f830152612a8081846129f5565b905092915050565b5f805f60608486031215612a9f57612a9e61204a565b5b5f612aac868287016121ad565b9350506020612abd868287016121d0565b9250506040612ace868287016121d0565b9150509250925092565b5f604082019050612aeb5f8301856125bb565b612af860208301846125bb565b9392505050565b5f81519050919050565b5f82825260208201905092915050565b5f819050602082019050919050565b5f612b338383612850565b60208301905092915050565b5f602082019050919050565b5f612b5582612aff565b612b5f8185612b09565b9350612b6a83612b19565b805f5b83811015612b9a578151612b818882612b28565b9750612b8c83612b3f565b925050600181019050612b6d565b5085935050505092915050565b5f61012082019050612bbb5f83018c612264565b8181036020830152612bcd818b6122f9565b9050612bdc604083018a612264565b612be9606083018961274f565b612bf66080830188612264565b612c0360a083018761233c565b81810360c0830152612c158186612b4b565b9050612c2460e0830185612264565b818103610100830152612c378184612b4b565b90509a9950505050505050505050565b5f6020820190508181035f830152612c5f81846122f9565b905092915050565b5f602082019050612c7a5f83018461274f565b92915050565b7f506f737420636f6e74656e7420697320726571756972656400000000000000005f82015250565b5f612cb46018836122c1565b9150612cbf82612c80565b602082019050919050565b5f6020820190508181035f830152612ce181612ca8565b9050919050565b7f42657420616d6f756e74206d7573742062652067726561746572207468616e205f8201527f3000000000000000000000000000000000000000000000000000000000000000602082015250565b5f612d426021836122c1565b9150612d4d82612ce8565b604082019050919050565b5f6020820190508181035f830152612d6f81612d36565b9050919050565b7f4e487b71000000000000000000000000000000000000000000000000000000005f52601160045260245ffd5b5f612dad8261218e565b91507fffffffffffffffffffffffffffffffffffffffffffffffffffffffffffffffff8203612ddf57612dde612d76565b5b600182019050919050565b7f4e487b71000000000000000000000000000000000000000000000000000000005f52603260045260245ffd5b7f4e487b71000000000000000000000000000000000000000000000000000000005f52602260045260245ffd5b5f6002820490506001821680612e5b57607f821691505b602082108103612e6e57612e6d612e17565b5b50919050565b5f819050815f5260205f209050919050565b5f6020601f8301049050919050565b5f82821b905092915050565b5f60088302612ed07fffffffffffffffffffffffffffffffffffffffffffffffffffffffffffffffff82612e95565b612eda8683612e95565b95508019841693508086168417925050509392505050565b5f819050919050565b5f612f15612f10612f0b8461218e565b612ef2565b61218e565b9050919050565b5f819050919050565b612f2e83612efb565b612f42612f3a82612f1c565b848454612ea1565b825550505050565b5f90565b612f56612f4a565b612f61818484612f25565b505050565b5b81811015612f8457612f795f82612f4e565b600181019050612f67565b5050565b601f821115612fc957612f9a81612e74565b612fa384612e86565b81016020851015612fb2578190505b612fc6612fbe85612e86565b830182612f66565b50505b505050565b5f82821c905092915050565b5f612fe95f1984600802612fce565b1980831691505092915050565b5f6130018383612fda565b9150826002028217905092915050565b61301a826122b7565b67ffffffffffffffff8111156130335761303261206a565b5b61303d8254612e44565b613048828285612f88565b5f60209050601f831160018114613079575f8415613067578287015190505b6130718582612ff6565b8655506130d8565b601f19841661308786612e74565b5f5b828110156130ae57848901518255600182019150602085019450602081019050613089565b868310156130cb57848901516130c7601f891682612fda565b8355505b6001600288020188555050505b505050505050565b5f6130ea8261218e565b91506130f58361218e565b925082820190508082111561310d5761310c612d76565b5b92915050565b5f60c0820190506131265f830189612264565b818103602083015261313881886122f9565b90506131476040830187612264565b6131546060830186612264565b613161608083018561274f565b61316e60a08301846125bb565b979650505050505050565b7f496e76616c696420706f737420494400000000000000000000000000000000005f82015250565b5f6131ad600f836122c1565b91506131b882613179565b602082019050919050565b5f6020820190508181035f8301526131da816131a1565b9050919050565b7f416d6f756e74206d7573742062652067726561746572207468616e20300000005f82015250565b5f613215601d836122c1565b9150613220826131e1565b602082019050919050565b5f6020820190508181035f83015261324281613209565b9050919050565b7f4b656e6469206b6568616e6574696e65206b6174696c696d20796170616d617a5f8201527f73696e2100000000000000000000000000000000000000000000000000000000602082015250565b5f6132a36024836122c1565b91506132ae82613249565b604082019050919050565b5f6020820190508181035f8301526132d081613297565b9050919050565b5f6080820190506132ea5f830187612264565b6132f7602083018661274f565b6133046040830185612264565b61331160608301846125bb565b95945050505050565b7f46756c6c206e616d6520697320726571756972656400000000000000000000005f82015250565b5f61334e6015836122c1565b91506133598261331a565b602082019050919050565b5f6020820190508181035f83015261337b81613342565b9050919050565b7f4275206b756c6c616e696369207a6174656e20766172210000000000000000005f82015250565b5f6133b66017836122c1565b91506133c182613382565b602082019050919050565b5f6020820190508181035f8301526133e3816133aa565b9050919050565b5f6060820190506133fd5f830186612264565b818103602083015261340f81856122f9565b905061341e604083018461274f565b949350505050565b7f506f73742062756c756e616d61646921000000000000000000000000000000005f82015250565b5f61345a6010836122c1565b915061346582613426565b602082019050919050565b5f6020820190508181035f8301526134878161344e565b9050919050565b7f4b6568616e6574206269746d65646921000000000000000000000000000000005f82015250565b5f6134c26010836122c1565b91506134cd8261348e565b602082019050919050565b5f6020820190508181035f8301526134ef816134b6565b9050919050565b5f6135008261218e565b915061350b8361218e565b92508282026135198161218e565b915082820484148315176135305761352f612d76565b5b5092915050565b7f4e487b71000000000000000000000000000000000000000000000000000000005f52601260045260245ffd5b5f61356e8261218e565b91506135798361218e565b92508261358957613588613537565b5b828204905092915050565b7f4b756c6c616e6963692062756c756e616d6164692100000000000000000000005f82015250565b5f6135c86015836122c1565b91506135d382613594565b602082019050919050565b5f6020820190508181035f8301526135f5816135bc565b9050919050565b5f81905092915050565b5f815461361281612e44565b61361c81866135fc565b9450600182165f8114613636576001811461364b5761367d565b60ff198316865281151582028601935061367d565b61365485612e74565b5f5b8381101561367557815481890152600182019150602081019050613656565b838801955050505b50505092915050565b5f6136918284613606565b91508190509291505056fea26469706673582212206f386a0f98b628d9b59366c0064b61d932eab2e73f4c530bdd675d1d4d66299164736f6c63430008160033",
  "immutableReferences": {},
  "source": "// SPDX-License-Identifier: MIT\n\npragma solidity ^0.8.7;\n\ncontract PredictorsApp {\n    \n    /* ////////////////////////////////// */\n    /* ////////// DEKENLER /////////// */\n    /* ////////////////////////////////// */\n\n    uint256 public userCount; // Kullanc saysn tutmak iin bir deiken oluturuyoruz. Backend'e saklayacaz\n    uint256 public postCount; // Post saysn tutmak iin bir deiken oluturuyoruz. Backend'e saklayacaz\n    address public admin; // Admin adresini tutmak iin bir deiken oluturuyoruz.\n    WinnerLoserState public state; // WinnerLoserState struct'n manipule etmek iin bu deikeni kullanacaz.\n\n    /* ////////////////////////////////// */\n    /* //////////// ENUMLAR ///////////// */\n    /* ////////////////////////////////// */\n\n    enum SIDE {LEFT,RIGHT} // LEFT/RIGHT enum tipini oluturuyoruz.\n\n    /* ////////////////////////////////// */\n    /* ///////// STRUCT YAPILARI //////// */\n    /* ////////////////////////////////// */\n\n    //Kullanc bilgilerini tutmak iin User struct' oluturuyoruz.\n    struct User {\n        uint256 id; // Kullancnn ID'sini tutuyoruz.\n        string fullName; // Kullancnn adn ve soyadn tutuyoruz.\n        uint balance; //Kullancnn bakiyesi\n        address walletAddress; //Kullancnn czdan adresini tutuyoruz.\n        uint256 registerDate; //Kullancnn kayt olduu tarihi tutuyoruz.\n        bool isVerified; //Kullancnn dorulanp dorulanmadn tutuyoruz.\n        uint256[] allPredictions; //Kullanicinin Tum Postlarinn ID'leri - Int Array\n        uint256 predictionSuccesful; //Kullanici Basarili Sonuclanan Post Sayisi\n        uint256[] partipicatedPost; //Kullanicinin Katildigi (DER) Postlar - Int Array (Kendi postuna katlamaz)\n    }\n\n    //Post bilgilerini tutmak iin Post struct' oluturuyoruz.\n    struct Post {\n        uint256 id; // Postun ID'sini tutuyoruz.\n        string postContent; // Postun ieriini tutuyoruz.\n        uint256 postBet; // Kahinin postu olutururken yatrd bet miktarn tutuyoruz.\n        uint256 postEndDate; // Postun biti tarihini tutuyoruz.\n        uint256 postDate; // Postun oluturulma tarihini tutuyoruz.\n        address[] postParticipants; //Post katilimcileri - Address Array\n        uint256 postBetPool; //Posta katlmclarn yatrd toplam bet miktarn tutuyoruz.\n        bool postFinished; // Postun bitip bitmediini tutuyoruz.\n    }\n\n    // Kehanetin sonucunu yani hangi tarafn kazandn burada tutacaz\n    struct WinnerLoserState {\n        SIDE winner; // SIDE tipinde kazananlar tutuyoruz. (Left'in ve Right'n kazananlar)\n        SIDE loser; // SIDE tipinde kaybedenleri tutuyoruz. (Left'in ve Right'n kaybedenleri)\n    }\n\n    /* ////////////////////////////////// */\n    /* //////// MAPPING YAPILARI //////// */\n    /* ////////////////////////////////// */\n\n    mapping(address => User) public users; // Kullanclar tutmak/dndrmek iin bir mapping oluturuyoruz.\n    mapping(uint256 => Post) public posts; // Postlar tutmak/dndrmek iin bir mapping oluturuyoruz.\n    mapping(SIDE => uint256) public topBetsForSide; //Taraflar iin toplam yatrlan bahisler\n    mapping(address => mapping(SIDE => uint256)) public betAmountByUser; //Kullancnn tarafa yatrd bahis\n    mapping(address => mapping(uint256 => SIDE)) public sideByUser; // Kullancya gre taraflar tutuyoruz.\n\n    /* ////////////////////////////////// */\n    /* ///////// EVENT YAPILARI ///////// */\n    /* ////////////////////////////////// */\n\n    // Fonksiyonlarn durum bilgileri event ile bakalarna yayn yapyoruz\n    event NewUser(uint256 id, string fullName, address walletAddress);\n    event NewPost(uint256 id,string postContent,uint256 postBet,uint256 postEndDate,address postAuthor,SIDE _side);\n    event PostParticipation(uint256 postId,address participant,uint256 amount,SIDE _side);\n    event PostFinish(uint256 postId,address winner,uint256 totalBet,uint256 authorReward);\n\n    /* ////////////////////////////////// */\n    /* /////////// CONSTRUCTOR ////////// */\n    /* ////////////////////////////////// */\n\n    // Balangta ilklenmesi iin constructor fonksiyonu oluturuyoruz, kullanc ve post saylarn sfra ayarlyoruz.\n    constructor() {\n        userCount = 0;\n        postCount = 0;\n    }\n\n    /* ////////////////////////////////// */\n    /* /////////// MODIFIERLAR ////////// */\n    /* ////////////////////////////////// */\n\n    // Sadece adminin kullanabilecei fonksiyonlar belirlemek iin bir modifier oluturuyoruz.\n   /*  modifier onlyAdmin() {\n        require(msg.sender == admin, \"Bu islem icin admin yetkisi gerekmektedir!\"); //Balanan adresin admin olup olmadn kontrol ediyoruz.\n        _;\n    } */\n    \n    /* ////////////////////////////////// */\n    /* /////// EXECUTE FONKSIYONLAR ///// */\n    /* ////////////////////////////////// */\n\n    // Kullanc oluturma fonksiyonu\n    function registerUser(string memory _fullName) public {\n        require(bytes(_fullName).length > 0, \"Full name is required\");\n        require(!isUser(msg.sender) , \"Bu kullanici zaten var!\"); //Kullanc yoksa devam et\n        userCount++;\n\n        users[msg.sender] = User({\n            id: userCount,\n            fullName: _fullName,\n            balance: 0,\n            walletAddress: msg.sender,\n            registerDate: block.timestamp,\n            isVerified: false, //dogrulanmis mi\n            allPredictions: new uint256[](0), //oluturduu postlarn/tahminlerin indexi\n            predictionSuccesful: 0, //basarili tahminler\n            partipicatedPost: new uint256[](0) //diger katildigi tahminlerin/postlarn indexi\n        });\n        \n\n        emit NewUser(userCount, _fullName, msg.sender);\n    }\n\n    // Post oluturma fonksiyonu\n    function createPost(string memory _postContent,uint256 _postBet,uint256 _postEndDate, SIDE _side) public {\n        require(bytes(_postContent).length > 0, \"Post content is required\");\n        require(_postBet > 0, \"Bet amount must be greater than 0\");\n        //require(_postEndDate > block.timestamp, \"End date must be in the future\");\n        postCount++;\n\n        //Post yaratldnda ilk katlmc olarak post sahibini ekliyoruz ekliyoruz.\n        address[] memory initialParticipants = new address[](1);\n        initialParticipants[0] = msg.sender;\n\n        //Seilen taraf post ID sine gre kullancnn setii tarafa mapliyoruz.\n        sideByUser[msg.sender][postCount] = _side;\n\n        posts[postCount] = Post({\n            id: postCount, //Postun ID si\n            postContent: _postContent, //Post icerigi\n            postBet: _postBet, //Postun degeri\n            postEndDate: _postEndDate,\n            postDate: block.timestamp,\n            postParticipants: initialParticipants, // lk katlmc olarak sadece gndereni ekle\n            postBetPool: _postBet, //Postun toplam havuzu. Ilk yaratildiginda kahin betini post havuzuna ekledik\n            postFinished: false // Post bitti mi\n            //taraf: sideByUser[msg.sender][postCount] //Kahinin post'ta seecei taraf structa atadk\n        });\n\n        //Kahinin evet veya hayr seeneine dedii miktar ve hangi tarafn setiini tutan mappingi gncelleiyoruz.\n        betAmountByUser[msg.sender][_side] += _postBet; //Kahin'in odedigi miktari guncelledik\n        topBetsForSide[_side] += _postBet;\n        \n        //Kullanicinin toplam tahmin sayisini guncelliyoruz\n        users[msg.sender].allPredictions.push(postCount);\n        emit NewPost(postCount, _postContent, _postBet, _postEndDate, msg.sender, _side\n        );\n    }\n\n    // Dier kullanclarn bir posta katlm fonksiyonu\n    function participateInPost( uint256 _postId, uint256 _amount, SIDE _side ) public {\n        require(_postId <= postCount && _postId > 0, \"Invalid post ID\");\n        //require(posts[_postId].postEndDate > block.timestamp, \"Post has ended.\");\n        require(_amount > 0, \"Amount must be greater than 0\");\n        //Post sahibi kendi postuna bahis yapamaz\n        require(posts[_postId].postParticipants[0] != msg.sender,\n            \"Kendi kehanetine katilim yapamazsin!\");\n\n        //Evet veya Hayr seeneinin toplam toplam havuzuna amount u ekliyoruz.\n        topBetsForSide[_side] += _amount;\n\n        //Kahin'in evet veya hayr seeneine dedii miktar gncelleiyoruz.\n        //rn: Kahin(msg.sender) \"Evet/Hayr\" seeneine _amount miktar deme ekledi.\n        betAmountByUser[msg.sender][_side] += _amount; //Kahin'in odedigi miktari guncelledik\n\n        posts[_postId].postBetPool += _amount; //Postun havuzunu gncelliyoruz.\n\n        sideByUser[msg.sender][_postId] = _side; //Kullancnn postID'ye gre tarafn gncelledik\n        //posts[_postId].taraf = _side;//Post'un taraf havuzunu arttrdk\n\n        posts[_postId].postParticipants.push(msg.sender); // Katlan kullancnn czdan adresini katilimcilar dizisine ekledik\n\n        //Kullancnn dier katld postlar gncelliyoruz.\n        users[msg.sender].partipicatedPost.push(_postId);\n\n        emit PostParticipation(_postId, msg.sender, _amount, _side);\n    }\n\n    // Etkinligin kazanani belirleyen fonksiyon.\n    // winner ile 0(LEFT) veya 1(RIGHT) alacaz. loser ile 0(LEFT) veya 1(RIGHT) alacaz\n    function sonucuRaporla( uint256 _postId, SIDE _winner, SIDE _loser) external payable {\n        //require(predictor == msg.sender, \"Kahin degilsiniz!\"); //Kahin olup olmadn kontrol ediyoruz.\n        require(posts[_postId].postFinished == false, \"Kehanet bitmedi!\"); //Kehanetin bitmediyse devam et, bittiyse rapor oluturma.\n        \n\n        //Hangi tarafn kazandn struct'a bildiriyoruz\n        state.winner = _winner; //Param ile gelen winner'i struct'taki winner'a atiyoruz.\n        state.loser = _loser; //Param ile gelen loser'i struct'taki loser'a atiyoruz.\n        posts[_postId].postFinished = true; //Kehanetin bittigini belirtiyoruz.\n\n    \n        //Kazananlar listelemek iin for kullanacaz. Her dngde kullancnn state(winner) durumunu kontrol edeceiz.\n        // Side durumunu ve katlmclar almak iin geici diziler oluturuyoruz\n        SIDE[] memory participantsSides = new SIDE[](posts[_postId].postParticipants.length); \n        address[] memory participantsAddresses = posts[_postId].postParticipants; \n        \n        uint totalBetPool = posts[_postId].postBetPool;\n        \n\n        for (uint256 i = 0; i < participantsAddresses.length; i++) {\n            address participant = participantsAddresses[i];\n            participantsSides[i] = sideByUser[participant][_postId];\n\n            if(participantsSides[i] == state.winner){  // Katlmcnn adresi  = LEFT\n                \n                users[participant].predictionSuccesful ++; //Kazananlarin basarili tahmin degerini guncelledik\n\n                // Odul miktarini hesapla (kazananlarin toplam bahis havuzunun yuzdesi)\n                uint participantBet = betAmountByUser[participant][participantsSides[i]]; //Yatrd sermaye\n                \n                //(Yatrd bahis * Havuzdaki top miktar) /toplam kazanan says\n                uint rewardAmount = (participantBet * totalBetPool) / topBetsForSide[state.winner];\n                users[participant].balance += rewardAmount;\n                //payable(users[participant]).transfer(users[participant].balance);\n                \n                //uint256 sermaye = betAmountByUser[msg.sender][state.winner];\n                \n                // KAZANC + (no diyenlerin sayisi * sermaye) / KAZANAN KISI SAYISI\n                // uint256 kazanc = sermaye + (topBetsForSide[state.loser] * sermaye) / topBetsForSide[state.winner];\n   \n            }   \n        }\n    }\n\n\n    /* //////////////////////////////////// */\n    /* //////// QUERY FONKSIYONLAR //////// */\n    /* //////////////////////////////////// */\n\n    // Kullancnn ad ve soyadn eken fonksiyon\n    function getUserFullName(address userAddress) public view returns (string memory) {\n        return string(abi.encodePacked(users[userAddress].fullName)); \n    }\n\n    //Kullanc var olup olmadn kontrol ediyoruz. True yada False dnmesini bekliyoruz.\n    function isUser(address _walletAddress) private view returns (bool) {\n        return users[_walletAddress].walletAddress == _walletAddress; // Adress verdiimiz kullancnn adresi 0'a eit deilse true dndryoruz.\n    }\n\n    //Kullanc bilgilerini ekme fonksiyonu\n    function getUserDetails(address _walletAddress) public  view returns ( uint256, string memory, uint, address, uint256, bool, uint256[] memory, uint256, uint256[] memory ){\n        require(isUser(_walletAddress), \"Kullanici bulunamadi!\"); //Kullanc yoksa devam et\n\n        User memory user = users[_walletAddress]; \n\n        return (\n            user.id,\n            user.fullName,\n            user.balance,\n            user.walletAddress,\n            user.registerDate,\n            user.isVerified,\n            user.allPredictions,\n            user.predictionSuccesful,\n            user.partipicatedPost\n        );\n    }\n\n    //Post bilgilerini ekme fonksiyonu\n    function getPostDetails(uint256 _id) public view returns ( uint256, string memory, uint256, uint256, uint256, address[] memory, uint, bool ) {\n        require(posts[_id].id != 0, \"Post bulunamadi!\"); // Post varsa devam et\n\n        Post memory post = posts[_id];\n\n        return (\n            post.id,\n            post.postContent,\n            post.postBet,\n            post.postEndDate,\n            post.postDate,\n            post.postParticipants,\n            post.postBetPool,\n            post.postFinished\n        );\n\n       \n    }\n\n    // Postlar aktif/pasif durumuna gre listeleme fonksiyonu (Parametre 0/1 alr)\n    function getPostByStatus(bool _status) external view returns (Post[] memory) {\n        uint256 count = 0;\n\n        //Verilen status deerine gre postlarn saysn buluyoruz.\n        for (uint256 i = 1; i < userCount; i++) {\n            if (posts[i].postFinished == _status) {\n                count++;\n            }\n        }\n\n        //Yukarda filtrelenmi postlarn says kadar dizi oluturuyoruz.\n        Post[] memory postsWithStatus = new Post[](count);\n        count = 0; //count'u sfrlyoruz.\n\n        //Verilen status deerine gre postlar postsWithStatus dizisine aktarma ilemi yapyoruz\n        for (uint256 i = 1; i <= userCount; i++) {\n            if (posts[i].postFinished == _status) {\n                postsWithStatus[count] = posts[i];\n                count++;\n            }\n        }\n        return postsWithStatus;\n    }\n\n    \n}\n",
  "sourcePath": "/Users/dmrdvn/Projects/PredictorsDAPP/contracts/PredictorsApp.sol",
  "compiler": {
    "name": "solc",
    "version": "0.8.22+commit.4fc1097e.Emscripten.clang"
  },
  "schemaVersion": "3.4.16",
  "updatedAt": "2023-10-31T00:29:00.979Z",
  "devdoc": {
    "kind": "dev",
    "methods": {},
    "version": 1
  },
  "userdoc": {
    "kind": "user",
    "methods": {},
    "version": 1
  }
}